Archive member included to satisfy reference by file (symbol)

C:\Users\josel\Documents\MCUXpressoIDE_11.4.0_6237\workspace\MIMXRT1011_Project_NoteDetect_Project\libs\libarm_cortexM7lfsp_math.a(arm_max_f32.o)
                              ./source/Fourier.o (arm_max_f32)
C:\Users\josel\Documents\MCUXpressoIDE_11.4.0_6237\workspace\MIMXRT1011_Project_NoteDetect_Project\libs\libarm_cortexM7lfsp_math.a(arm_cfft_radix2_init_f32.o)
                              ./source/Fourier.o (arm_cfft_radix2_init_f32)
C:\Users\josel\Documents\MCUXpressoIDE_11.4.0_6237\workspace\MIMXRT1011_Project_NoteDetect_Project\libs\libarm_cortexM7lfsp_math.a(arm_cfft_radix2_f32.o)
                              ./source/Fourier.o (arm_cfft_radix2_f32)
C:\Users\josel\Documents\MCUXpressoIDE_11.4.0_6237\workspace\MIMXRT1011_Project_NoteDetect_Project\libs\libarm_cortexM7lfsp_math.a(arm_bitreversal.o)
                              C:\Users\josel\Documents\MCUXpressoIDE_11.4.0_6237\workspace\MIMXRT1011_Project_NoteDetect_Project\libs\libarm_cortexM7lfsp_math.a(arm_cfft_radix2_f32.o) (arm_bitreversal_f32)
C:\Users\josel\Documents\MCUXpressoIDE_11.4.0_6237\workspace\MIMXRT1011_Project_NoteDetect_Project\libs\libarm_cortexM7lfsp_math.a(arm_cmplx_mag_f32.o)
                              ./source/Fourier.o (arm_cmplx_mag_f32)
C:\Users\josel\Documents\MCUXpressoIDE_11.4.0_6237\workspace\MIMXRT1011_Project_NoteDetect_Project\libs\libarm_cortexM7lfsp_math.a(arm_common_tables.o)
                              C:\Users\josel\Documents\MCUXpressoIDE_11.4.0_6237\workspace\MIMXRT1011_Project_NoteDetect_Project\libs\libarm_cortexM7lfsp_math.a(arm_cfft_radix2_init_f32.o) (twiddleCoef_4096)
c:/nxp/mcuxpressoide_11.4.0_6237/ide/plugins/com.nxp.mcuxpresso.tools.win32_11.4.0.202103011116/tools/bin/../lib/gcc/arm-none-eabi/10.2.1/../../../../arm-none-eabi/lib/thumb/v7e-m+fp/hard\libcr_nohost_nf.a(_cr__main.o)
                              ./startup/startup_mimxrt1011.o (__main)
c:/nxp/mcuxpressoide_11.4.0_6237/ide/plugins/com.nxp.mcuxpresso.tools.win32_11.4.0.202103011116/tools/bin/../lib/gcc/arm-none-eabi/10.2.1/../../../../arm-none-eabi/lib/thumb/v7e-m+fp/hard\libcr_nohost_nf.a(_cr_assert.o)
                              ./utilities/fsl_debug_console.o (__assertion_failed)
c:/nxp/mcuxpressoide_11.4.0_6237/ide/plugins/com.nxp.mcuxpresso.tools.win32_11.4.0.202103011116/tools/bin/../lib/gcc/arm-none-eabi/10.2.1/../../../../arm-none-eabi/lib/thumb/v7e-m+fp/hard\libcr_nohost_nf.a(__ciob.o)
                              c:/nxp/mcuxpressoide_11.4.0_6237/ide/plugins/com.nxp.mcuxpresso.tools.win32_11.4.0.202103011116/tools/bin/../lib/gcc/arm-none-eabi/10.2.1/../../../../arm-none-eabi/lib/thumb/v7e-m+fp/hard\libcr_nohost_nf.a(_cr_assert.o) (__Ciob)
c:/nxp/mcuxpressoide_11.4.0_6237/ide/plugins/com.nxp.mcuxpresso.tools.win32_11.4.0.202103011116/tools/bin/../lib/gcc/arm-none-eabi/10.2.1/../../../../arm-none-eabi/lib/thumb/v7e-m+fp/hard\libcr_nohost_nf.a(__sys_appexit.o)
                              c:/nxp/mcuxpressoide_11.4.0_6237/ide/plugins/com.nxp.mcuxpresso.tools.win32_11.4.0.202103011116/tools/bin/../lib/gcc/arm-none-eabi/10.2.1/../../../../arm-none-eabi/lib/thumb/v7e-m+fp/hard\libcr_nohost_nf.a(_cr_assert.o) (__sys_appexit)
c:/nxp/mcuxpressoide_11.4.0_6237/ide/plugins/com.nxp.mcuxpresso.tools.win32_11.4.0.202103011116/tools/bin/../lib/gcc/arm-none-eabi/10.2.1/../../../../arm-none-eabi/lib/thumb/v7e-m+fp/hard\libcr_c.a(sqrtf_m4_hardfp.o)
                              C:\Users\josel\Documents\MCUXpressoIDE_11.4.0_6237\workspace\MIMXRT1011_Project_NoteDetect_Project\libs\libarm_cortexM7lfsp_math.a(arm_cmplx_mag_f32.o) (sqrtf)
c:/nxp/mcuxpressoide_11.4.0_6237/ide/plugins/com.nxp.mcuxpresso.tools.win32_11.4.0.202103011116/tools/bin/../lib/gcc/arm-none-eabi/10.2.1/../../../../arm-none-eabi/lib/thumb/v7e-m+fp/hard\libcr_c.a(memcpy.o)
                              ./codec/fsl_wm8960.o (memcpy)
c:/nxp/mcuxpressoide_11.4.0_6237/ide/plugins/com.nxp.mcuxpresso.tools.win32_11.4.0.202103011116/tools/bin/../lib/gcc/arm-none-eabi/10.2.1/../../../../arm-none-eabi/lib/thumb/v7e-m+fp/hard\libcr_c.a(memset.o)
                              ./utilities/fsl_debug_console.o (memset)
c:/nxp/mcuxpressoide_11.4.0_6237/ide/plugins/com.nxp.mcuxpresso.tools.win32_11.4.0.202103011116/tools/bin/../lib/gcc/arm-none-eabi/10.2.1/../../../../arm-none-eabi/lib/thumb/v7e-m+fp/hard\libcr_c.a(_deferredlazyseek.o)
                              c:/nxp/mcuxpressoide_11.4.0_6237/ide/plugins/com.nxp.mcuxpresso.tools.win32_11.4.0.202103011116/tools/bin/../lib/gcc/arm-none-eabi/10.2.1/../../../../arm-none-eabi/lib/thumb/v7e-m+fp/hard\libcr_nohost_nf.a(_cr_assert.o) (__flsbuf)
c:/nxp/mcuxpressoide_11.4.0_6237/ide/plugins/com.nxp.mcuxpresso.tools.win32_11.4.0.202103011116/tools/bin/../lib/gcc/arm-none-eabi/10.2.1/../../../../arm-none-eabi/lib/thumb/v7e-m+fp/hard\libcr_c.a(_fflush.o)
                              c:/nxp/mcuxpressoide_11.4.0_6237/ide/plugins/com.nxp.mcuxpresso.tools.win32_11.4.0.202103011116/tools/bin/../lib/gcc/arm-none-eabi/10.2.1/../../../../arm-none-eabi/lib/thumb/v7e-m+fp/hard\libcr_c.a(_deferredlazyseek.o) (_fflush)
c:/nxp/mcuxpressoide_11.4.0_6237/ide/plugins/com.nxp.mcuxpresso.tools.win32_11.4.0.202103011116/tools/bin/../lib/gcc/arm-none-eabi/10.2.1/../../../../arm-none-eabi/lib/thumb/v7e-m+fp/hard\libcr_c.a(_writebuf.o)
                              c:/nxp/mcuxpressoide_11.4.0_6237/ide/plugins/com.nxp.mcuxpresso.tools.win32_11.4.0.202103011116/tools/bin/../lib/gcc/arm-none-eabi/10.2.1/../../../../arm-none-eabi/lib/thumb/v7e-m+fp/hard\libcr_c.a(_deferredlazyseek.o) (_Cwritebuf)
c:/nxp/mcuxpressoide_11.4.0_6237/ide/plugins/com.nxp.mcuxpresso.tools.win32_11.4.0.202103011116/tools/bin/../lib/gcc/arm-none-eabi/10.2.1/../../../../arm-none-eabi/lib/thumb/v7e-m+fp/hard\libcr_c.a(alloc.o)
                              ./drivers/fsl_common.o (malloc)
c:/nxp/mcuxpressoide_11.4.0_6237/ide/plugins/com.nxp.mcuxpresso.tools.win32_11.4.0.202103011116/tools/bin/../lib/gcc/arm-none-eabi/10.2.1/../../../../arm-none-eabi/lib/thumb/v7e-m+fp/hard\libcr_c.a(fputs.o)
                              c:/nxp/mcuxpressoide_11.4.0_6237/ide/plugins/com.nxp.mcuxpresso.tools.win32_11.4.0.202103011116/tools/bin/../lib/gcc/arm-none-eabi/10.2.1/../../../../arm-none-eabi/lib/thumb/v7e-m+fp/hard\libcr_nohost_nf.a(_cr_assert.o) (fputs)
c:/nxp/mcuxpressoide_11.4.0_6237/ide/plugins/com.nxp.mcuxpresso.tools.win32_11.4.0.202103011116/tools/bin/../lib/gcc/arm-none-eabi/10.2.1/../../../../arm-none-eabi/lib/thumb/v7e-m+fp/hard\libcr_c.a(fseek.o)
                              c:/nxp/mcuxpressoide_11.4.0_6237/ide/plugins/com.nxp.mcuxpresso.tools.win32_11.4.0.202103011116/tools/bin/../lib/gcc/arm-none-eabi/10.2.1/../../../../arm-none-eabi/lib/thumb/v7e-m+fp/hard\libcr_c.a(_deferredlazyseek.o) (fseek)
c:/nxp/mcuxpressoide_11.4.0_6237/ide/plugins/com.nxp.mcuxpresso.tools.win32_11.4.0.202103011116/tools/bin/../lib/gcc/arm-none-eabi/10.2.1/../../../../arm-none-eabi/lib/thumb/v7e-m+fp/hard\libcr_c.a(ftell.o)
                              c:/nxp/mcuxpressoide_11.4.0_6237/ide/plugins/com.nxp.mcuxpresso.tools.win32_11.4.0.202103011116/tools/bin/../lib/gcc/arm-none-eabi/10.2.1/../../../../arm-none-eabi/lib/thumb/v7e-m+fp/hard\libcr_c.a(fseek.o) (ftell)
c:/nxp/mcuxpressoide_11.4.0_6237/ide/plugins/com.nxp.mcuxpresso.tools.win32_11.4.0.202103011116/tools/bin/../lib/gcc/arm-none-eabi/10.2.1/../../../../arm-none-eabi/lib/thumb/v7e-m+fp/hard\libcr_c.a(initio.o)
                              c:/nxp/mcuxpressoide_11.4.0_6237/ide/plugins/com.nxp.mcuxpresso.tools.win32_11.4.0.202103011116/tools/bin/../lib/gcc/arm-none-eabi/10.2.1/../../../../arm-none-eabi/lib/thumb/v7e-m+fp/hard\libcr_nohost_nf.a(_cr__main.o) (_initio)
c:/nxp/mcuxpressoide_11.4.0_6237/ide/plugins/com.nxp.mcuxpresso.tools.win32_11.4.0.202103011116/tools/bin/../lib/gcc/arm-none-eabi/10.2.1/../../../../arm-none-eabi/lib/thumb/v7e-m+fp/hard\libcr_c.a(setvbuf.o)
                              c:/nxp/mcuxpressoide_11.4.0_6237/ide/plugins/com.nxp.mcuxpresso.tools.win32_11.4.0.202103011116/tools/bin/../lib/gcc/arm-none-eabi/10.2.1/../../../../arm-none-eabi/lib/thumb/v7e-m+fp/hard\libcr_c.a(initio.o) (setvbuf)
c:/nxp/mcuxpressoide_11.4.0_6237/ide/plugins/com.nxp.mcuxpresso.tools.win32_11.4.0.202103011116/tools/bin/../lib/gcc/arm-none-eabi/10.2.1/../../../../arm-none-eabi/lib/thumb/v7e-m+fp/hard\libcr_c.a(strlen.o)
                              ./utilities/fsl_str.o (strlen)
c:/nxp/mcuxpressoide_11.4.0_6237/ide/plugins/com.nxp.mcuxpresso.tools.win32_11.4.0.202103011116/tools/bin/../lib/gcc/arm-none-eabi/10.2.1/../../../../arm-none-eabi/lib/thumb/v7e-m+fp/hard\libcr_c.a(__init_alloc.o)
                              c:/nxp/mcuxpressoide_11.4.0_6237/ide/plugins/com.nxp.mcuxpresso.tools.win32_11.4.0.202103011116/tools/bin/../lib/gcc/arm-none-eabi/10.2.1/../../../../arm-none-eabi/lib/thumb/v7e-m+fp/hard\libcr_c.a(alloc.o) (__heaps)
c:/nxp/mcuxpressoide_11.4.0_6237/ide/plugins/com.nxp.mcuxpresso.tools.win32_11.4.0.202103011116/tools/bin/../lib/gcc/arm-none-eabi/10.2.1/../../../../arm-none-eabi/lib/thumb/v7e-m+fp/hard\libcr_c.a(_cr_sbrk.o)
                              c:/nxp/mcuxpressoide_11.4.0_6237/ide/plugins/com.nxp.mcuxpresso.tools.win32_11.4.0.202103011116/tools/bin/../lib/gcc/arm-none-eabi/10.2.1/../../../../arm-none-eabi/lib/thumb/v7e-m+fp/hard\libcr_c.a(alloc.o) (_sbrk)
c:/nxp/mcuxpressoide_11.4.0_6237/ide/plugins/com.nxp.mcuxpresso.tools.win32_11.4.0.202103011116/tools/bin/../lib/gcc/arm-none-eabi/10.2.1/../../../../arm-none-eabi/lib/thumb/v7e-m+fp/hard\libcr_c.a(_fdopen.o)
                              c:/nxp/mcuxpressoide_11.4.0_6237/ide/plugins/com.nxp.mcuxpresso.tools.win32_11.4.0.202103011116/tools/bin/../lib/gcc/arm-none-eabi/10.2.1/../../../../arm-none-eabi/lib/thumb/v7e-m+fp/hard\libcr_c.a(initio.o) (_fdopen)
c:/nxp/mcuxpressoide_11.4.0_6237/ide/plugins/com.nxp.mcuxpresso.tools.win32_11.4.0.202103011116/tools/bin/../lib/gcc/arm-none-eabi/10.2.1/../../../../arm-none-eabi/lib/thumb/v7e-m+fp/hard\libcr_c.a(errno.o)
                              c:/nxp/mcuxpressoide_11.4.0_6237/ide/plugins/com.nxp.mcuxpresso.tools.win32_11.4.0.202103011116/tools/bin/../lib/gcc/arm-none-eabi/10.2.1/../../../../arm-none-eabi/lib/thumb/v7e-m+fp/hard\libcr_c.a(ftell.o) (errno)
c:/nxp/mcuxpressoide_11.4.0_6237/ide/plugins/com.nxp.mcuxpresso.tools.win32_11.4.0.202103011116/tools/bin/../lib/gcc/arm-none-eabi/10.2.1/../../../../arm-none-eabi/lib/thumb/v7e-m+fp/hard\libcr_c.a(fclose.o)
                              c:/nxp/mcuxpressoide_11.4.0_6237/ide/plugins/com.nxp.mcuxpresso.tools.win32_11.4.0.202103011116/tools/bin/../lib/gcc/arm-none-eabi/10.2.1/../../../../arm-none-eabi/lib/thumb/v7e-m+fp/hard\libcr_c.a(initio.o) (fclose)
c:/nxp/mcuxpressoide_11.4.0_6237/ide/plugins/com.nxp.mcuxpresso.tools.win32_11.4.0.202103011116/tools/bin/../lib/gcc/arm-none-eabi/10.2.1/../../../../arm-none-eabi/lib/thumb/v7e-m+fp/hard\libcr_c.a(fflush.o)
                              c:/nxp/mcuxpressoide_11.4.0_6237/ide/plugins/com.nxp.mcuxpresso.tools.win32_11.4.0.202103011116/tools/bin/../lib/gcc/arm-none-eabi/10.2.1/../../../../arm-none-eabi/lib/thumb/v7e-m+fp/hard\libcr_c.a(fclose.o) (fflush)
c:/nxp/mcuxpressoide_11.4.0_6237/ide/plugins/com.nxp.mcuxpresso.tools.win32_11.4.0.202103011116/tools/bin/../lib/gcc/arm-none-eabi/10.2.1/../../../../arm-none-eabi/lib/thumb/v7e-m+fp/hard\libcr_c.a(remove.o)
                              c:/nxp/mcuxpressoide_11.4.0_6237/ide/plugins/com.nxp.mcuxpresso.tools.win32_11.4.0.202103011116/tools/bin/../lib/gcc/arm-none-eabi/10.2.1/../../../../arm-none-eabi/lib/thumb/v7e-m+fp/hard\libcr_c.a(fclose.o) (remove)
c:/nxp/mcuxpressoide_11.4.0_6237/ide/plugins/com.nxp.mcuxpresso.tools.win32_11.4.0.202103011116/tools/bin/../lib/gcc/arm-none-eabi/10.2.1/../../../../arm-none-eabi/lib/thumb/v7e-m+fp/hard\libcr_c.a(_cr_check_heap.o)
                              c:/nxp/mcuxpressoide_11.4.0_6237/ide/plugins/com.nxp.mcuxpresso.tools.win32_11.4.0.202103011116/tools/bin/../lib/gcc/arm-none-eabi/10.2.1/../../../../arm-none-eabi/lib/thumb/v7e-m+fp/hard\libcr_c.a(_cr_sbrk.o) (__check_heap_overflow)
c:/nxp/mcuxpressoide_11.4.0_6237/ide/plugins/com.nxp.mcuxpresso.tools.win32_11.4.0.202103011116/tools/bin/../lib/gcc/arm-none-eabi/10.2.1/../../../../arm-none-eabi/lib/thumb/v7e-m+fp/hard\libcr_c.a(_do_fflush.o)
                              c:/nxp/mcuxpressoide_11.4.0_6237/ide/plugins/com.nxp.mcuxpresso.tools.win32_11.4.0.202103011116/tools/bin/../lib/gcc/arm-none-eabi/10.2.1/../../../../arm-none-eabi/lib/thumb/v7e-m+fp/hard\libcr_c.a(fflush.o) (_do_fflush)
c:/nxp/mcuxpressoide_11.4.0_6237/ide/plugins/com.nxp.mcuxpresso.tools.win32_11.4.0.202103011116/tools/bin/../lib/gcc/arm-none-eabi/10.2.1/thumb/v7e-m+fp/hard\libcr_eabihelpers.a(division_64.o)
                              ./drivers/fsl_clock.o (__aeabi_uldivmod)
c:/nxp/mcuxpressoide_11.4.0_6237/ide/plugins/com.nxp.mcuxpresso.tools.win32_11.4.0.202103011116/tools/bin/../lib/gcc/arm-none-eabi/10.2.1/thumb/v7e-m+fp/hard\libcr_eabihelpers.a(division_idiv0.o)
                              c:/nxp/mcuxpressoide_11.4.0_6237/ide/plugins/com.nxp.mcuxpresso.tools.win32_11.4.0.202103011116/tools/bin/../lib/gcc/arm-none-eabi/10.2.1/thumb/v7e-m+fp/hard\libcr_eabihelpers.a(division_64.o) (__aeabi_idiv0)
c:/nxp/mcuxpressoide_11.4.0_6237/ide/plugins/com.nxp.mcuxpresso.tools.win32_11.4.0.202103011116/tools/bin/../lib/gcc/arm-none-eabi/10.2.1/thumb/v7e-m+fp/hard\libcr_eabihelpers.a(memcpy.o)
                              c:/nxp/mcuxpressoide_11.4.0_6237/ide/plugins/com.nxp.mcuxpresso.tools.win32_11.4.0.202103011116/tools/bin/../lib/gcc/arm-none-eabi/10.2.1/../../../../arm-none-eabi/lib/thumb/v7e-m+fp/hard\libcr_c.a(memcpy.o) (__aeabi_memcpy)
c:/nxp/mcuxpressoide_11.4.0_6237/ide/plugins/com.nxp.mcuxpresso.tools.win32_11.4.0.202103011116/tools/bin/../lib/gcc/arm-none-eabi/10.2.1/../../../../arm-none-eabi/lib/thumb/v7e-m+fp/hard\libcr_nohost_nf.a(__sys_close.o)
                              c:/nxp/mcuxpressoide_11.4.0_6237/ide/plugins/com.nxp.mcuxpresso.tools.win32_11.4.0.202103011116/tools/bin/../lib/gcc/arm-none-eabi/10.2.1/../../../../arm-none-eabi/lib/thumb/v7e-m+fp/hard\libcr_c.a(fclose.o) (__sys_close)
c:/nxp/mcuxpressoide_11.4.0_6237/ide/plugins/com.nxp.mcuxpresso.tools.win32_11.4.0.202103011116/tools/bin/../lib/gcc/arm-none-eabi/10.2.1/../../../../arm-none-eabi/lib/thumb/v7e-m+fp/hard\libcr_nohost_nf.a(__sys_flen.o)
                              c:/nxp/mcuxpressoide_11.4.0_6237/ide/plugins/com.nxp.mcuxpresso.tools.win32_11.4.0.202103011116/tools/bin/../lib/gcc/arm-none-eabi/10.2.1/../../../../arm-none-eabi/lib/thumb/v7e-m+fp/hard\libcr_c.a(_writebuf.o) (__sys_flen)
c:/nxp/mcuxpressoide_11.4.0_6237/ide/plugins/com.nxp.mcuxpresso.tools.win32_11.4.0.202103011116/tools/bin/../lib/gcc/arm-none-eabi/10.2.1/../../../../arm-none-eabi/lib/thumb/v7e-m+fp/hard\libcr_nohost_nf.a(__sys_istty.o)
                              c:/nxp/mcuxpressoide_11.4.0_6237/ide/plugins/com.nxp.mcuxpresso.tools.win32_11.4.0.202103011116/tools/bin/../lib/gcc/arm-none-eabi/10.2.1/../../../../arm-none-eabi/lib/thumb/v7e-m+fp/hard\libcr_c.a(_deferredlazyseek.o) (__sys_istty)
c:/nxp/mcuxpressoide_11.4.0_6237/ide/plugins/com.nxp.mcuxpresso.tools.win32_11.4.0.202103011116/tools/bin/../lib/gcc/arm-none-eabi/10.2.1/../../../../arm-none-eabi/lib/thumb/v7e-m+fp/hard\libcr_nohost_nf.a(__sys_remove.o)
                              c:/nxp/mcuxpressoide_11.4.0_6237/ide/plugins/com.nxp.mcuxpresso.tools.win32_11.4.0.202103011116/tools/bin/../lib/gcc/arm-none-eabi/10.2.1/../../../../arm-none-eabi/lib/thumb/v7e-m+fp/hard\libcr_c.a(remove.o) (__sys_remove)
c:/nxp/mcuxpressoide_11.4.0_6237/ide/plugins/com.nxp.mcuxpresso.tools.win32_11.4.0.202103011116/tools/bin/../lib/gcc/arm-none-eabi/10.2.1/../../../../arm-none-eabi/lib/thumb/v7e-m+fp/hard\libcr_nohost_nf.a(__sys_rename.o)
                              c:/nxp/mcuxpressoide_11.4.0_6237/ide/plugins/com.nxp.mcuxpresso.tools.win32_11.4.0.202103011116/tools/bin/../lib/gcc/arm-none-eabi/10.2.1/../../../../arm-none-eabi/lib/thumb/v7e-m+fp/hard\libcr_c.a(remove.o) (__sys_rename)
c:/nxp/mcuxpressoide_11.4.0_6237/ide/plugins/com.nxp.mcuxpresso.tools.win32_11.4.0.202103011116/tools/bin/../lib/gcc/arm-none-eabi/10.2.1/../../../../arm-none-eabi/lib/thumb/v7e-m+fp/hard\libcr_nohost_nf.a(__sys_seek.o)
                              c:/nxp/mcuxpressoide_11.4.0_6237/ide/plugins/com.nxp.mcuxpresso.tools.win32_11.4.0.202103011116/tools/bin/../lib/gcc/arm-none-eabi/10.2.1/../../../../arm-none-eabi/lib/thumb/v7e-m+fp/hard\libcr_c.a(_writebuf.o) (__sys_seek)
c:/nxp/mcuxpressoide_11.4.0_6237/ide/plugins/com.nxp.mcuxpresso.tools.win32_11.4.0.202103011116/tools/bin/../lib/gcc/arm-none-eabi/10.2.1/../../../../arm-none-eabi/lib/thumb/v7e-m+fp/hard\libcr_nohost_nf.a(__sys_tmpnam.o)
                              c:/nxp/mcuxpressoide_11.4.0_6237/ide/plugins/com.nxp.mcuxpresso.tools.win32_11.4.0.202103011116/tools/bin/../lib/gcc/arm-none-eabi/10.2.1/../../../../arm-none-eabi/lib/thumb/v7e-m+fp/hard\libcr_c.a(fclose.o) (__sys_tmpnam)
c:/nxp/mcuxpressoide_11.4.0_6237/ide/plugins/com.nxp.mcuxpresso.tools.win32_11.4.0.202103011116/tools/bin/../lib/gcc/arm-none-eabi/10.2.1/../../../../arm-none-eabi/lib/thumb/v7e-m+fp/hard\libcr_nohost_nf.a(__sys_write.o)
                              c:/nxp/mcuxpressoide_11.4.0_6237/ide/plugins/com.nxp.mcuxpresso.tools.win32_11.4.0.202103011116/tools/bin/../lib/gcc/arm-none-eabi/10.2.1/../../../../arm-none-eabi/lib/thumb/v7e-m+fp/hard\libcr_c.a(_writebuf.o) (__sys_write)

Discarded input sections

 .group         0x00000000        0xc ./xip/evkmimxrt1010_flexspi_nor_config.o
 .group         0x00000000        0xc ./xip/evkmimxrt1010_flexspi_nor_config.o
 .group         0x00000000        0xc ./xip/evkmimxrt1010_flexspi_nor_config.o
 .group         0x00000000        0xc ./xip/evkmimxrt1010_flexspi_nor_config.o
 .group         0x00000000        0xc ./xip/evkmimxrt1010_flexspi_nor_config.o
 .group         0x00000000        0xc ./xip/evkmimxrt1010_flexspi_nor_config.o
 .group         0x00000000        0xc ./xip/evkmimxrt1010_flexspi_nor_config.o
 .group         0x00000000        0xc ./xip/evkmimxrt1010_flexspi_nor_config.o
 .group         0x00000000        0xc ./xip/evkmimxrt1010_flexspi_nor_config.o
 .group         0x00000000        0xc ./xip/evkmimxrt1010_flexspi_nor_config.o
 .group         0x00000000        0xc ./xip/evkmimxrt1010_flexspi_nor_config.o
 .group         0x00000000        0xc ./xip/evkmimxrt1010_flexspi_nor_config.o
 .group         0x00000000        0xc ./xip/evkmimxrt1010_flexspi_nor_config.o
 .group         0x00000000        0xc ./xip/evkmimxrt1010_flexspi_nor_config.o
 .group         0x00000000        0xc ./xip/evkmimxrt1010_flexspi_nor_config.o
 .group         0x00000000        0xc ./xip/evkmimxrt1010_flexspi_nor_config.o
 .group         0x00000000        0xc ./xip/evkmimxrt1010_flexspi_nor_config.o
 .group         0x00000000        0xc ./xip/evkmimxrt1010_flexspi_nor_config.o
Memory Configuration

Name             Origin             Length             Attributes
BOARD_FLASH      0x60000000         0x01000000         xr
SRAM_DTC         0x20000000         0x00008000         xrw
SRAM_ITC         0x00000000         0x00008000         xrw
SRAM_OC          0x20200000         0x00008000         xrw
NCACHE_REGION    0x20208000         0x00008000         xrw
*default*        0x00000000         0xffffffff

Linker script and memory map

LOAD ./xip/evkmimxrt1010_flexspi_nor_config.o
LOAD ./xip/fsl_flexspi_nor_boot.o
LOAD ./utilities/fsl_debug_console.o
LOAD ./utilities/fsl_str.o
LOAD ./startup/startup_mimxrt1011.o
LOAD ./source/Fourier.o
LOAD ./source/MIMXRT1011_Project_NoteDetect_Project.o
LOAD ./source/NoteDetectApp.o
LOAD ./source/semihost_hardfault.o
LOAD ./drivers/fsl_clock.o
LOAD ./drivers/fsl_common.o
LOAD ./drivers/fsl_dmamux.o
LOAD ./drivers/fsl_edma.o
LOAD ./drivers/fsl_gpio.o
LOAD ./drivers/fsl_lpi2c.o
LOAD ./drivers/fsl_lpuart.o
LOAD ./drivers/fsl_sai.o
LOAD ./drivers/fsl_sai_edma.o
LOAD ./device/system_MIMXRT1011.o
LOAD ./component/uart/lpuart_adapter.o
LOAD ./component/serial_manager/serial_manager.o
LOAD ./component/serial_manager/serial_port_uart.o
LOAD ./component/lists/generic_list.o
LOAD ./component/i2c/lpi2c_adapter.o
LOAD ./codec/fsl_codec_adapter.o
LOAD ./codec/fsl_codec_common.o
LOAD ./codec/fsl_codec_i2c.o
LOAD ./codec/fsl_wm8960.o
LOAD ./board/board.o
LOAD ./board/clock_config.o
LOAD ./board/peripherals.o
LOAD ./board/pin_mux.o
LOAD ./amazon-freertos/freertos/portable/heap_4.o
LOAD ./amazon-freertos/freertos/portable/port.o
LOAD ./amazon-freertos/freertos/event_groups.o
LOAD ./amazon-freertos/freertos/list.o
LOAD ./amazon-freertos/freertos/queue.o
LOAD ./amazon-freertos/freertos/stream_buffer.o
LOAD ./amazon-freertos/freertos/tasks.o
LOAD ./amazon-freertos/freertos/timers.o
LOAD C:\Users\josel\Documents\MCUXpressoIDE_11.4.0_6237\workspace\MIMXRT1011_Project_NoteDetect_Project\libs\libarm_cortexM7lfsp_math.a
START GROUP
LOAD c:/nxp/mcuxpressoide_11.4.0_6237/ide/plugins/com.nxp.mcuxpresso.tools.win32_11.4.0.202103011116/tools/bin/../lib/gcc/arm-none-eabi/10.2.1/../../../../arm-none-eabi/lib/thumb/v7e-m+fp/hard\libcr_nohost_nf.a
LOAD c:/nxp/mcuxpressoide_11.4.0_6237/ide/plugins/com.nxp.mcuxpresso.tools.win32_11.4.0.202103011116/tools/bin/../lib/gcc/arm-none-eabi/10.2.1/../../../../arm-none-eabi/lib/thumb/v7e-m+fp/hard\libcr_c.a
LOAD c:/nxp/mcuxpressoide_11.4.0_6237/ide/plugins/com.nxp.mcuxpresso.tools.win32_11.4.0.202103011116/tools/bin/../lib/gcc/arm-none-eabi/10.2.1/thumb/v7e-m+fp/hard\libcr_eabihelpers.a
LOAD c:/nxp/mcuxpressoide_11.4.0_6237/ide/plugins/com.nxp.mcuxpresso.tools.win32_11.4.0.202103011116/tools/bin/../lib/gcc/arm-none-eabi/10.2.1/thumb/v7e-m+fp/hard\libgcc.a
END GROUP
                0x60000000                __base_BOARD_FLASH = 0x60000000
                0x60000000                __base_Flash = 0x60000000
                0x61000000                __top_BOARD_FLASH = 0x61000000
                0x61000000                __top_Flash = 0x61000000
                0x20000000                __base_SRAM_DTC = 0x20000000
                0x20000000                __base_RAM = 0x20000000
                0x20008000                __top_SRAM_DTC = 0x20008000
                0x20008000                __top_RAM = 0x20008000
                0x00000000                __base_SRAM_ITC = 0x0
                0x00000000                __base_RAM2 = 0x0
                0x00008000                __top_SRAM_ITC = 0x8000
                0x00008000                __top_RAM2 = 0x8000
                0x20200000                __base_SRAM_OC = 0x20200000
                0x20200000                __base_RAM3 = 0x20200000
                0x20208000                __top_SRAM_OC = 0x20208000
                0x20208000                __top_RAM3 = 0x20208000
                0x20208000                __base_NCACHE_REGION = 0x20208000
                0x20208000                __base_RAM4 = 0x20208000
                0x20210000                __top_NCACHE_REGION = 0x20210000
                0x20210000                __top_RAM4 = 0x20210000

.boot_hdr       0x60000000     0x2000
 FILL mask 0xff
                0x00000400                . = 0x400
 *fill*         0x60000000      0x400 ff
                0x60000400                __boot_hdr_start__ = ABSOLUTE (.)
 *(SORT_BY_ALIGNMENT(.boot_hdr.conf))
 .boot_hdr.conf
                0x60000400      0x200 ./xip/evkmimxrt1010_flexspi_nor_config.o
                0x60000400                qspiflash_config
                0x00001000                . = 0x1000
 *fill*         0x60000600      0xa00 ff
 *(SORT_BY_ALIGNMENT(.boot_hdr.ivt))
 .boot_hdr.ivt  0x60001000       0x20 ./xip/fsl_flexspi_nor_boot.o
                0x60001000                image_vector_table
                0x00001020                . = 0x1020
 *(SORT_BY_ALIGNMENT(.boot_hdr.boot_data))
 .boot_hdr.boot_data
                0x60001020       0x10 ./xip/fsl_flexspi_nor_boot.o
                0x60001020                boot_data
                0x00001030                . = 0x1030
 *(SORT_BY_ALIGNMENT(.boot_hdr.dcd_data))
                0x60001030                __boot_hdr_end__ = ABSOLUTE (.)
                0x00002000                . = 0x2000
 *fill*         0x60001030      0xfd0 ff

.text           0x60002000    0x15f20
 FILL mask 0xff
                0x60002000                __vectors_start__ = ABSOLUTE (.)
 *(SORT_BY_ALIGNMENT(.isr_vector))
 .isr_vector    0x60002000      0x180 ./startup/startup_mimxrt1011.o
                0x60002000                g_pfnVectors
                0x60002000                __Vectors
                0x60002180                . = ALIGN (0x4)
                0x60002180                __section_table_start = .
                0x60002180                __data_section_table = .
                0x60002180        0x4 LONG 0x60017f20 LOADADDR (.data)
                0x60002184        0x4 LONG 0x20000000 ADDR (.data)
                0x60002188        0x4 LONG 0x38 SIZEOF (.data)
                0x6000218c        0x4 LONG 0x60017f20 LOADADDR (.data_RAM2)
                0x60002190        0x4 LONG 0x0 ADDR (.data_RAM2)
                0x60002194        0x4 LONG 0x0 SIZEOF (.data_RAM2)
                0x60002198        0x4 LONG 0x60017f20 LOADADDR (.data_RAM3)
                0x6000219c        0x4 LONG 0x20200000 ADDR (.data_RAM3)
                0x600021a0        0x4 LONG 0x0 SIZEOF (.data_RAM3)
                0x600021a4        0x4 LONG 0x60017f20 LOADADDR (.data_RAM4)
                0x600021a8        0x4 LONG 0x20208000 ADDR (.data_RAM4)
                0x600021ac        0x4 LONG 0x0 SIZEOF (.data_RAM4)
                0x600021b0                __data_section_table_end = .
                0x600021b0                __bss_section_table = .
                0x600021b0        0x4 LONG 0x20000208 ADDR (.bss)
                0x600021b4        0x4 LONG 0x32d0 SIZEOF (.bss)
                0x600021b8        0x4 LONG 0x0 ADDR (.bss_RAM2)
                0x600021bc        0x4 LONG 0x0 SIZEOF (.bss_RAM2)
                0x600021c0        0x4 LONG 0x20200000 ADDR (.bss_RAM3)
                0x600021c4        0x4 LONG 0x0 SIZEOF (.bss_RAM3)
                0x600021c8        0x4 LONG 0x20208000 ADDR (.bss_RAM4)
                0x600021cc        0x4 LONG 0x0 SIZEOF (.bss_RAM4)
                0x600021d0                __bss_section_table_end = .
                0x600021d0                __section_table_end = .
 *(SORT_BY_ALIGNMENT(.after_vectors*))
 .after_vectors.reset
                0x600021d0       0x4c ./startup/startup_mimxrt1011.o
                0x600021d0                ResetISR
 .after_vectors.init_data
                0x6000221c       0x1e ./startup/startup_mimxrt1011.o
                0x6000221c                data_init
 .after_vectors.init_bss
                0x6000223a       0x12 ./startup/startup_mimxrt1011.o
                0x6000223a                bss_init
 .after_vectors
                0x6000224c        0xc ./startup/startup_mimxrt1011.o
                0x6000224c                NMI_Handler
                0x60002256                ADC_ETC_IRQ3_DriverIRQHandler
                0x60002256                CCM_2_DriverIRQHandler
                0x60002256                PIT_DriverIRQHandler
                0x60002256                FLEXRAM_DriverIRQHandler
                0x60002256                SPDIF_DriverIRQHandler
                0x60002256                LPSPI2_DriverIRQHandler
                0x60002256                KPP_DriverIRQHandler
                0x60002256                USB_PHY_DriverIRQHandler
                0x60002256                GPR_IRQ_DriverIRQHandler
                0x60002256                TRNG_DriverIRQHandler
                0x60002256                IntDefaultHandler
                0x60002256                SRC_DriverIRQHandler
                0x60002256                EWM_DriverIRQHandler
                0x60002256                WDOG1_DriverIRQHandler
                0x60002256                FLEXIO1_DriverIRQHandler
                0x60002256                ADC_ETC_IRQ2_DriverIRQHandler
                0x60002256                GPIO1_Combined_16_31_DriverIRQHandler
                0x60002256                DCDC_DriverIRQHandler
                0x60002256                ADC_ETC_ERROR_IRQ_DriverIRQHandler
                0x60002256                GPIO5_Combined_0_15_DriverIRQHandler
                0x60002256                RTWDOG_DriverIRQHandler
                0x60002256                FLEXSPI_DriverIRQHandler
                0x60002256                GPT2_DriverIRQHandler
                0x60002256                PWM1_1_DriverIRQHandler
                0x60002256                Reserved71_DriverIRQHandler
                0x60002256                ADC1_DriverIRQHandler
                0x60002256                PWM1_0_DriverIRQHandler
                0x60002256                DCP_DriverIRQHandler
                0x60002256                CTI0_ERROR_DriverIRQHandler
                0x60002256                GPT1_DriverIRQHandler
                0x60002256                CSU_DriverIRQHandler
                0x60002256                CTI1_ERROR_DriverIRQHandler
                0x60002256                GPIO1_Combined_0_15_DriverIRQHandler
                0x60002256                CORE_DriverIRQHandler
                0x60002256                SNVS_HP_WRAPPER_TZ_DriverIRQHandler
                0x60002256                PWM1_FAULT_DriverIRQHandler
                0x60002256                SNVS_HP_WRAPPER_DriverIRQHandler
                0x60002256                ADC_ETC_IRQ1_DriverIRQHandler
                0x60002256                LPSPI1_DriverIRQHandler
                0x60002256                DCP_VMI_DriverIRQHandler
                0x60002256                GPC_DriverIRQHandler
                0x60002256                GPIO2_Combined_0_15_DriverIRQHandler
                0x60002256                PWM1_2_DriverIRQHandler
                0x60002256                USB_OTG1_DriverIRQHandler
                0x60002256                TEMP_LOW_HIGH_DriverIRQHandler
                0x60002256                WDOG2_DriverIRQHandler
                0x60002256                Reserved68_DriverIRQHandler
                0x60002256                PMU_DriverIRQHandler
                0x60002256                CCM_1_DriverIRQHandler
                0x60002256                TEMP_PANIC_DriverIRQHandler
                0x60002256                PWM1_3_DriverIRQHandler
                0x60002256                Reserved70_DriverIRQHandler
                0x60002256                DMA_ERROR_DriverIRQHandler
                0x60002256                ADC_ETC_IRQ0_DriverIRQHandler
                0x60002256                XBAR1_IRQ_0_1_2_3_DriverIRQHandler
                0x60002256                SNVS_LP_WRAPPER_DriverIRQHandler
 *(SORT_BY_ALIGNMENT(.text*))
 *fill*         0x60002258        0x8 ff
 .text.SVC_Handler
                0x60002260       0x28 ./amazon-freertos/freertos/portable/port.o
                0x60002260                SVC_Handler
 *fill*         0x60002288        0x8 ff
 .text.PendSV_Handler
                0x60002290       0x68 ./amazon-freertos/freertos/portable/port.o
                0x60002290                PendSV_Handler
 .text.DbgConsole_ReadOneCharacter
                0x600022f8       0x34 ./utilities/fsl_debug_console.o
                0x600022f8                DbgConsole_ReadOneCharacter
 .text.DbgConsole_SendDataReliable
                0x6000232c       0x58 ./utilities/fsl_debug_console.o
                0x6000232c                DbgConsole_SendDataReliable
 .text.DbgConsole_ReadCharacter
                0x60002384       0x3c ./utilities/fsl_debug_console.o
                0x60002384                DbgConsole_ReadCharacter
 .text.DbgConsole_Init
                0x600023c0      0x104 ./utilities/fsl_debug_console.o
                0x600023c0                DbgConsole_Init
 .text.DbgConsole_Printf
                0x600024c4       0x7c ./utilities/fsl_debug_console.o
                0x600024c4                DbgConsole_Printf
 .text.CLOCK_SetMux
                0x60002540       0x9c ./source/MIMXRT1011_Project_NoteDetect_Project.o
 .text.CLOCK_SetDiv
                0x600025dc       0x9c ./source/MIMXRT1011_Project_NoteDetect_Project.o
 .text.main     0x60002678       0x94 ./source/MIMXRT1011_Project_NoteDetect_Project.o
                0x60002678                main
 .text.__NVIC_EnableIRQ
                0x6000270c       0x3c ./source/NoteDetectApp.o
 .text.__NVIC_SetPriority
                0x60002748       0x54 ./source/NoteDetectApp.o
 .text.__NVIC_GetPriority
                0x6000279c       0x50 ./source/NoteDetectApp.o
 .text.DMAMUX_EnableChannel
                0x600027ec       0x38 ./source/NoteDetectApp.o
 .text.DMAMUX_SetSource
                0x60002824       0x4c ./source/NoteDetectApp.o
 .text.AppInitTask
                0x60002870      0x188 ./source/NoteDetectApp.o
                0x60002870                AppInitTask
 .text.ConsoleAppTask
                0x600029f8       0xa4 ./source/NoteDetectApp.o
                0x600029f8                ConsoleAppTask
 .text.StartTransferTask
                0x60002a9c       0x90 ./source/NoteDetectApp.o
                0x60002a9c                StartTransferTask
 .text.FindNotes
                0x60002b2c       0x70 ./source/NoteDetectApp.o
                0x60002b2c                FindNotes
 .text.txCallback
                0x60002b9c       0x5c ./source/NoteDetectApp.o
                0x60002b9c                txCallback
 .text.rxCallback
                0x60002bf8       0x74 ./source/NoteDetectApp.o
                0x60002bf8                rxCallback
 .text.CLOCK_GetOscFreq
                0x60002c6c       0x30 ./drivers/fsl_clock.o
 .text.CLOCK_GetPeriphClkFreq
                0x60002c9c       0xc4 ./drivers/fsl_clock.o
 .text.CLOCK_InitExternalClk
                0x60002d60       0x6c ./drivers/fsl_clock.o
                0x60002d60                CLOCK_InitExternalClk
 .text.CLOCK_SwitchOsc
                0x60002dcc       0x34 ./drivers/fsl_clock.o
                0x60002dcc                CLOCK_SwitchOsc
 .text.CLOCK_InitRcOsc24M
                0x60002e00       0x24 ./drivers/fsl_clock.o
                0x60002e00                CLOCK_InitRcOsc24M
 .text.CLOCK_GetCoreFreq
                0x60002e24       0x24 ./drivers/fsl_clock.o
                0x60002e24                CLOCK_GetCoreFreq
 .text.CLOCK_GetIpgFreq
                0x60002e48       0x24 ./drivers/fsl_clock.o
                0x60002e48                CLOCK_GetIpgFreq
 .text.CLOCK_GetPerClkFreq
                0x60002e6c       0x44 ./drivers/fsl_clock.o
                0x60002e6c                CLOCK_GetPerClkFreq
 .text.CLOCK_GetFreq
                0x60002eb0      0x120 ./drivers/fsl_clock.o
                0x60002eb0                CLOCK_GetFreq
 .text.CLOCK_InitSysPll
                0x60002fd0       0x9c ./drivers/fsl_clock.o
                0x60002fd0                CLOCK_InitSysPll
 .text.CLOCK_InitAudioPll
                0x6000306c      0x12c ./drivers/fsl_clock.o
                0x6000306c                CLOCK_InitAudioPll
 .text.CLOCK_DeinitAudioPll
                0x60003198       0x1c ./drivers/fsl_clock.o
                0x60003198                CLOCK_DeinitAudioPll
 .text.CLOCK_InitEnetPll
                0x600031b4       0x7c ./drivers/fsl_clock.o
                0x600031b4                CLOCK_InitEnetPll
 .text.CLOCK_GetPllFreq
                0x60003230      0x200 ./drivers/fsl_clock.o
                0x60003230                CLOCK_GetPllFreq
 .text.CLOCK_InitSysPfd
                0x60003430       0x64 ./drivers/fsl_clock.o
                0x60003430                CLOCK_InitSysPfd
 .text.CLOCK_GetSysPfdFreq
                0x60003494       0xac ./drivers/fsl_clock.o
                0x60003494                CLOCK_GetSysPfdFreq
 .text.CLOCK_GetUsb1PfdFreq
                0x60003540       0xac ./drivers/fsl_clock.o
                0x60003540                CLOCK_GetUsb1PfdFreq
 .text.CLOCK_ControlGate
                0x600035ec       0x64 ./drivers/fsl_dmamux.o
 .text.DMAMUX_GetInstance
                0x60003650       0x44 ./drivers/fsl_dmamux.o
 .text.__NVIC_EnableIRQ
                0x60003694       0x3c ./drivers/fsl_edma.o
 .text.CLOCK_ControlGate
                0x600036d0       0x64 ./drivers/fsl_edma.o
 .text.EDMA_GetInstance
                0x60003734       0x44 ./drivers/fsl_edma.o
 .text.EDMA_InstallTCD
                0x60003778      0x148 ./drivers/fsl_edma.o
                0x60003778                EDMA_InstallTCD
 .text.EDMA_Init
                0x600038c0       0x94 ./drivers/fsl_edma.o
                0x600038c0                EDMA_Init
 .text.EDMA_GetDefaultConfig
                0x60003954       0x44 ./drivers/fsl_edma.o
                0x60003954                EDMA_GetDefaultConfig
 .text.EDMA_SetTransferConfig
                0x60003998       0x60 ./drivers/fsl_edma.o
                0x60003998                EDMA_SetTransferConfig
 .text.EDMA_TcdReset
                0x600039f8       0x78 ./drivers/fsl_edma.o
                0x600039f8                EDMA_TcdReset
 .text.EDMA_TcdSetTransferConfig
                0x60003a70       0xe8 ./drivers/fsl_edma.o
                0x60003a70                EDMA_TcdSetTransferConfig
 .text.Get_StartInstance
                0x60003b58       0x24 ./drivers/fsl_edma.o
 .text.EDMA_CreateHandle
                0x60003b7c       0xe4 ./drivers/fsl_edma.o
                0x60003b7c                EDMA_CreateHandle
 .text.EDMA_InstallTCDMemory
                0x60003c60       0x60 ./drivers/fsl_edma.o
                0x60003c60                EDMA_InstallTCDMemory
 .text.EDMA_SetCallback
                0x60003cc0       0x30 ./drivers/fsl_edma.o
                0x60003cc0                EDMA_SetCallback
 .text.EDMA_PrepareTransfer
                0x60003cf0      0x2d4 ./drivers/fsl_edma.o
                0x60003cf0                EDMA_PrepareTransfer
 .text.EDMA_SubmitTransfer
                0x60003fc4      0x2cc ./drivers/fsl_edma.o
                0x60003fc4                EDMA_SubmitTransfer
 .text.EDMA_StartTransfer
                0x60004290       0xb0 ./drivers/fsl_edma.o
                0x60004290                EDMA_StartTransfer
 .text.EDMA_HandleIRQ
                0x60004340      0x160 ./drivers/fsl_edma.o
                0x60004340                EDMA_HandleIRQ
 .text.DMA0_DriverIRQHandler
                0x600044a0       0x18 ./drivers/fsl_edma.o
                0x600044a0                DMA0_DriverIRQHandler
 .text.DMA1_DriverIRQHandler
                0x600044b8       0x18 ./drivers/fsl_edma.o
                0x600044b8                DMA1_DriverIRQHandler
 .text.DMA2_DriverIRQHandler
                0x600044d0       0x18 ./drivers/fsl_edma.o
                0x600044d0                DMA2_DriverIRQHandler
 .text.DMA3_DriverIRQHandler
                0x600044e8       0x18 ./drivers/fsl_edma.o
                0x600044e8                DMA3_DriverIRQHandler
 .text.DMA4_DriverIRQHandler
                0x60004500       0x18 ./drivers/fsl_edma.o
                0x60004500                DMA4_DriverIRQHandler
 .text.DMA5_DriverIRQHandler
                0x60004518       0x18 ./drivers/fsl_edma.o
                0x60004518                DMA5_DriverIRQHandler
 .text.DMA6_DriverIRQHandler
                0x60004530       0x18 ./drivers/fsl_edma.o
                0x60004530                DMA6_DriverIRQHandler
 .text.DMA7_DriverIRQHandler
                0x60004548       0x18 ./drivers/fsl_edma.o
                0x60004548                DMA7_DriverIRQHandler
 .text.DMA8_DriverIRQHandler
                0x60004560       0x18 ./drivers/fsl_edma.o
                0x60004560                DMA8_DriverIRQHandler
 .text.DMA9_DriverIRQHandler
                0x60004578       0x18 ./drivers/fsl_edma.o
                0x60004578                DMA9_DriverIRQHandler
 .text.DMA10_DriverIRQHandler
                0x60004590       0x18 ./drivers/fsl_edma.o
                0x60004590                DMA10_DriverIRQHandler
 .text.DMA11_DriverIRQHandler
                0x600045a8       0x18 ./drivers/fsl_edma.o
                0x600045a8                DMA11_DriverIRQHandler
 .text.DMA12_DriverIRQHandler
                0x600045c0       0x18 ./drivers/fsl_edma.o
                0x600045c0                DMA12_DriverIRQHandler
 .text.DMA13_DriverIRQHandler
                0x600045d8       0x18 ./drivers/fsl_edma.o
                0x600045d8                DMA13_DriverIRQHandler
 .text.DMA14_DriverIRQHandler
                0x600045f0       0x18 ./drivers/fsl_edma.o
                0x600045f0                DMA14_DriverIRQHandler
 .text.DMA15_DriverIRQHandler
                0x60004608       0x18 ./drivers/fsl_edma.o
                0x60004608                DMA15_DriverIRQHandler
 .text.CLOCK_ControlGate
                0x60004620       0x64 ./drivers/fsl_lpi2c.o
 .text.LPI2C_GetInstance
                0x60004684       0x44 ./drivers/fsl_lpi2c.o
                0x60004684                LPI2C_GetInstance
 .text.LPI2C_GetCyclesForWidth
                0x600046c8       0x9c ./drivers/fsl_lpi2c.o
 .text.LPI2C_MasterGetDefaultConfig
                0x60004764       0x6c ./drivers/fsl_lpi2c.o
                0x60004764                LPI2C_MasterGetDefaultConfig
 .text.LPI2C_MasterInit
                0x600047d0      0x1cc ./drivers/fsl_lpi2c.o
                0x600047d0                LPI2C_MasterInit
 .text.LPI2C_MasterSetBaudRate
                0x6000499c      0x17c ./drivers/fsl_lpi2c.o
                0x6000499c                LPI2C_MasterSetBaudRate
 .text.LPI2C_MasterReceive
                0x60004b18       0x98 ./drivers/fsl_lpi2c.o
                0x60004b18                LPI2C_MasterReceive
 .text.LPI2C_MasterSend
                0x60004bb0       0x54 ./drivers/fsl_lpi2c.o
                0x60004bb0                LPI2C_MasterSend
 .text.LPI2C_MasterTransferBlocking
                0x60004c04      0x1c4 ./drivers/fsl_lpi2c.o
                0x60004c04                LPI2C_MasterTransferBlocking
 .text.LPI2C_CommonIRQHandler
                0x60004dc8       0x70 ./drivers/fsl_lpi2c.o
 .text.LPI2C1_DriverIRQHandler
                0x60004e38       0x14 ./drivers/fsl_lpi2c.o
                0x60004e38                LPI2C1_DriverIRQHandler
 .text.LPI2C2_DriverIRQHandler
                0x60004e4c       0x14 ./drivers/fsl_lpi2c.o
                0x60004e4c                LPI2C2_DriverIRQHandler
 .text.CLOCK_ControlGate
                0x60004e60       0x64 ./drivers/fsl_lpuart.o
 .text.LPUART_GetInstance
                0x60004ec4       0x4c ./drivers/fsl_lpuart.o
                0x60004ec4                LPUART_GetInstance
 .text.LPUART_Init
                0x60004f10      0x338 ./drivers/fsl_lpuart.o
                0x60004f10                LPUART_Init
 .text.LPUART_GetDefaultConfig
                0x60005248       0x88 ./drivers/fsl_lpuart.o
                0x60005248                LPUART_GetDefaultConfig
 .text.LPUART_ClearStatusFlags
                0x600052d0       0xa4 ./drivers/fsl_lpuart.o
                0x600052d0                LPUART_ClearStatusFlags
 .text.LPUART_WriteBlocking
                0x60005374       0x68 ./drivers/fsl_lpuart.o
                0x60005374                LPUART_WriteBlocking
 .text.LPUART_ReadBlocking
                0x600053dc      0x164 ./drivers/fsl_lpuart.o
                0x600053dc                LPUART_ReadBlocking
 .text.LPUART1_DriverIRQHandler
                0x60005540       0x24 ./drivers/fsl_lpuart.o
                0x60005540                LPUART1_DriverIRQHandler
 .text.LPUART2_DriverIRQHandler
                0x60005564       0x24 ./drivers/fsl_lpuart.o
                0x60005564                LPUART2_DriverIRQHandler
 .text.LPUART3_DriverIRQHandler
                0x60005588       0x24 ./drivers/fsl_lpuart.o
                0x60005588                LPUART3_DriverIRQHandler
 .text.LPUART4_DriverIRQHandler
                0x600055ac       0x24 ./drivers/fsl_lpuart.o
                0x600055ac                LPUART4_DriverIRQHandler
 .text.CLOCK_ControlGate
                0x600055d0       0x64 ./drivers/fsl_sai.o
 .text.SAI_GetInstance
                0x60005634       0x4c ./drivers/fsl_sai.o
 .text.SAI_GetCommonConfig
                0x60005680       0xc0 ./drivers/fsl_sai.o
 .text.SAI_Init
                0x60005740       0x28 ./drivers/fsl_sai.o
                0x60005740                SAI_Init
 .text.SAI_TxEnable
                0x60005768       0x78 ./drivers/fsl_sai.o
                0x60005768                SAI_TxEnable
 .text.SAI_RxEnable
                0x600057e0       0x7c ./drivers/fsl_sai.o
                0x600057e0                SAI_RxEnable
 .text.SAI_TxSetBitClockRate
                0x6000585c       0x88 ./drivers/fsl_sai.o
                0x6000585c                SAI_TxSetBitClockRate
 .text.SAI_RxSetBitClockRate
                0x600058e4       0x8c ./drivers/fsl_sai.o
                0x600058e4                SAI_RxSetBitClockRate
 .text.SAI_TxSetBitclockConfig
                0x60005970       0x88 ./drivers/fsl_sai.o
                0x60005970                SAI_TxSetBitclockConfig
 .text.SAI_RxSetBitclockConfig
                0x600059f8       0x8c ./drivers/fsl_sai.o
                0x600059f8                SAI_RxSetBitclockConfig
 .text.SAI_TxSetFifoConfig
                0x60005a84       0x90 ./drivers/fsl_sai.o
                0x60005a84                SAI_TxSetFifoConfig
 .text.SAI_RxSetFifoConfig
                0x60005b14       0x90 ./drivers/fsl_sai.o
                0x60005b14                SAI_RxSetFifoConfig
 .text.SAI_TxSetFrameSyncConfig
                0x60005ba4       0x98 ./drivers/fsl_sai.o
                0x60005ba4                SAI_TxSetFrameSyncConfig
 .text.SAI_RxSetFrameSyncConfig
                0x60005c3c       0x9c ./drivers/fsl_sai.o
                0x60005c3c                SAI_RxSetFrameSyncConfig
 .text.SAI_TxSetSerialDataConfig
                0x60005cd8       0xb4 ./drivers/fsl_sai.o
                0x60005cd8                SAI_TxSetSerialDataConfig
 .text.SAI_RxSetSerialDataConfig
                0x60005d8c       0x94 ./drivers/fsl_sai.o
                0x60005d8c                SAI_RxSetSerialDataConfig
 .text.SAI_TxSetConfig
                0x60005e20      0x1c0 ./drivers/fsl_sai.o
                0x60005e20                SAI_TxSetConfig
 .text.SAI_RxSetConfig
                0x60005fe0      0x1d0 ./drivers/fsl_sai.o
                0x60005fe0                SAI_RxSetConfig
 .text.SAI1_DriverIRQHandler
                0x600061b0       0xac ./drivers/fsl_sai.o
                0x600061b0                SAI1_DriverIRQHandler
 .text.SAI3_TX_DriverIRQHandler
                0x6000625c       0x34 ./drivers/fsl_sai.o
                0x6000625c                SAI3_TX_DriverIRQHandler
 .text.SAI3_RX_DriverIRQHandler
                0x60006290       0x34 ./drivers/fsl_sai.o
                0x60006290                SAI3_RX_DriverIRQHandler
 .text.SAI_GetInstance
                0x600062c4       0x4c ./drivers/fsl_sai_edma.o
 .text.SAI_TransferTxCreateHandleEDMA
                0x60006310       0xa0 ./drivers/fsl_sai_edma.o
                0x60006310                SAI_TransferTxCreateHandleEDMA
 .text.SAI_TransferRxCreateHandleEDMA
                0x600063b0       0xa4 ./drivers/fsl_sai_edma.o
                0x600063b0                SAI_TransferRxCreateHandleEDMA
 .text.SAI_TransferTxSetConfigEDMA
                0x60006454       0x70 ./drivers/fsl_sai_edma.o
                0x60006454                SAI_TransferTxSetConfigEDMA
 .text.SAI_TransferRxSetConfigEDMA
                0x600064c4       0x70 ./drivers/fsl_sai_edma.o
                0x600064c4                SAI_TransferRxSetConfigEDMA
 .text.SAI_TransferReceiveEDMA
                0x60006534      0x188 ./drivers/fsl_sai_edma.o
                0x60006534                SAI_TransferReceiveEDMA
 .text.SAI_TransferAbortSendEDMA
                0x600066bc       0xa4 ./drivers/fsl_sai_edma.o
                0x600066bc                SAI_TransferAbortSendEDMA
 .text.SAI_TransferTerminateSendEDMA
                0x60006760       0x64 ./drivers/fsl_sai_edma.o
                0x60006760                SAI_TransferTerminateSendEDMA
 .text.SystemInit
                0x600067c4      0x1b8 ./device/system_MIMXRT1011.o
                0x600067c4                SystemInit
 .text.HAL_UartInit
                0x6000697c      0x100 ./component/uart/lpuart_adapter.o
                0x6000697c                HAL_UartInit
 .text.HAL_UartReceiveBlocking
                0x60006a7c       0x6c ./component/uart/lpuart_adapter.o
                0x60006a7c                HAL_UartReceiveBlocking
 .text.HAL_UartSendBlocking
                0x60006ae8       0x64 ./component/uart/lpuart_adapter.o
                0x60006ae8                HAL_UartSendBlocking
 .text.SerialManager_Write
                0x60006b4c       0x6c ./component/serial_manager/serial_manager.o
 .text.SerialManager_Read
                0x60006bb8       0x6c ./component/serial_manager/serial_manager.o
 .text.SerialManager_Init
                0x60006c24       0x74 ./component/serial_manager/serial_manager.o
                0x60006c24                SerialManager_Init
 .text.SerialManager_OpenWriteHandle
                0x60006c98       0x64 ./component/serial_manager/serial_manager.o
                0x60006c98                SerialManager_OpenWriteHandle
 .text.SerialManager_OpenReadHandle
                0x60006cfc       0x74 ./component/serial_manager/serial_manager.o
                0x60006cfc                SerialManager_OpenReadHandle
 .text.Serial_UartInit
                0x60006d70       0x80 ./component/serial_manager/serial_port_uart.o
                0x60006d70                Serial_UartInit
 .text.Serial_UartWrite
                0x60006df0       0x58 ./component/serial_manager/serial_port_uart.o
                0x60006df0                Serial_UartWrite
 .text.Serial_UartRead
                0x60006e48       0x58 ./component/serial_manager/serial_port_uart.o
                0x60006e48                Serial_UartRead
 .text.HAL_I2cGetStatus
                0x60006ea0       0xa4 ./component/i2c/lpi2c_adapter.o
                0x60006ea0                HAL_I2cGetStatus
 .text.HAL_I2cMasterInit
                0x60006f44       0x78 ./component/i2c/lpi2c_adapter.o
                0x60006f44                HAL_I2cMasterInit
 .text.HAL_I2cMasterTransferBlocking
                0x60006fbc       0x94 ./component/i2c/lpi2c_adapter.o
                0x60006fbc                HAL_I2cMasterTransferBlocking
 .text.HAL_CODEC_Init
                0x60007050       0x4c ./codec/fsl_codec_adapter.o
                0x60007050                HAL_CODEC_Init
 .text.CODEC_Init
                0x6000709c       0x38 ./codec/fsl_codec_common.o
                0x6000709c                CODEC_Init
 .text.WM8960_Init
                0x600070d4      0x178 ./codec/fsl_wm8960.o
                0x600070d4                WM8960_Init
 .text.WM8960_SetModule
                0x6000724c      0x198 ./codec/fsl_wm8960.o
                0x6000724c                WM8960_SetModule
 .text.WM8960_SetDataRoute
                0x600073e4      0x114 ./codec/fsl_wm8960.o
                0x600073e4                WM8960_SetDataRoute
 .text.WM8960_SetLeftInput
                0x600074f8      0x1a0 ./codec/fsl_wm8960.o
                0x600074f8                WM8960_SetLeftInput
 .text.WM8960_SetRightInput
                0x60007698      0x1a0 ./codec/fsl_wm8960.o
                0x60007698                WM8960_SetRightInput
 .text.WM8960_ConfigDataFormat
                0x60007838      0x108 ./codec/fsl_wm8960.o
                0x60007838                WM8960_ConfigDataFormat
 .text.WM8960_WriteReg
                0x60007940       0x60 ./codec/fsl_wm8960.o
                0x60007940                WM8960_WriteReg
 .text.WM8960_ReadReg
                0x600079a0       0x34 ./codec/fsl_wm8960.o
                0x600079a0                WM8960_ReadReg
 .text.ARM_MPU_Enable
                0x600079d4       0x40 ./board/board.o
 .text.ARM_MPU_Disable
                0x60007a14       0x34 ./board/board.o
 .text.CLOCK_GetMux
                0x60007a48       0x44 ./board/board.o
 .text.CLOCK_GetDiv
                0x60007a8c       0x44 ./board/board.o
 .text.CLOCK_GetOscFreq
                0x60007ad0       0x30 ./board/board.o
 .text.BOARD_DebugConsoleSrcFreq
                0x60007b00       0x64 ./board/board.o
                0x60007b00                BOARD_DebugConsoleSrcFreq
 .text.BOARD_ConfigMPU
                0x60007b64      0x2c0 ./board/board.o
                0x60007b64                BOARD_ConfigMPU
 .text.SystemInitHook
                0x60007e24       0x20 ./board/board.o
                0x60007e24                SystemInitHook
 .text.CLOCK_SetMux
                0x60007e44       0x9c ./board/clock_config.o
 .text.CLOCK_SetDiv
                0x60007ee0       0x9c ./board/clock_config.o
 .text.CLOCK_ControlGate
                0x60007f7c       0x64 ./board/clock_config.o
 .text.CLOCK_SetXtalFreq
                0x60007fe0       0x20 ./board/clock_config.o
 .text.CLOCK_SetRtcXtalFreq
                0x60008000       0x20 ./board/clock_config.o
 .text.IOMUXC_MQSConfig
                0x60008020       0x44 ./board/clock_config.o
 .text.BOARD_BootClockRUN
                0x60008064      0x3b0 ./board/clock_config.o
                0x60008064                BOARD_BootClockRUN
 .text.CLOCK_ControlGate
                0x60008414       0x64 ./board/pin_mux.o
 .text.BOARD_InitPins
                0x60008478      0x17c ./board/pin_mux.o
                0x60008478                BOARD_InitPins
 .text.pvPortMalloc
                0x600085f4      0x188 ./amazon-freertos/freertos/portable/heap_4.o
                0x600085f4                pvPortMalloc
 .text.vPortFree
                0x6000877c       0xb4 ./amazon-freertos/freertos/portable/heap_4.o
                0x6000877c                vPortFree
 .text.prvHeapInit
                0x60008830       0xc4 ./amazon-freertos/freertos/portable/heap_4.o
 .text.prvInsertBlockIntoFreeList
                0x600088f4       0xb4 ./amazon-freertos/freertos/portable/heap_4.o
 .text.pxPortInitialiseStack
                0x600089a8       0x68 ./amazon-freertos/freertos/portable/port.o
                0x600089a8                pxPortInitialiseStack
 .text.prvTaskExitError
                0x60008a10       0x58 ./amazon-freertos/freertos/portable/port.o
 .text.prvPortStartFirstTask
                0x60008a68       0x28 ./amazon-freertos/freertos/portable/port.o
 .text.xPortStartScheduler
                0x60008a90      0x144 ./amazon-freertos/freertos/portable/port.o
                0x60008a90                xPortStartScheduler
 .text.vPortEnterCritical
                0x60008bd4       0x60 ./amazon-freertos/freertos/portable/port.o
                0x60008bd4                vPortEnterCritical
 .text.vPortExitCritical
                0x60008c34       0x54 ./amazon-freertos/freertos/portable/port.o
                0x60008c34                vPortExitCritical
 .text.SysTick_Handler
                0x60008c88       0x44 ./amazon-freertos/freertos/portable/port.o
                0x60008c88                SysTick_Handler
 .text.vPortSetupTimerInterrupt
                0x60008ccc       0x48 ./amazon-freertos/freertos/portable/port.o
                0x60008ccc                vPortSetupTimerInterrupt
 .text.vPortEnableVFP
                0x60008d14       0x14 ./amazon-freertos/freertos/portable/port.o
 .text.vPortValidateInterruptPriority
                0x60008d28       0x80 ./amazon-freertos/freertos/portable/port.o
                0x60008d28                vPortValidateInterruptPriority
 .text.xEventGroupWaitBits
                0x60008da8      0x19c ./amazon-freertos/freertos/event_groups.o
                0x60008da8                xEventGroupWaitBits
 .text.xEventGroupSetBitsFromISR
                0x60008f44       0x28 ./amazon-freertos/freertos/event_groups.o
                0x60008f44                xEventGroupSetBitsFromISR
 .text.xQueueGenericReset
                0x60008f6c       0xd0 ./amazon-freertos/freertos/queue.o
                0x60008f6c                xQueueGenericReset
 .text.xQueueGenericSend
                0x6000903c      0x1fc ./amazon-freertos/freertos/queue.o
                0x6000903c                xQueueGenericSend
 .text.xQueueReceive
                0x60009238      0x1c0 ./amazon-freertos/freertos/queue.o
                0x60009238                xQueueReceive
 .text.vQueueAddToRegistry
                0x600093f8       0x54 ./amazon-freertos/freertos/queue.o
                0x600093f8                vQueueAddToRegistry
 .text.prvAddNewTaskToReadyList
                0x6000944c       0xdc ./amazon-freertos/freertos/tasks.o
 .text.vTaskDelete
                0x60009528      0x120 ./amazon-freertos/freertos/tasks.o
                0x60009528                vTaskDelete
 .text.vTaskStartScheduler
                0x60009648       0x9c ./amazon-freertos/freertos/tasks.o
                0x60009648                vTaskStartScheduler
 .text.vTaskSuspendAll
                0x600096e4       0x1c ./amazon-freertos/freertos/tasks.o
                0x600096e4                vTaskSuspendAll
 .text.xTaskResumeAll
                0x60009700      0x138 ./amazon-freertos/freertos/tasks.o
                0x60009700                xTaskResumeAll
 .text.xTaskGetTickCount
                0x60009838       0x20 ./amazon-freertos/freertos/tasks.o
                0x60009838                xTaskGetTickCount
 .text.xTaskIncrementTick
                0x60009858      0x150 ./amazon-freertos/freertos/tasks.o
                0x60009858                xTaskIncrementTick
 .text.vTaskSwitchContext
                0x600099a8       0xb8 ./amazon-freertos/freertos/tasks.o
                0x600099a8                vTaskSwitchContext
 .text.vTaskPlaceOnEventList
                0x60009a60       0x48 ./amazon-freertos/freertos/tasks.o
                0x60009a60                vTaskPlaceOnEventList
 .text.vTaskPlaceOnUnorderedEventList
                0x60009aa8       0x78 ./amazon-freertos/freertos/tasks.o
                0x60009aa8                vTaskPlaceOnUnorderedEventList
 .text.vTaskPlaceOnEventListRestricted
                0x60009b20       0x58 ./amazon-freertos/freertos/tasks.o
                0x60009b20                vTaskPlaceOnEventListRestricted
 .text.xTaskRemoveFromEventList
                0x60009b78       0xc4 ./amazon-freertos/freertos/tasks.o
                0x60009b78                xTaskRemoveFromEventList
 .text.vTaskRemoveFromUnorderedEventList
                0x60009c3c       0xc4 ./amazon-freertos/freertos/tasks.o
                0x60009c3c                vTaskRemoveFromUnorderedEventList
 .text.vTaskInternalSetTimeOutState
                0x60009d00       0x2c ./amazon-freertos/freertos/tasks.o
                0x60009d00                vTaskInternalSetTimeOutState
 .text.xTaskCheckForTimeOut
                0x60009d2c       0xc4 ./amazon-freertos/freertos/tasks.o
                0x60009d2c                xTaskCheckForTimeOut
 .text.vTaskMissedYield
                0x60009df0       0x18 ./amazon-freertos/freertos/tasks.o
                0x60009df0                vTaskMissedYield
 .text.prvIdleTask
                0x60009e08       0x30 ./amazon-freertos/freertos/tasks.o
 .text.prvInitialiseTaskLists
                0x60009e38       0x80 ./amazon-freertos/freertos/tasks.o
 .text.prvCheckTasksWaitingTermination
                0x60009eb8       0x5c ./amazon-freertos/freertos/tasks.o
 .text.prvResetNextTaskUnblockTime
                0x60009f14       0x40 ./amazon-freertos/freertos/tasks.o
 .text.xTaskGetSchedulerState
                0x60009f54       0x3c ./amazon-freertos/freertos/tasks.o
                0x60009f54                xTaskGetSchedulerState
 .text.xTaskPriorityDisinherit
                0x60009f90      0x10c ./amazon-freertos/freertos/tasks.o
                0x60009f90                xTaskPriorityDisinherit
 .text.uxTaskResetEventItemValue
                0x6000a09c       0x30 ./amazon-freertos/freertos/tasks.o
                0x6000a09c                uxTaskResetEventItemValue
 .text.prvAddCurrentTaskToDelayedList
                0x6000a0cc       0xcc ./amazon-freertos/freertos/tasks.o
 .text.xTimerCreateTimerTask
                0x6000a198       0x64 ./amazon-freertos/freertos/timers.o
                0x6000a198                xTimerCreateTimerTask
 .text.xTimerGenericCommand
                0x6000a1fc       0x9c ./amazon-freertos/freertos/timers.o
                0x6000a1fc                xTimerGenericCommand
 .text.prvProcessExpiredTimer
                0x6000a298       0x98 ./amazon-freertos/freertos/timers.o
 .text.prvProcessTimerOrBlockTask
                0x6000a330       0x9c ./amazon-freertos/freertos/timers.o
 .text.prvGetNextExpireTime
                0x6000a3cc       0x48 ./amazon-freertos/freertos/timers.o
 .text.prvSampleTimeNow
                0x6000a414       0x40 ./amazon-freertos/freertos/timers.o
 .text.prvInsertTimerInActiveList
                0x6000a454       0x84 ./amazon-freertos/freertos/timers.o
 .text.prvProcessReceivedCommands
                0x6000a4d8      0x1c4 ./amazon-freertos/freertos/timers.o
 .text.prvSwitchTimerLists
                0x6000a69c       0xc8 ./amazon-freertos/freertos/timers.o
 .text.prvCheckForValidListAndQueue
                0x6000a764       0x6c ./amazon-freertos/freertos/timers.o
 .text.xTimerPendFunctionCallFromISR
                0x6000a7d0       0x40 ./amazon-freertos/freertos/timers.o
                0x6000a7d0                xTimerPendFunctionCallFromISR
 .text.arm_max_f32
                0x6000a810       0xd0 C:\Users\josel\Documents\MCUXpressoIDE_11.4.0_6237\workspace\MIMXRT1011_Project_NoteDetect_Project\libs\libarm_cortexM7lfsp_math.a(arm_max_f32.o)
                0x6000a810                arm_max_f32
 .text.arm_cfft_radix2_init_f32
                0x6000a8e0      0x130 C:\Users\josel\Documents\MCUXpressoIDE_11.4.0_6237\workspace\MIMXRT1011_Project_NoteDetect_Project\libs\libarm_cortexM7lfsp_math.a(arm_cfft_radix2_init_f32.o)
                0x6000a8e0                arm_cfft_radix2_init_f32
 .text.arm_radix2_butterfly_f32
                0x6000aa10      0x170 C:\Users\josel\Documents\MCUXpressoIDE_11.4.0_6237\workspace\MIMXRT1011_Project_NoteDetect_Project\libs\libarm_cortexM7lfsp_math.a(arm_cfft_radix2_f32.o)
                0x6000aa10                arm_radix2_butterfly_f32
 .text.arm_radix2_butterfly_inverse_f32
                0x6000ab80      0x180 C:\Users\josel\Documents\MCUXpressoIDE_11.4.0_6237\workspace\MIMXRT1011_Project_NoteDetect_Project\libs\libarm_cortexM7lfsp_math.a(arm_cfft_radix2_f32.o)
                0x6000ab80                arm_radix2_butterfly_inverse_f32
 .text.arm_cfft_radix2_f32
                0x6000ad00       0x40 C:\Users\josel\Documents\MCUXpressoIDE_11.4.0_6237\workspace\MIMXRT1011_Project_NoteDetect_Project\libs\libarm_cortexM7lfsp_math.a(arm_cfft_radix2_f32.o)
                0x6000ad00                arm_cfft_radix2_f32
 .text.arm_bitreversal_f32
                0x6000ad40       0xe0 C:\Users\josel\Documents\MCUXpressoIDE_11.4.0_6237\workspace\MIMXRT1011_Project_NoteDetect_Project\libs\libarm_cortexM7lfsp_math.a(arm_bitreversal.o)
                0x6000ad40                arm_bitreversal_f32
 .text.arm_cmplx_mag_f32
                0x6000ae20      0x248 C:\Users\josel\Documents\MCUXpressoIDE_11.4.0_6237\workspace\MIMXRT1011_Project_NoteDetect_Project\libs\libarm_cortexM7lfsp_math.a(arm_cmplx_mag_f32.o)
                0x6000ae20                arm_cmplx_mag_f32
 .text.__assertion_failed
                0x6000b068       0x4c c:/nxp/mcuxpressoide_11.4.0_6237/ide/plugins/com.nxp.mcuxpresso.tools.win32_11.4.0.202103011116/tools/bin/../lib/gcc/arm-none-eabi/10.2.1/../../../../arm-none-eabi/lib/thumb/v7e-m+fp/hard\libcr_nohost_nf.a(_cr_assert.o)
                0x6000b068                __assertion_failed
 .text._Cwritebuf
                0x6000b0b4       0x6c c:/nxp/mcuxpressoide_11.4.0_6237/ide/plugins/com.nxp.mcuxpresso.tools.win32_11.4.0.202103011116/tools/bin/../lib/gcc/arm-none-eabi/10.2.1/../../../../arm-none-eabi/lib/thumb/v7e-m+fp/hard\libcr_c.a(_writebuf.o)
                0x6000b0b4                _Cwritebuf
 .text.malloc   0x6000b120       0xc8 c:/nxp/mcuxpressoide_11.4.0_6237/ide/plugins/com.nxp.mcuxpresso.tools.win32_11.4.0.202103011116/tools/bin/../lib/gcc/arm-none-eabi/10.2.1/../../../../arm-none-eabi/lib/thumb/v7e-m+fp/hard\libcr_c.a(alloc.o)
                0x6000b120                malloc
 .text._Csys_alloc
                0x6000b1e8       0x20 c:/nxp/mcuxpressoide_11.4.0_6237/ide/plugins/com.nxp.mcuxpresso.tools.win32_11.4.0.202103011116/tools/bin/../lib/gcc/arm-none-eabi/10.2.1/../../../../arm-none-eabi/lib/thumb/v7e-m+fp/hard\libcr_c.a(alloc.o)
                0x6000b1e8                _Csys_alloc
 .text.fseek    0x6000b208      0x100 c:/nxp/mcuxpressoide_11.4.0_6237/ide/plugins/com.nxp.mcuxpresso.tools.win32_11.4.0.202103011116/tools/bin/../lib/gcc/arm-none-eabi/10.2.1/../../../../arm-none-eabi/lib/thumb/v7e-m+fp/hard\libcr_c.a(fseek.o)
                0x6000b208                fseek
 .text.ftell    0x6000b308       0x44 c:/nxp/mcuxpressoide_11.4.0_6237/ide/plugins/com.nxp.mcuxpresso.tools.win32_11.4.0.202103011116/tools/bin/../lib/gcc/arm-none-eabi/10.2.1/../../../../arm-none-eabi/lib/thumb/v7e-m+fp/hard\libcr_c.a(ftell.o)
                0x6000b308                ftell
 .text._initio  0x6000b34c       0x78 c:/nxp/mcuxpressoide_11.4.0_6237/ide/plugins/com.nxp.mcuxpresso.tools.win32_11.4.0.202103011116/tools/bin/../lib/gcc/arm-none-eabi/10.2.1/../../../../arm-none-eabi/lib/thumb/v7e-m+fp/hard\libcr_c.a(initio.o)
                0x6000b34c                _initio
 .text._sbrk    0x6000b3c4       0x3c c:/nxp/mcuxpressoide_11.4.0_6237/ide/plugins/com.nxp.mcuxpresso.tools.win32_11.4.0.202103011116/tools/bin/../lib/gcc/arm-none-eabi/10.2.1/../../../../arm-none-eabi/lib/thumb/v7e-m+fp/hard\libcr_c.a(_cr_sbrk.o)
                0x6000b3c4                _sbrk
 .text.fflush   0x6000b400       0x3c c:/nxp/mcuxpressoide_11.4.0_6237/ide/plugins/com.nxp.mcuxpresso.tools.win32_11.4.0.202103011116/tools/bin/../lib/gcc/arm-none-eabi/10.2.1/../../../../arm-none-eabi/lib/thumb/v7e-m+fp/hard\libcr_c.a(fflush.o)
                0x6000b400                fflush
 .text.__check_heap_overflow
                0x6000b43c       0x18 c:/nxp/mcuxpressoide_11.4.0_6237/ide/plugins/com.nxp.mcuxpresso.tools.win32_11.4.0.202103011116/tools/bin/../lib/gcc/arm-none-eabi/10.2.1/../../../../arm-none-eabi/lib/thumb/v7e-m+fp/hard\libcr_c.a(_cr_check_heap.o)
                0x6000b43c                __check_heap_overflow
 .text.DbgConsole_PrintCallback
                0x6000b454       0x66 ./utilities/fsl_debug_console.o
 .text.DbgConsole_Putchar
                0x6000b4ba       0x1c ./utilities/fsl_debug_console.o
                0x6000b4ba                DbgConsole_Putchar
 .text.DbgConsole_Getchar
                0x6000b4d6       0x1c ./utilities/fsl_debug_console.o
                0x6000b4d6                DbgConsole_Getchar
 .text.ConvertRadixNumToString
                0x6000b4f2      0x114 ./utilities/fsl_str.o
 .text.StrFormatPrintf
                0x6000b606      0x30c ./utilities/fsl_str.o
                0x6000b606                StrFormatPrintf
 .text.DMA0_IRQHandler
                0x6000b912        0x8 ./startup/startup_mimxrt1011.o
                0x6000b912                DMA0_IRQHandler
 .text.DMA1_IRQHandler
                0x6000b91a        0x8 ./startup/startup_mimxrt1011.o
                0x6000b91a                DMA1_IRQHandler
 .text.DMA2_IRQHandler
                0x6000b922        0x8 ./startup/startup_mimxrt1011.o
                0x6000b922                DMA2_IRQHandler
 .text.DMA3_IRQHandler
                0x6000b92a        0x8 ./startup/startup_mimxrt1011.o
                0x6000b92a                DMA3_IRQHandler
 .text.DMA4_IRQHandler
                0x6000b932        0x8 ./startup/startup_mimxrt1011.o
                0x6000b932                DMA4_IRQHandler
 .text.DMA5_IRQHandler
                0x6000b93a        0x8 ./startup/startup_mimxrt1011.o
                0x6000b93a                DMA5_IRQHandler
 .text.DMA6_IRQHandler
                0x6000b942        0x8 ./startup/startup_mimxrt1011.o
                0x6000b942                DMA6_IRQHandler
 .text.DMA7_IRQHandler
                0x6000b94a        0x8 ./startup/startup_mimxrt1011.o
                0x6000b94a                DMA7_IRQHandler
 .text.DMA8_IRQHandler
                0x6000b952        0x8 ./startup/startup_mimxrt1011.o
                0x6000b952                DMA8_IRQHandler
 .text.DMA9_IRQHandler
                0x6000b95a        0x8 ./startup/startup_mimxrt1011.o
                0x6000b95a                DMA9_IRQHandler
 .text.DMA10_IRQHandler
                0x6000b962        0x8 ./startup/startup_mimxrt1011.o
                0x6000b962                DMA10_IRQHandler
 .text.DMA11_IRQHandler
                0x6000b96a        0x8 ./startup/startup_mimxrt1011.o
                0x6000b96a                DMA11_IRQHandler
 .text.DMA12_IRQHandler
                0x6000b972        0x8 ./startup/startup_mimxrt1011.o
                0x6000b972                DMA12_IRQHandler
 .text.DMA13_IRQHandler
                0x6000b97a        0x8 ./startup/startup_mimxrt1011.o
                0x6000b97a                DMA13_IRQHandler
 .text.DMA14_IRQHandler
                0x6000b982        0x8 ./startup/startup_mimxrt1011.o
                0x6000b982                DMA14_IRQHandler
 .text.DMA15_IRQHandler
                0x6000b98a        0x8 ./startup/startup_mimxrt1011.o
                0x6000b98a                DMA15_IRQHandler
 .text.DMA_ERROR_IRQHandler
                0x6000b992        0x8 ./startup/startup_mimxrt1011.o
                0x6000b992                DMA_ERROR_IRQHandler
 .text.CTI0_ERROR_IRQHandler
                0x6000b99a        0x8 ./startup/startup_mimxrt1011.o
                0x6000b99a                CTI0_ERROR_IRQHandler
 .text.CTI1_ERROR_IRQHandler
                0x6000b9a2        0x8 ./startup/startup_mimxrt1011.o
                0x6000b9a2                CTI1_ERROR_IRQHandler
 .text.CORE_IRQHandler
                0x6000b9aa        0x8 ./startup/startup_mimxrt1011.o
                0x6000b9aa                CORE_IRQHandler
 .text.LPUART1_IRQHandler
                0x6000b9b2        0x8 ./startup/startup_mimxrt1011.o
                0x6000b9b2                LPUART1_IRQHandler
 .text.LPUART2_IRQHandler
                0x6000b9ba        0x8 ./startup/startup_mimxrt1011.o
                0x6000b9ba                LPUART2_IRQHandler
 .text.LPUART3_IRQHandler
                0x6000b9c2        0x8 ./startup/startup_mimxrt1011.o
                0x6000b9c2                LPUART3_IRQHandler
 .text.LPUART4_IRQHandler
                0x6000b9ca        0x8 ./startup/startup_mimxrt1011.o
                0x6000b9ca                LPUART4_IRQHandler
 .text.PIT_IRQHandler
                0x6000b9d2        0x8 ./startup/startup_mimxrt1011.o
                0x6000b9d2                PIT_IRQHandler
 .text.USB_OTG1_IRQHandler
                0x6000b9da        0x8 ./startup/startup_mimxrt1011.o
                0x6000b9da                USB_OTG1_IRQHandler
 .text.FLEXSPI_IRQHandler
                0x6000b9e2        0x8 ./startup/startup_mimxrt1011.o
                0x6000b9e2                FLEXSPI_IRQHandler
 .text.FLEXRAM_IRQHandler
                0x6000b9ea        0x8 ./startup/startup_mimxrt1011.o
                0x6000b9ea                FLEXRAM_IRQHandler
 .text.LPI2C1_IRQHandler
                0x6000b9f2        0x8 ./startup/startup_mimxrt1011.o
                0x6000b9f2                LPI2C1_IRQHandler
 .text.LPI2C2_IRQHandler
                0x6000b9fa        0x8 ./startup/startup_mimxrt1011.o
                0x6000b9fa                LPI2C2_IRQHandler
 .text.GPT1_IRQHandler
                0x6000ba02        0x8 ./startup/startup_mimxrt1011.o
                0x6000ba02                GPT1_IRQHandler
 .text.GPT2_IRQHandler
                0x6000ba0a        0x8 ./startup/startup_mimxrt1011.o
                0x6000ba0a                GPT2_IRQHandler
 .text.LPSPI1_IRQHandler
                0x6000ba12        0x8 ./startup/startup_mimxrt1011.o
                0x6000ba12                LPSPI1_IRQHandler
 .text.LPSPI2_IRQHandler
                0x6000ba1a        0x8 ./startup/startup_mimxrt1011.o
                0x6000ba1a                LPSPI2_IRQHandler
 .text.PWM1_0_IRQHandler
                0x6000ba22        0x8 ./startup/startup_mimxrt1011.o
                0x6000ba22                PWM1_0_IRQHandler
 .text.PWM1_1_IRQHandler
                0x6000ba2a        0x8 ./startup/startup_mimxrt1011.o
                0x6000ba2a                PWM1_1_IRQHandler
 .text.PWM1_2_IRQHandler
                0x6000ba32        0x8 ./startup/startup_mimxrt1011.o
                0x6000ba32                PWM1_2_IRQHandler
 .text.PWM1_3_IRQHandler
                0x6000ba3a        0x8 ./startup/startup_mimxrt1011.o
                0x6000ba3a                PWM1_3_IRQHandler
 .text.PWM1_FAULT_IRQHandler
                0x6000ba42        0x8 ./startup/startup_mimxrt1011.o
                0x6000ba42                PWM1_FAULT_IRQHandler
 .text.KPP_IRQHandler
                0x6000ba4a        0x8 ./startup/startup_mimxrt1011.o
                0x6000ba4a                KPP_IRQHandler
 .text.SRC_IRQHandler
                0x6000ba52        0x8 ./startup/startup_mimxrt1011.o
                0x6000ba52                SRC_IRQHandler
 .text.GPR_IRQ_IRQHandler
                0x6000ba5a        0x8 ./startup/startup_mimxrt1011.o
                0x6000ba5a                GPR_IRQ_IRQHandler
 .text.CCM_1_IRQHandler
                0x6000ba62        0x8 ./startup/startup_mimxrt1011.o
                0x6000ba62                CCM_1_IRQHandler
 .text.CCM_2_IRQHandler
                0x6000ba6a        0x8 ./startup/startup_mimxrt1011.o
                0x6000ba6a                CCM_2_IRQHandler
 .text.EWM_IRQHandler
                0x6000ba72        0x8 ./startup/startup_mimxrt1011.o
                0x6000ba72                EWM_IRQHandler
 .text.WDOG2_IRQHandler
                0x6000ba7a        0x8 ./startup/startup_mimxrt1011.o
                0x6000ba7a                WDOG2_IRQHandler
 .text.SNVS_HP_WRAPPER_IRQHandler
                0x6000ba82        0x8 ./startup/startup_mimxrt1011.o
                0x6000ba82                SNVS_HP_WRAPPER_IRQHandler
 .text.SNVS_HP_WRAPPER_TZ_IRQHandler
                0x6000ba8a        0x8 ./startup/startup_mimxrt1011.o
                0x6000ba8a                SNVS_HP_WRAPPER_TZ_IRQHandler
 .text.SNVS_LP_WRAPPER_IRQHandler
                0x6000ba92        0x8 ./startup/startup_mimxrt1011.o
                0x6000ba92                SNVS_LP_WRAPPER_IRQHandler
 .text.CSU_IRQHandler
                0x6000ba9a        0x8 ./startup/startup_mimxrt1011.o
                0x6000ba9a                CSU_IRQHandler
 .text.DCP_IRQHandler
                0x6000baa2        0x8 ./startup/startup_mimxrt1011.o
                0x6000baa2                DCP_IRQHandler
 .text.DCP_VMI_IRQHandler
                0x6000baaa        0x8 ./startup/startup_mimxrt1011.o
                0x6000baaa                DCP_VMI_IRQHandler
 .text.Reserved68_IRQHandler
                0x6000bab2        0x8 ./startup/startup_mimxrt1011.o
                0x6000bab2                Reserved68_IRQHandler
 .text.TRNG_IRQHandler
                0x6000baba        0x8 ./startup/startup_mimxrt1011.o
                0x6000baba                TRNG_IRQHandler
 .text.Reserved70_IRQHandler
                0x6000bac2        0x8 ./startup/startup_mimxrt1011.o
                0x6000bac2                Reserved70_IRQHandler
 .text.Reserved71_IRQHandler
                0x6000baca        0x8 ./startup/startup_mimxrt1011.o
                0x6000baca                Reserved71_IRQHandler
 .text.SAI1_IRQHandler
                0x6000bad2        0x8 ./startup/startup_mimxrt1011.o
                0x6000bad2                SAI1_IRQHandler
 .text.RTWDOG_IRQHandler
                0x6000bada        0x8 ./startup/startup_mimxrt1011.o
                0x6000bada                RTWDOG_IRQHandler
 .text.SAI3_RX_IRQHandler
                0x6000bae2        0x8 ./startup/startup_mimxrt1011.o
                0x6000bae2                SAI3_RX_IRQHandler
 .text.SAI3_TX_IRQHandler
                0x6000baea        0x8 ./startup/startup_mimxrt1011.o
                0x6000baea                SAI3_TX_IRQHandler
 .text.SPDIF_IRQHandler
                0x6000baf2        0x8 ./startup/startup_mimxrt1011.o
                0x6000baf2                SPDIF_IRQHandler
 .text.PMU_IRQHandler
                0x6000bafa        0x8 ./startup/startup_mimxrt1011.o
                0x6000bafa                PMU_IRQHandler
 .text.XBAR1_IRQ_0_1_2_3_IRQHandler
                0x6000bb02        0x8 ./startup/startup_mimxrt1011.o
                0x6000bb02                XBAR1_IRQ_0_1_2_3_IRQHandler
 .text.TEMP_LOW_HIGH_IRQHandler
                0x6000bb0a        0x8 ./startup/startup_mimxrt1011.o
                0x6000bb0a                TEMP_LOW_HIGH_IRQHandler
 .text.TEMP_PANIC_IRQHandler
                0x6000bb12        0x8 ./startup/startup_mimxrt1011.o
                0x6000bb12                TEMP_PANIC_IRQHandler
 .text.USB_PHY_IRQHandler
                0x6000bb1a        0x8 ./startup/startup_mimxrt1011.o
                0x6000bb1a                USB_PHY_IRQHandler
 .text.GPC_IRQHandler
                0x6000bb22        0x8 ./startup/startup_mimxrt1011.o
                0x6000bb22                GPC_IRQHandler
 .text.ADC1_IRQHandler
                0x6000bb2a        0x8 ./startup/startup_mimxrt1011.o
                0x6000bb2a                ADC1_IRQHandler
 .text.FLEXIO1_IRQHandler
                0x6000bb32        0x8 ./startup/startup_mimxrt1011.o
                0x6000bb32                FLEXIO1_IRQHandler
 .text.DCDC_IRQHandler
                0x6000bb3a        0x8 ./startup/startup_mimxrt1011.o
                0x6000bb3a                DCDC_IRQHandler
 .text.GPIO1_Combined_0_15_IRQHandler
                0x6000bb42        0x8 ./startup/startup_mimxrt1011.o
                0x6000bb42                GPIO1_Combined_0_15_IRQHandler
 .text.GPIO1_Combined_16_31_IRQHandler
                0x6000bb4a        0x8 ./startup/startup_mimxrt1011.o
                0x6000bb4a                GPIO1_Combined_16_31_IRQHandler
 .text.GPIO2_Combined_0_15_IRQHandler
                0x6000bb52        0x8 ./startup/startup_mimxrt1011.o
                0x6000bb52                GPIO2_Combined_0_15_IRQHandler
 .text.GPIO5_Combined_0_15_IRQHandler
                0x6000bb5a        0x8 ./startup/startup_mimxrt1011.o
                0x6000bb5a                GPIO5_Combined_0_15_IRQHandler
 .text.WDOG1_IRQHandler
                0x6000bb62        0x8 ./startup/startup_mimxrt1011.o
                0x6000bb62                WDOG1_IRQHandler
 .text.ADC_ETC_IRQ0_IRQHandler
                0x6000bb6a        0x8 ./startup/startup_mimxrt1011.o
                0x6000bb6a                ADC_ETC_IRQ0_IRQHandler
 .text.ADC_ETC_IRQ1_IRQHandler
                0x6000bb72        0x8 ./startup/startup_mimxrt1011.o
                0x6000bb72                ADC_ETC_IRQ1_IRQHandler
 .text.ADC_ETC_IRQ2_IRQHandler
                0x6000bb7a        0x8 ./startup/startup_mimxrt1011.o
                0x6000bb7a                ADC_ETC_IRQ2_IRQHandler
 .text.ADC_ETC_IRQ3_IRQHandler
                0x6000bb82        0x8 ./startup/startup_mimxrt1011.o
                0x6000bb82                ADC_ETC_IRQ3_IRQHandler
 .text.ADC_ETC_ERROR_IRQ_IRQHandler
                0x6000bb8a        0x8 ./startup/startup_mimxrt1011.o
                0x6000bb8a                ADC_ETC_ERROR_IRQ_IRQHandler
 .text.do_fft   0x6000bb92      0x296 ./source/Fourier.o
                0x6000bb92                do_fft
 .text.EnableIRQ
                0x6000be28       0x2c ./source/NoteDetectApp.o
 .text.SAI_TxEnableInterrupts
                0x6000be54       0x26 ./source/NoteDetectApp.o
 .text.SAI_RxEnableInterrupts
                0x6000be7a       0x2a ./source/NoteDetectApp.o
 .text.HardFault_Handler
                0x6000bea4       0x2c ./source/semihost_hardfault.o
                0x6000bea4                HardFault_Handler
 .text.CLOCK_GetRtcFreq
                0x6000bed0       0x12 ./drivers/fsl_clock.o
 .text.CLOCK_IsPllBypassed
                0x6000bee2       0x32 ./drivers/fsl_clock.o
 .text.CLOCK_IsPllEnabled
                0x6000bf14       0x3c ./drivers/fsl_clock.o
 .text.CLOCK_GetPllBypassRefClk
                0x6000bf50       0x34 ./drivers/fsl_clock.o
 .text.CLOCK_EnableClock
                0x6000bf84       0x1e ./drivers/fsl_dmamux.o
 .text.DMAMUX_Init
                0x6000bfa2       0x20 ./drivers/fsl_dmamux.o
                0x6000bfa2                DMAMUX_Init
 .text.CLOCK_EnableClock
                0x6000bfc2       0x1e ./drivers/fsl_edma.o
 .text.EnableIRQ
                0x6000bfe0       0x2c ./drivers/fsl_edma.o
 .text.DisableGlobalIRQ
                0x6000c00c       0x22 ./drivers/fsl_edma.o
 .text.EnableGlobalIRQ
                0x6000c02e       0x20 ./drivers/fsl_edma.o
 .text.EDMA_AbortTransfer
                0x6000c04e       0x6a ./drivers/fsl_edma.o
                0x6000c04e                EDMA_AbortTransfer
 .text.CLOCK_EnableClock
                0x6000c0b8       0x1e ./drivers/fsl_lpi2c.o
 .text.LPI2C_MasterReset
                0x6000c0d6       0x20 ./drivers/fsl_lpi2c.o
 .text.LPI2C_MasterEnable
                0x6000c0f6       0x28 ./drivers/fsl_lpi2c.o
 .text.LPI2C_MasterGetStatusFlags
                0x6000c11e       0x18 ./drivers/fsl_lpi2c.o
 .text.LPI2C_MasterClearStatusFlags
                0x6000c136       0x1c ./drivers/fsl_lpi2c.o
 .text.LPI2C_MasterSetWatermarks
                0x6000c152       0x2c ./drivers/fsl_lpi2c.o
 .text.LPI2C_MasterGetFifoCounts
                0x6000c17e       0x3e ./drivers/fsl_lpi2c.o
 .text.LPI2C_MasterCheckAndClearError
                0x6000c1bc       0x80 ./drivers/fsl_lpi2c.o
                0x6000c1bc                LPI2C_MasterCheckAndClearError
 .text.LPI2C_MasterWaitForTxReady
                0x6000c23c       0x4e ./drivers/fsl_lpi2c.o
 .text.LPI2C_CheckForBusyBus
                0x6000c28a       0x38 ./drivers/fsl_lpi2c.o
                0x6000c28a                LPI2C_CheckForBusyBus
 .text.LPI2C_MasterStop
                0x6000c2c2       0x66 ./drivers/fsl_lpi2c.o
                0x6000c2c2                LPI2C_MasterStop
 .text.CLOCK_EnableClock
                0x6000c328       0x1e ./drivers/fsl_lpuart.o
 .text.LPUART_SoftwareReset
                0x6000c346       0x2c ./drivers/fsl_lpuart.o
 .text.LPUART_GetStatusFlags
                0x6000c372       0x2c ./drivers/fsl_lpuart.o
                0x6000c372                LPUART_GetStatusFlags
 .text.CLOCK_EnableClock
                0x6000c39e       0x1e ./drivers/fsl_sai.o
 .text.SAI_TxClearStatusFlags
                0x6000c3bc       0x26 ./drivers/fsl_sai.o
 .text.SAI_RxClearStatusFlags
                0x6000c3e2       0x2a ./drivers/fsl_sai.o
 .text.SAI_TxReset
                0x6000c40c       0x46 ./drivers/fsl_sai.o
                0x6000c40c                SAI_TxReset
 .text.SAI_RxReset
                0x6000c452       0x56 ./drivers/fsl_sai.o
                0x6000c452                SAI_RxReset
 .text.SAI_TxSoftwareReset
                0x6000c4a8       0x2e ./drivers/fsl_sai.o
                0x6000c4a8                SAI_TxSoftwareReset
 .text.SAI_RxSoftwareReset
                0x6000c4d6       0x36 ./drivers/fsl_sai.o
                0x6000c4d6                SAI_RxSoftwareReset
 .text.SAI_GetClassicI2SConfig
                0x6000c50c       0x26 ./drivers/fsl_sai.o
                0x6000c50c                SAI_GetClassicI2SConfig
 .text.SAI_TxEnableDMA
                0x6000c532       0x44 ./drivers/fsl_sai_edma.o
 .text.SAI_RxEnableDMA
                0x6000c576       0x4c ./drivers/fsl_sai_edma.o
 .text.SAI_RxGetDataRegisterAddress
                0x6000c5c2       0x20 ./drivers/fsl_sai_edma.o
 .text.SAI_TxEDMACallback
                0x6000c5e2       0xa4 ./drivers/fsl_sai_edma.o
 .text.SAI_RxEDMACallback
                0x6000c686       0xa4 ./drivers/fsl_sai_edma.o
 .text.HAL_UartGetStatus
                0x6000c72a       0x22 ./component/uart/lpuart_adapter.o
 .text.DisableGlobalIRQ
                0x6000c74c       0x22 ./component/serial_manager/serial_manager.o
 .text.EnableGlobalIRQ
                0x6000c76e       0x20 ./component/serial_manager/serial_manager.o
 .text.SerialManager_StartWriting
                0x6000c78e       0x4a ./component/serial_manager/serial_manager.o
 .text.SerialManager_StartReading
                0x6000c7d8       0x4a ./component/serial_manager/serial_manager.o
 .text.SerialManager_WriteBlocking
                0x6000c822       0x20 ./component/serial_manager/serial_manager.o
                0x6000c822                SerialManager_WriteBlocking
 .text.SerialManager_ReadBlocking
                0x6000c842       0x20 ./component/serial_manager/serial_manager.o
                0x6000c842                SerialManager_ReadBlocking
 .text.CODEC_I2C_Init
                0x6000c862       0x36 ./codec/fsl_codec_i2c.o
                0x6000c862                CODEC_I2C_Init
 .text.CODEC_I2C_Send
                0x6000c898       0x4e ./codec/fsl_codec_i2c.o
                0x6000c898                CODEC_I2C_Send
 .text.WM8960_SetMasterSlave
                0x6000c8e6       0x34 ./codec/fsl_wm8960.o
                0x6000c8e6                WM8960_SetMasterSlave
 .text.WM8960_SetProtocol
                0x6000c91a       0x24 ./codec/fsl_wm8960.o
                0x6000c91a                WM8960_SetProtocol
 .text.WM8960_ModifyReg
                0x6000c93e       0x7a ./codec/fsl_wm8960.o
                0x6000c93e                WM8960_ModifyReg
 .text.BOARD_InitDebugConsole
                0x6000c9b8       0x22 ./board/board.o
                0x6000c9b8                BOARD_InitDebugConsole
 .text.CLOCK_DisableClock
                0x6000c9da       0x1e ./board/clock_config.o
 .text.CLOCK_SetPllBypass
                0x6000c9f8       0x4e ./board/clock_config.o
 .text.IOMUXC_SetSaiMClkClockSource
                0x6000ca46       0x6c ./board/clock_config.o
 .text.CLOCK_EnableClock
                0x6000cab2       0x1e ./board/pin_mux.o
 .text.IOMUXC_SetPinMux
                0x6000cad0       0x3a ./board/pin_mux.o
 .text.IOMUXC_SetPinConfig
                0x6000cb0a       0x26 ./board/pin_mux.o
 .text.xEventGroupCreate
                0x6000cb30       0x2e ./amazon-freertos/freertos/event_groups.o
                0x6000cb30                xEventGroupCreate
 .text.xEventGroupSetBits
                0x6000cb5e      0x116 ./amazon-freertos/freertos/event_groups.o
                0x6000cb5e                xEventGroupSetBits
 .text.vEventGroupSetBitsCallback
                0x6000cc74       0x1a ./amazon-freertos/freertos/event_groups.o
                0x6000cc74                vEventGroupSetBitsCallback
 .text.prvTestWaitCondition
                0x6000cc8e       0x44 ./amazon-freertos/freertos/event_groups.o
 .text.vListInitialise
                0x6000ccd2       0x40 ./amazon-freertos/freertos/list.o
                0x6000ccd2                vListInitialise
 .text.vListInitialiseItem
                0x6000cd12       0x1a ./amazon-freertos/freertos/list.o
                0x6000cd12                vListInitialiseItem
 .text.vListInsertEnd
                0x6000cd2c       0x48 ./amazon-freertos/freertos/list.o
                0x6000cd2c                vListInsertEnd
 .text.vListInsert
                0x6000cd74       0x72 ./amazon-freertos/freertos/list.o
                0x6000cd74                vListInsert
 .text.uxListRemove
                0x6000cde6       0x54 ./amazon-freertos/freertos/list.o
                0x6000cde6                uxListRemove
 .text.xQueueGenericCreate
                0x6000ce3a       0x78 ./amazon-freertos/freertos/queue.o
                0x6000ce3a                xQueueGenericCreate
 .text.prvInitialiseNewQueue
                0x6000ceb2       0x46 ./amazon-freertos/freertos/queue.o
 .text.xQueueGenericSendFromISR
                0x6000cef8      0x130 ./amazon-freertos/freertos/queue.o
                0x6000cef8                xQueueGenericSendFromISR
 .text.prvCopyDataToQueue
                0x6000d028       0xd4 ./amazon-freertos/freertos/queue.o
 .text.prvCopyDataFromQueue
                0x6000d0fc       0x4c ./amazon-freertos/freertos/queue.o
 .text.prvUnlockQueue
                0x6000d148       0xa4 ./amazon-freertos/freertos/queue.o
 .text.prvIsQueueEmpty
                0x6000d1ec       0x2c ./amazon-freertos/freertos/queue.o
 .text.prvIsQueueFull
                0x6000d218       0x30 ./amazon-freertos/freertos/queue.o
 .text.vQueueWaitForMessageRestricted
                0x6000d248       0x68 ./amazon-freertos/freertos/queue.o
                0x6000d248                vQueueWaitForMessageRestricted
 .text.xTaskCreate
                0x6000d2b0       0x82 ./amazon-freertos/freertos/tasks.o
                0x6000d2b0                xTaskCreate
 .text.prvInitialiseNewTask
                0x6000d332      0x13c ./amazon-freertos/freertos/tasks.o
 .text.prvDeleteTCB
                0x6000d46e       0x20 ./amazon-freertos/freertos/tasks.o
 .text.prvTimerTask
                0x6000d48e       0x24 ./amazon-freertos/freertos/timers.o
 .text.__main   0x6000d4b2        0xe c:/nxp/mcuxpressoide_11.4.0_6237/ide/plugins/com.nxp.mcuxpresso.tools.win32_11.4.0.202103011116/tools/bin/../lib/gcc/arm-none-eabi/10.2.1/../../../../arm-none-eabi/lib/thumb/v7e-m+fp/hard\libcr_nohost_nf.a(_cr__main.o)
                0x6000d4b2                __main
 .text.__sys_appexit
                0x6000d4c0        0x2 c:/nxp/mcuxpressoide_11.4.0_6237/ide/plugins/com.nxp.mcuxpresso.tools.win32_11.4.0.202103011116/tools/bin/../lib/gcc/arm-none-eabi/10.2.1/../../../../arm-none-eabi/lib/thumb/v7e-m+fp/hard\libcr_nohost_nf.a(__sys_appexit.o)
                0x6000d4c0                __sys_appexit
                0x6000d4c0                __exit
 .text.sqrtf    0x6000d4c2        0x6 c:/nxp/mcuxpressoide_11.4.0_6237/ide/plugins/com.nxp.mcuxpresso.tools.win32_11.4.0.202103011116/tools/bin/../lib/gcc/arm-none-eabi/10.2.1/../../../../arm-none-eabi/lib/thumb/v7e-m+fp/hard\libcr_c.a(sqrtf_m4_hardfp.o)
                0x6000d4c2                sqrtf
 .text.memcpy   0x6000d4c8        0x4 c:/nxp/mcuxpressoide_11.4.0_6237/ide/plugins/com.nxp.mcuxpresso.tools.win32_11.4.0.202103011116/tools/bin/../lib/gcc/arm-none-eabi/10.2.1/../../../../arm-none-eabi/lib/thumb/v7e-m+fp/hard\libcr_c.a(memcpy.o)
                0x6000d4c8                memcpy
 .text.memset   0x6000d4cc        0x4 c:/nxp/mcuxpressoide_11.4.0_6237/ide/plugins/com.nxp.mcuxpresso.tools.win32_11.4.0.202103011116/tools/bin/../lib/gcc/arm-none-eabi/10.2.1/../../../../arm-none-eabi/lib/thumb/v7e-m+fp/hard\libcr_c.a(memset.o)
                0x6000d4cc                memset
 .text._deferredlazyseek
                0x6000d4d0       0x40 c:/nxp/mcuxpressoide_11.4.0_6237/ide/plugins/com.nxp.mcuxpresso.tools.win32_11.4.0.202103011116/tools/bin/../lib/gcc/arm-none-eabi/10.2.1/../../../../arm-none-eabi/lib/thumb/v7e-m+fp/hard\libcr_c.a(_deferredlazyseek.o)
                0x6000d4d0                _deferredlazyseek
 .text.__flsbuf
                0x6000d510      0x140 c:/nxp/mcuxpressoide_11.4.0_6237/ide/plugins/com.nxp.mcuxpresso.tools.win32_11.4.0.202103011116/tools/bin/../lib/gcc/arm-none-eabi/10.2.1/../../../../arm-none-eabi/lib/thumb/v7e-m+fp/hard\libcr_c.a(_deferredlazyseek.o)
                0x6000d510                __flsbuf
 .text._fflush  0x6000d650       0x52 c:/nxp/mcuxpressoide_11.4.0_6237/ide/plugins/com.nxp.mcuxpresso.tools.win32_11.4.0.202103011116/tools/bin/../lib/gcc/arm-none-eabi/10.2.1/../../../../arm-none-eabi/lib/thumb/v7e-m+fp/hard\libcr_c.a(_fflush.o)
                0x6000d650                _fflush
 .text.free     0x6000d6a2       0x30 c:/nxp/mcuxpressoide_11.4.0_6237/ide/plugins/com.nxp.mcuxpresso.tools.win32_11.4.0.202103011116/tools/bin/../lib/gcc/arm-none-eabi/10.2.1/../../../../arm-none-eabi/lib/thumb/v7e-m+fp/hard\libcr_c.a(alloc.o)
                0x6000d6a2                free
 .text.fputs    0x6000d6d2       0x2c c:/nxp/mcuxpressoide_11.4.0_6237/ide/plugins/com.nxp.mcuxpresso.tools.win32_11.4.0.202103011116/tools/bin/../lib/gcc/arm-none-eabi/10.2.1/../../../../arm-none-eabi/lib/thumb/v7e-m+fp/hard\libcr_c.a(fputs.o)
                0x6000d6d2                fputs
 .text.setvbuf  0x6000d6fe       0x3e c:/nxp/mcuxpressoide_11.4.0_6237/ide/plugins/com.nxp.mcuxpresso.tools.win32_11.4.0.202103011116/tools/bin/../lib/gcc/arm-none-eabi/10.2.1/../../../../arm-none-eabi/lib/thumb/v7e-m+fp/hard\libcr_c.a(setvbuf.o)
                0x6000d6fe                setvbuf
 .text.strlen   0x6000d73c       0x48 c:/nxp/mcuxpressoide_11.4.0_6237/ide/plugins/com.nxp.mcuxpresso.tools.win32_11.4.0.202103011116/tools/bin/../lib/gcc/arm-none-eabi/10.2.1/../../../../arm-none-eabi/lib/thumb/v7e-m+fp/hard\libcr_c.a(strlen.o)
                0x6000d73c                strlen
 .text._fdopen  0x6000d784       0x68 c:/nxp/mcuxpressoide_11.4.0_6237/ide/plugins/com.nxp.mcuxpresso.tools.win32_11.4.0.202103011116/tools/bin/../lib/gcc/arm-none-eabi/10.2.1/../../../../arm-none-eabi/lib/thumb/v7e-m+fp/hard\libcr_c.a(_fdopen.o)
                0x6000d784                _fdopen
 .text.fclose   0x6000d7ec       0x58 c:/nxp/mcuxpressoide_11.4.0_6237/ide/plugins/com.nxp.mcuxpresso.tools.win32_11.4.0.202103011116/tools/bin/../lib/gcc/arm-none-eabi/10.2.1/../../../../arm-none-eabi/lib/thumb/v7e-m+fp/hard\libcr_c.a(fclose.o)
                0x6000d7ec                fclose
 .text.remove   0x6000d844       0x14 c:/nxp/mcuxpressoide_11.4.0_6237/ide/plugins/com.nxp.mcuxpresso.tools.win32_11.4.0.202103011116/tools/bin/../lib/gcc/arm-none-eabi/10.2.1/../../../../arm-none-eabi/lib/thumb/v7e-m+fp/hard\libcr_c.a(remove.o)
                0x6000d844                remove
 .text._do_fflush
                0x6000d858       0x40 c:/nxp/mcuxpressoide_11.4.0_6237/ide/plugins/com.nxp.mcuxpresso.tools.win32_11.4.0.202103011116/tools/bin/../lib/gcc/arm-none-eabi/10.2.1/../../../../arm-none-eabi/lib/thumb/v7e-m+fp/hard\libcr_c.a(_do_fflush.o)
                0x6000d858                _do_fflush
 .text.__aeabi_division_uldivmod
                0x6000d898      0x174 c:/nxp/mcuxpressoide_11.4.0_6237/ide/plugins/com.nxp.mcuxpresso.tools.win32_11.4.0.202103011116/tools/bin/../lib/gcc/arm-none-eabi/10.2.1/thumb/v7e-m+fp/hard\libcr_eabihelpers.a(division_64.o)
                0x6000d898                __aeabi_uldivmod
                0x6000d89c                __bhs_ldivmod1
 .text.__aeabi_division_idiv0
                0x6000da0c        0x2 c:/nxp/mcuxpressoide_11.4.0_6237/ide/plugins/com.nxp.mcuxpresso.tools.win32_11.4.0.202103011116/tools/bin/../lib/gcc/arm-none-eabi/10.2.1/thumb/v7e-m+fp/hard\libcr_eabihelpers.a(division_idiv0.o)
                0x6000da0c                __aeabi_idiv0
 .text.__aeabi_memcpy
                0x6000da0e       0x34 c:/nxp/mcuxpressoide_11.4.0_6237/ide/plugins/com.nxp.mcuxpresso.tools.win32_11.4.0.202103011116/tools/bin/../lib/gcc/arm-none-eabi/10.2.1/thumb/v7e-m+fp/hard\libcr_eabihelpers.a(memcpy.o)
                0x6000da0e                __aeabi_memcpy
                0x6000da18                __aeabi_memcpy8
                0x6000da18                __aeabi_memcpy4
 .text.__aeabi_memset_lowlevel
                0x6000da42       0x32 c:/nxp/mcuxpressoide_11.4.0_6237/ide/plugins/com.nxp.mcuxpresso.tools.win32_11.4.0.202103011116/tools/bin/../lib/gcc/arm-none-eabi/10.2.1/thumb/v7e-m+fp/hard\libcr_eabihelpers.a(memcpy.o)
                0x6000da42                __aeabi_lowlevel_memset
 .text.__sys_close
                0x6000da74        0x6 c:/nxp/mcuxpressoide_11.4.0_6237/ide/plugins/com.nxp.mcuxpresso.tools.win32_11.4.0.202103011116/tools/bin/../lib/gcc/arm-none-eabi/10.2.1/../../../../arm-none-eabi/lib/thumb/v7e-m+fp/hard\libcr_nohost_nf.a(__sys_close.o)
                0x6000da74                __sys_close
 .text.__sys_flen
                0x6000da7a        0x6 c:/nxp/mcuxpressoide_11.4.0_6237/ide/plugins/com.nxp.mcuxpresso.tools.win32_11.4.0.202103011116/tools/bin/../lib/gcc/arm-none-eabi/10.2.1/../../../../arm-none-eabi/lib/thumb/v7e-m+fp/hard\libcr_nohost_nf.a(__sys_flen.o)
                0x6000da7a                __sys_flen
 .text.__sys_istty
                0x6000da80        0x6 c:/nxp/mcuxpressoide_11.4.0_6237/ide/plugins/com.nxp.mcuxpresso.tools.win32_11.4.0.202103011116/tools/bin/../lib/gcc/arm-none-eabi/10.2.1/../../../../arm-none-eabi/lib/thumb/v7e-m+fp/hard\libcr_nohost_nf.a(__sys_istty.o)
                0x6000da80                __sys_istty
 .text.__sys_remove
                0x6000da86        0x6 c:/nxp/mcuxpressoide_11.4.0_6237/ide/plugins/com.nxp.mcuxpresso.tools.win32_11.4.0.202103011116/tools/bin/../lib/gcc/arm-none-eabi/10.2.1/../../../../arm-none-eabi/lib/thumb/v7e-m+fp/hard\libcr_nohost_nf.a(__sys_remove.o)
                0x6000da86                __sys_remove
 .text.__sys_seek
                0x6000da8c        0x6 c:/nxp/mcuxpressoide_11.4.0_6237/ide/plugins/com.nxp.mcuxpresso.tools.win32_11.4.0.202103011116/tools/bin/../lib/gcc/arm-none-eabi/10.2.1/../../../../arm-none-eabi/lib/thumb/v7e-m+fp/hard\libcr_nohost_nf.a(__sys_seek.o)
                0x6000da8c                __sys_seek
 .text.__sys_tmpnam
                0x6000da92        0x6 c:/nxp/mcuxpressoide_11.4.0_6237/ide/plugins/com.nxp.mcuxpresso.tools.win32_11.4.0.202103011116/tools/bin/../lib/gcc/arm-none-eabi/10.2.1/../../../../arm-none-eabi/lib/thumb/v7e-m+fp/hard\libcr_nohost_nf.a(__sys_tmpnam.o)
                0x6000da92                __sys_tmpnam
 .text.__sys_write
                0x6000da98        0x4 c:/nxp/mcuxpressoide_11.4.0_6237/ide/plugins/com.nxp.mcuxpresso.tools.win32_11.4.0.202103011116/tools/bin/../lib/gcc/arm-none-eabi/10.2.1/../../../../arm-none-eabi/lib/thumb/v7e-m+fp/hard\libcr_nohost_nf.a(__sys_write.o)
                0x6000da98                __sys_write
 *freertos*/tasks.o(SORT_BY_ALIGNMENT(.rodata*))
 .rodata.vTaskStartScheduler.str1.4
                0x6000da9c        0x5 ./amazon-freertos/freertos/tasks.o
 *(SORT_BY_ALIGNMENT(.rodata) SORT_BY_ALIGNMENT(.rodata.*) SORT_BY_ALIGNMENT(.constdata) SORT_BY_ALIGNMENT(.constdata.*))
 *fill*         0x6000daa1        0x3 ff
 .rodata.DbgConsole_SendDataReliable.str1.4
                0x6000daa4       0x4d ./utilities/fsl_debug_console.o
 *fill*         0x6000daf1        0x3 ff
 .rodata.DbgConsole_ReadCharacter.str1.4
                0x6000daf4       0x1e ./utilities/fsl_debug_console.o
 *fill*         0x6000db12        0x2 ff
 .rodata.DbgConsole_Init.str1.4
                0x6000db14       0xcb ./utilities/fsl_debug_console.o
 *fill*         0x6000dbdf        0x1 ff
 .rodata.CLOCK_SetMux.str1.4
                0x6000dbe0       0x9b ./source/MIMXRT1011_Project_NoteDetect_Project.o
 *fill*         0x6000dc7b        0x1 ff
 .rodata.CLOCK_SetDiv.str1.4
                0x6000dc7c       0x9b ./source/MIMXRT1011_Project_NoteDetect_Project.o
 *fill*         0x6000dd17        0x1 ff
 .rodata.audioPllConfig
                0x6000dd18       0x10 ./source/MIMXRT1011_Project_NoteDetect_Project.o
                0x6000dd18                audioPllConfig
 .rodata.main.str1.4
                0x6000dd28        0x8 ./source/MIMXRT1011_Project_NoteDetect_Project.o
 .rodata.DMAMUX_EnableChannel.str1.4
                0x6000dd30       0xb3 ./source/NoteDetectApp.o
 *fill*         0x6000dde3        0x1 ff
 .rodata.DMAMUX_SetSource.str1.4
                0x6000dde4       0xb4 ./source/NoteDetectApp.o
 .rodata.AppInitTask.str1.4
                0x6000de98        0xb ./source/NoteDetectApp.o
 *fill*         0x6000dea3        0x1 ff
 .rodata.ConsoleAppTask.str1.4
                0x6000dea4       0x7c ./source/NoteDetectApp.o
 .rodata.FindNotes.str1.4
                0x6000df20        0x5 ./source/NoteDetectApp.o
 *fill*         0x6000df25        0x3 ff
 .rodata.CLOCK_InitExternalClk.str1.4
                0x6000df28       0x22 ./drivers/fsl_clock.o
 *fill*         0x6000df4a        0x2 ff
 .rodata.CLOCK_ControlGate.str1.4
                0x6000df4c       0x1e ./drivers/fsl_dmamux.o
 *fill*         0x6000df6a        0x2 ff
 .rodata.DMAMUX_GetInstance.str1.4
                0x6000df6c       0x38 ./drivers/fsl_dmamux.o
 .rodata.CLOCK_ControlGate.str1.4
                0x6000dfa4       0x1e ./drivers/fsl_edma.o
 .rodata.s_edmaIRQNumber
                0x6000dfa4       0x10 ./drivers/fsl_edma.o
 .rodata.EDMA_GetInstance.str1.4
                0x6000dfb4       0x34 ./drivers/fsl_edma.o
 .rodata.EDMA_InstallTCD.str1.4
                0x6000dfe8       0x97 ./drivers/fsl_edma.o
 *fill*         0x6000e07f        0x1 ff
 .rodata.EDMA_Init.str1.4
                0x6000e080       0x21 ./drivers/fsl_edma.o
 *fill*         0x6000e0a1        0x3 ff
 .rodata.EDMA_GetDefaultConfig.str1.4
                0x6000e0a4       0x21 ./drivers/fsl_edma.o
 *fill*         0x6000e0c5        0x3 ff
 .rodata.EDMA_SetTransferConfig.str1.4
                0x6000e0c8       0xa0 ./drivers/fsl_edma.o
 .rodata.EDMA_TcdReset.str1.4
                0x6000e168       0x50 ./drivers/fsl_edma.o
 .rodata.EDMA_TcdSetTransferConfig.str1.4
                0x6000e1b8       0xa8 ./drivers/fsl_edma.o
 .rodata.EDMA_CreateHandle.str1.4
                0x6000e260       0x6a ./drivers/fsl_edma.o
 *fill*         0x6000e2ca        0x2 ff
 .rodata.EDMA_InstallTCDMemory.str1.4
                0x6000e2cc       0x58 ./drivers/fsl_edma.o
 .rodata.EDMA_SetCallback.str1.4
                0x6000e324       0x21 ./drivers/fsl_edma.o
 *fill*         0x6000e345        0x3 ff
 .rodata.EDMA_PrepareTransfer.str1.4
                0x6000e348      0x20c ./drivers/fsl_edma.o
 .rodata.EDMA_SubmitTransfer.str1.4
                0x6000e554       0x46 ./drivers/fsl_edma.o
 *fill*         0x6000e59a        0x2 ff
 .rodata.EDMA_StartTransfer.str1.4
                0x6000e59c       0x22 ./drivers/fsl_edma.o
 *fill*         0x6000e5be        0x2 ff
 .rodata.EDMA_HandleIRQ.str1.4
                0x6000e5c0       0x22 ./drivers/fsl_edma.o
 .rodata.CLOCK_ControlGate.str1.4
                0x6000e5e2       0x1e ./drivers/fsl_lpi2c.o
 *fill*         0x6000e5e2        0x2 ff
 .rodata.kLpi2cBases
                0x6000e5e4        0xc ./drivers/fsl_lpi2c.o
 .rodata.kLpi2cClocks
                0x6000e5f0        0x6 ./drivers/fsl_lpi2c.o
 *fill*         0x6000e5f6        0x2 ff
 .rodata.LPI2C_GetInstance.str1.4
                0x6000e5f8       0x19 ./drivers/fsl_lpi2c.o
 *fill*         0x6000e611        0x3 ff
 .rodata.LPI2C_GetCyclesForWidth.str1.4
                0x6000e614       0x4a ./drivers/fsl_lpi2c.o
 *fill*         0x6000e65e        0x2 ff
 .rodata.LPI2C_MasterReceive.str1.4
                0x6000e660       0x22 ./drivers/fsl_lpi2c.o
 *fill*         0x6000e682        0x2 ff
 .rodata.LPI2C_MasterSend.str1.4
                0x6000e684       0x22 ./drivers/fsl_lpi2c.o
 *fill*         0x6000e6a6        0x2 ff
 .rodata.LPI2C_MasterTransferBlocking.str1.4
                0x6000e6a8       0x70 ./drivers/fsl_lpi2c.o
 .rodata.CLOCK_ControlGate.str1.4
                0x6000e718       0x1e ./drivers/fsl_lpuart.o
 .rodata.s_lpuartBases
                0x6000e718       0x14 ./drivers/fsl_lpuart.o
 .rodata.s_lpuartClock
                0x6000e72c        0xa ./drivers/fsl_lpuart.o
 *fill*         0x6000e736        0x2 ff
 .rodata.LPUART_GetInstance.str1.4
                0x6000e738       0x39 ./drivers/fsl_lpuart.o
 *fill*         0x6000e771        0x3 ff
 .rodata.LPUART_Init.str1.4
                0x6000e774      0x10c ./drivers/fsl_lpuart.o
 .rodata.LPUART_GetDefaultConfig.str1.4
                0x6000e880       0x23 ./drivers/fsl_lpuart.o
 *fill*         0x6000e8a3        0x1 ff
 .rodata.LPUART_WriteBlocking.str1.4
                0x6000e8a4       0x21 ./drivers/fsl_lpuart.o
 *fill*         0x6000e8c5        0x3 ff
 .rodata.LPUART_ReadBlocking.str1.4
                0x6000e8c8       0x21 ./drivers/fsl_lpuart.o
 .rodata.CLOCK_ControlGate.str1.4
                0x6000e8e9       0x1e ./drivers/fsl_sai.o
 *fill*         0x6000e8e9        0x3 ff
 .rodata.s_saiBases
                0x6000e8ec       0x10 ./drivers/fsl_sai.o
 .rodata.s_saiClock
                0x6000e8fc        0x8 ./drivers/fsl_sai.o
 .rodata.SAI_GetInstance.str1.4
                0x6000e904       0x33 ./drivers/fsl_sai.o
 *fill*         0x6000e937        0x1 ff
 .rodata.SAI_GetCommonConfig.str1.4
                0x6000e938       0x46 ./drivers/fsl_sai.o
 *fill*         0x6000e97e        0x2 ff
 .rodata.SAI_TxSetBitClockRate.str1.4
                0x6000e980       0x30 ./drivers/fsl_sai.o
 .rodata.SAI_RxSetBitClockRate.str1.4
                0x6000e9b0       0x30 ./drivers/fsl_sai.o
 .rodata.SAI_TxSetBitclockConfig.str1.4
                0x6000e9e0       0x21 ./drivers/fsl_sai.o
 *fill*         0x6000ea01        0x3 ff
 .rodata.SAI_RxSetBitclockConfig.str1.4
                0x6000ea04       0x21 ./drivers/fsl_sai.o
 *fill*         0x6000ea25        0x3 ff
 .rodata.SAI_TxSetFifoConfig.str1.4
                0x6000ea28       0x79 ./drivers/fsl_sai.o
 *fill*         0x6000eaa1        0x3 ff
 .rodata.SAI_RxSetFifoConfig.str1.4
                0x6000eaa4       0x79 ./drivers/fsl_sai.o
 *fill*         0x6000eb1d        0x3 ff
 .rodata.SAI_TxSetFrameSyncConfig.str1.4
                0x6000eb20       0x83 ./drivers/fsl_sai.o
 *fill*         0x6000eba3        0x1 ff
 .rodata.SAI_RxSetFrameSyncConfig.str1.4
                0x6000eba4       0x83 ./drivers/fsl_sai.o
 *fill*         0x6000ec27        0x1 ff
 .rodata.SAI_TxSetSerialDataConfig.str1.4
                0x6000ec28       0x21 ./drivers/fsl_sai.o
 *fill*         0x6000ec49        0x3 ff
 .rodata.SAI_RxSetSerialDataConfig.str1.4
                0x6000ec4c       0x21 ./drivers/fsl_sai.o
 *fill*         0x6000ec6d        0x3 ff
 .rodata.SAI_TxSetConfig.str1.4
                0x6000ec70       0xaa ./drivers/fsl_sai.o
 *fill*         0x6000ed1a        0x2 ff
 .rodata.SAI_RxSetConfig.str1.4
                0x6000ed1c       0xaa ./drivers/fsl_sai.o
 *fill*         0x6000edc6        0x2 ff
 .rodata.SAI3_TX_DriverIRQHandler.str1.4
                0x6000edc8       0x24 ./drivers/fsl_sai.o
 .rodata.SAI3_RX_DriverIRQHandler.str1.4
                0x6000edec       0x24 ./drivers/fsl_sai.o
 .rodata.s_saiBases
                0x6000ee10       0x10 ./drivers/fsl_sai_edma.o
 .rodata.SAI_GetInstance.str1.4
                0x6000ee20       0x37 ./drivers/fsl_sai_edma.o
 *fill*         0x6000ee57        0x1 ff
 .rodata.SAI_TransferTxCreateHandleEDMA.str1.4
                0x6000ee58       0x2a ./drivers/fsl_sai_edma.o
 *fill*         0x6000ee82        0x2 ff
 .rodata.SAI_TransferRxCreateHandleEDMA.str1.4
                0x6000ee84       0x2a ./drivers/fsl_sai_edma.o
 *fill*         0x6000eeae        0x2 ff
 .rodata.SAI_TransferTxSetConfigEDMA.str1.4
                0x6000eeb0       0x2a ./drivers/fsl_sai_edma.o
 *fill*         0x6000eeda        0x2 ff
 .rodata.SAI_TransferRxSetConfigEDMA.str1.4
                0x6000eedc       0x2a ./drivers/fsl_sai_edma.o
 *fill*         0x6000ef06        0x2 ff
 .rodata.SAI_TransferReceiveEDMA.str1.4
                0x6000ef08       0x25 ./drivers/fsl_sai_edma.o
 *fill*         0x6000ef2d        0x3 ff
 .rodata.SAI_TransferAbortSendEDMA.str1.4
                0x6000ef30       0x1d ./drivers/fsl_sai_edma.o
 *fill*         0x6000ef4d        0x3 ff
 .rodata.SAI_TransferTerminateSendEDMA.str1.4
                0x6000ef50       0x1d ./drivers/fsl_sai_edma.o
 *fill*         0x6000ef6d        0x3 ff
 .rodata.s_LpuartAdapterBase
                0x6000ef70       0x14 ./component/uart/lpuart_adapter.o
 .rodata.HAL_UartInit.str1.4
                0x6000ef84       0xe2 ./component/uart/lpuart_adapter.o
 *fill*         0x6000f066        0x2 ff
 .rodata.HAL_UartReceiveBlocking.str1.4
                0x6000f068       0x5f ./component/uart/lpuart_adapter.o
 *fill*         0x6000f0c7        0x1 ff
 .rodata.HAL_UartSendBlocking.str1.4
                0x6000f0c8       0x5f ./component/uart/lpuart_adapter.o
 *fill*         0x6000f127        0x1 ff
 .rodata.SerialManager_Write.str1.4
                0x6000f128       0x83 ./component/serial_manager/serial_manager.o
 *fill*         0x6000f1ab        0x1 ff
 .rodata.SerialManager_Read.str1.4
                0x6000f1ac       0x83 ./component/serial_manager/serial_manager.o
 *fill*         0x6000f22f        0x1 ff
 .rodata.SerialManager_Init.str1.4
                0x6000f230       0x45 ./component/serial_manager/serial_manager.o
 *fill*         0x6000f275        0x3 ff
 .rodata.SerialManager_OpenWriteHandle.str1.4
                0x6000f278       0x4d ./component/serial_manager/serial_manager.o
 *fill*         0x6000f2c5        0x3 ff
 .rodata.SerialManager_OpenReadHandle.str1.4
                0x6000f2c8       0x4c ./component/serial_manager/serial_manager.o
 .rodata.Serial_UartInit.str1.4
                0x6000f314       0x4f ./component/serial_manager/serial_port_uart.o
 *fill*         0x6000f363        0x1 ff
 .rodata.Serial_UartWrite.str1.4
                0x6000f364       0x6d ./component/serial_manager/serial_port_uart.o
 *fill*         0x6000f3d1        0x3 ff
 .rodata.Serial_UartRead.str1.4
                0x6000f3d4       0x6d ./component/serial_manager/serial_port_uart.o
 *fill*         0x6000f441        0x3 ff
 .rodata.s_i2cBases
                0x6000f444        0xc ./component/i2c/lpi2c_adapter.o
 .rodata.HAL_I2cMasterInit.str1.4
                0x6000f450       0x3e ./component/i2c/lpi2c_adapter.o
 *fill*         0x6000f48e        0x2 ff
 .rodata.HAL_I2cMasterTransferBlocking.str1.4
                0x6000f490       0x3c ./component/i2c/lpi2c_adapter.o
 .rodata.s_wm8960_capability
                0x6000f4cc        0xc ./codec/fsl_codec_adapter.o
 .rodata.HAL_CODEC_Init.str1.4
                0x6000f4d8       0x3f ./codec/fsl_codec_adapter.o
 *fill*         0x6000f517        0x1 ff
 .rodata.CODEC_Init.str1.4
                0x6000f518       0x3e ./codec/fsl_codec_common.o
 *fill*         0x6000f556        0x2 ff
 .rodata.wm8960_reg
                0x6000f558       0x70 ./codec/fsl_wm8960.o
 .rodata.BOARD_ConfigMPU.str1.4
                0x6000f5c8       0x6a ./board/board.o
 .rodata.CLOCK_SetMux.str1.4
                0x6000f632       0x9b ./board/clock_config.o
 .rodata.CLOCK_SetDiv.str1.4
                0x6000f632       0x9b ./board/clock_config.o
 *fill*         0x6000f632        0x2 ff
 .rodata.CLOCK_ControlGate.str1.4
                0x6000f634       0x88 ./board/clock_config.o
 .rodata.sysPllConfig_BOARD_BootClockRUN
                0x6000f6bc       0x14 ./board/clock_config.o
                0x6000f6bc                sysPllConfig_BOARD_BootClockRUN
 .rodata.enetPllConfig_BOARD_BootClockRUN
                0x6000f6d0        0x5 ./board/clock_config.o
                0x6000f6d0                enetPllConfig_BOARD_BootClockRUN
 .rodata.CLOCK_ControlGate.str1.4
                0x6000f6d5       0x88 ./board/pin_mux.o
 *fill*         0x6000f6d5        0x3 ff
 .rodata.xTimerCreateTimerTask.str1.4
                0x6000f6d8        0x8 ./amazon-freertos/freertos/timers.o
 .rodata.prvCheckForValidListAndQueue.str1.4
                0x6000f6e0        0x5 ./amazon-freertos/freertos/timers.o
 *fill*         0x6000f6e5        0x3 ff
 .rodata.armBitRevTable
                0x6000f6e8      0x800 C:\Users\josel\Documents\MCUXpressoIDE_11.4.0_6237\workspace\MIMXRT1011_Project_NoteDetect_Project\libs\libarm_cortexM7lfsp_math.a(arm_common_tables.o)
                0x6000f6e8                armBitRevTable
 .rodata.twiddleCoef_4096
                0x6000fee8     0x8000 C:\Users\josel\Documents\MCUXpressoIDE_11.4.0_6237\workspace\MIMXRT1011_Project_NoteDetect_Project\libs\libarm_cortexM7lfsp_math.a(arm_common_tables.o)
                0x6000fee8                twiddleCoef_4096
 .rodata.__num_Ciob_streams
                0x60017ee8        0x4 c:/nxp/mcuxpressoide_11.4.0_6237/ide/plugins/com.nxp.mcuxpresso.tools.win32_11.4.0.202103011116/tools/bin/../lib/gcc/arm-none-eabi/10.2.1/../../../../arm-none-eabi/lib/thumb/v7e-m+fp/hard\libcr_nohost_nf.a(__ciob.o)
                0x60017ee8                __num_Ciob_streams
 .rodata.__assertion_failed.str1.1
                0x60017eec       0x15 c:/nxp/mcuxpressoide_11.4.0_6237/ide/plugins/com.nxp.mcuxpresso.tools.win32_11.4.0.202103011116/tools/bin/../lib/gcc/arm-none-eabi/10.2.1/../../../../arm-none-eabi/lib/thumb/v7e-m+fp/hard\libcr_nohost_nf.a(_cr_assert.o)
 .rodata._Csys_alloc.str1.1
                0x60017f01       0x18 c:/nxp/mcuxpressoide_11.4.0_6237/ide/plugins/com.nxp.mcuxpresso.tools.win32_11.4.0.202103011116/tools/bin/../lib/gcc/arm-none-eabi/10.2.1/../../../../arm-none-eabi/lib/thumb/v7e-m+fp/hard\libcr_c.a(alloc.o)
 .rodata._initio.str1.1
                0x60017f19        0x4 c:/nxp/mcuxpressoide_11.4.0_6237/ide/plugins/com.nxp.mcuxpresso.tools.win32_11.4.0.202103011116/tools/bin/../lib/gcc/arm-none-eabi/10.2.1/../../../../arm-none-eabi/lib/thumb/v7e-m+fp/hard\libcr_c.a(initio.o)
                0x60017f20                . = ALIGN (0x4)
 *fill*         0x60017f1d        0x3 ff

.glue_7         0x60017f20        0x0
 .glue_7        0x60017f20        0x0 linker stubs

.glue_7t        0x60017f20        0x0
 .glue_7t       0x60017f20        0x0 linker stubs

.vfp11_veneer   0x60017f20        0x0
 .vfp11_veneer  0x60017f20        0x0 linker stubs

.v4_bx          0x60017f20        0x0
 .v4_bx         0x60017f20        0x0 linker stubs

.iplt           0x60017f20        0x0
 .iplt          0x60017f20        0x0 ./xip/fsl_flexspi_nor_boot.o

.rel.dyn        0x60017f20        0x0
 .rel.iplt      0x60017f20        0x0 ./xip/fsl_flexspi_nor_boot.o

.ARM.extab
 *(SORT_BY_ALIGNMENT(.ARM.extab*) SORT_BY_ALIGNMENT(.gnu.linkonce.armextab.*))

.ARM.exidx      0x60017f20        0x0
                0x60017f20                __exidx_start = .
 *(SORT_BY_ALIGNMENT(.ARM.exidx*) SORT_BY_ALIGNMENT(.gnu.linkonce.armexidx.*))
                0x60017f20                __exidx_end = .
                0x60017f20                _etext = .

.data_RAM2      0x00000000        0x0 load address 0x60017f20
 FILL mask 0xff
                [!provide]                PROVIDE (__start_data_RAM2 = .)
                [!provide]                PROVIDE (__start_data_SRAM_ITC = .)
 *(SORT_BY_ALIGNMENT(.ramfunc.$RAM2))
 *(SORT_BY_ALIGNMENT(.ramfunc.$SRAM_ITC))
 *(SORT_BY_ALIGNMENT(.data.$RAM2))
 *(SORT_BY_ALIGNMENT(.data.$SRAM_ITC))
 *(SORT_BY_ALIGNMENT(.data.$RAM2.*))
 *(SORT_BY_ALIGNMENT(.data.$SRAM_ITC.*))
                0x00000000                . = ALIGN (0x4)
                [!provide]                PROVIDE (__end_data_RAM2 = .)
                [!provide]                PROVIDE (__end_data_SRAM_ITC = .)

.data_RAM3      0x20200000        0x0 load address 0x60017f20
 FILL mask 0xff
                [!provide]                PROVIDE (__start_data_RAM3 = .)
                [!provide]                PROVIDE (__start_data_SRAM_OC = .)
 *(SORT_BY_ALIGNMENT(.ramfunc.$RAM3))
 *(SORT_BY_ALIGNMENT(.ramfunc.$SRAM_OC))
 *(SORT_BY_ALIGNMENT(.data.$RAM3))
 *(SORT_BY_ALIGNMENT(.data.$SRAM_OC))
 *(SORT_BY_ALIGNMENT(.data.$RAM3.*))
 *(SORT_BY_ALIGNMENT(.data.$SRAM_OC.*))
                0x20200000                . = ALIGN (0x4)
                [!provide]                PROVIDE (__end_data_RAM3 = .)
                [!provide]                PROVIDE (__end_data_SRAM_OC = .)

.data_RAM4      0x20208000        0x0 load address 0x60017f20
 FILL mask 0xff
                [!provide]                PROVIDE (__start_data_RAM4 = .)
                [!provide]                PROVIDE (__start_data_NCACHE_REGION = .)
 *(SORT_BY_ALIGNMENT(.ramfunc.$RAM4))
 *(SORT_BY_ALIGNMENT(.ramfunc.$NCACHE_REGION))
 *(SORT_BY_ALIGNMENT(.data.$RAM4))
 *(SORT_BY_ALIGNMENT(.data.$NCACHE_REGION))
 *(SORT_BY_ALIGNMENT(.data.$RAM4.*))
 *(SORT_BY_ALIGNMENT(.data.$NCACHE_REGION.*))
                0x20208000                . = ALIGN (0x4)
                [!provide]                PROVIDE (__end_data_RAM4 = .)
                [!provide]                PROVIDE (__end_data_NCACHE_REGION = .)

.uninit_RESERVED
                0x20000000        0x0
                0x20000000                _start_uninit_RESERVED = .
 *(SORT_BY_ALIGNMENT(.bss.$RESERVED*))
                0x20000000                . = ALIGN (0x4)
                0x20000000                _end_uninit_RESERVED = .

.data           0x20000000       0x38 load address 0x60017f20
 FILL mask 0xff
                0x20000000                _data = .
                [!provide]                PROVIDE (__start_data_RAM = .)
                [!provide]                PROVIDE (__start_data_SRAM_DTC = .)
 *(SORT_BY_ALIGNMENT(vtable))
 *(SORT_BY_ALIGNMENT(.ramfunc*))
 *(SORT_BY_ALIGNMENT(CodeQuickAccess))
 *(SORT_BY_ALIGNMENT(DataQuickAccess))
 *(SORT_BY_ALIGNMENT(RamFunction))
 *(SORT_BY_ALIGNMENT(.data*))
 .data.wm8960Config
                0x20000000       0x20 ./source/NoteDetectApp.o
                0x20000000                wm8960Config
 .data.boardCodecConfig
                0x20000020        0x8 ./source/NoteDetectApp.o
                0x20000020                boardCodecConfig
 .data.emptyBlock
                0x20000028        0x4 ./source/NoteDetectApp.o
                0x20000028                emptyBlock
 .data.SystemCoreClock
                0x2000002c        0x4 ./device/system_MIMXRT1011.o
                0x2000002c                SystemCoreClock
 .data.uxCriticalNesting
                0x20000030        0x4 ./amazon-freertos/freertos/portable/port.o
 .data.ReceiveReady
                0x20000034        0x1 ./source/NoteDetectApp.o
                0x20000034                ReceiveReady
                0x20000038                . = ALIGN (0x4)
 *fill*         0x20000035        0x3 ff
                0x20000038                _edata = .
                [!provide]                PROVIDE (__end_data_RAM = .)
                [!provide]                PROVIDE (__end_data_SRAM_DTC = .)

.igot.plt       0x20000038        0x0 load address 0x60017f58
 .igot.plt      0x20000038        0x0 ./xip/fsl_flexspi_nor_boot.o

NonCacheable.init
                0x20000038      0x1d0 load address 0x60017f58
 NonCacheable.init
                0x20000038      0x1d0 ./source/NoteDetectApp.o
                0x20000038                txHandle
                0x20000120                rxHandle

.bss_RAM2       0x00000000        0x0
                [!provide]                PROVIDE (__start_bss_RAM2 = .)
                [!provide]                PROVIDE (__start_bss_SRAM_ITC = .)
 *(SORT_BY_ALIGNMENT(.bss.$RAM2))
 *(SORT_BY_ALIGNMENT(.bss.$SRAM_ITC))
 *(SORT_BY_ALIGNMENT(.bss.$RAM2.*))
 *(SORT_BY_ALIGNMENT(.bss.$SRAM_ITC.*))
                0x00000000                . = ALIGN ((. != 0x0)?0x4:0x1)
                [!provide]                PROVIDE (__end_bss_RAM2 = .)
                [!provide]                PROVIDE (__end_bss_SRAM_ITC = .)

.bss_RAM3       0x20200000        0x0
                [!provide]                PROVIDE (__start_bss_RAM3 = .)
                [!provide]                PROVIDE (__start_bss_SRAM_OC = .)
 *(SORT_BY_ALIGNMENT(.bss.$RAM3))
 *(SORT_BY_ALIGNMENT(.bss.$SRAM_OC))
 *(SORT_BY_ALIGNMENT(.bss.$RAM3.*))
 *(SORT_BY_ALIGNMENT(.bss.$SRAM_OC.*))
                0x20200000                . = ALIGN ((. != 0x0)?0x4:0x1)
                [!provide]                PROVIDE (__end_bss_RAM3 = .)
                [!provide]                PROVIDE (__end_bss_SRAM_OC = .)

.bss_RAM4       0x20208000        0x0
                [!provide]                PROVIDE (__start_bss_RAM4 = .)
                [!provide]                PROVIDE (__start_bss_NCACHE_REGION = .)
 *(SORT_BY_ALIGNMENT(.bss.$RAM4))
 *(SORT_BY_ALIGNMENT(.bss.$NCACHE_REGION))
 *(SORT_BY_ALIGNMENT(.bss.$RAM4.*))
 *(SORT_BY_ALIGNMENT(.bss.$NCACHE_REGION.*))
                0x20208000                . = ALIGN ((. != 0x0)?0x4:0x1)
                [!provide]                PROVIDE (__end_bss_RAM4 = .)
                [!provide]                PROVIDE (__end_bss_NCACHE_REGION = .)

.bss            0x20000208     0x32d0
                0x20000208                _bss = .
                [!provide]                PROVIDE (__start_bss_RAM = .)
                [!provide]                PROVIDE (__start_bss_SRAM_DTC = .)
 *(SORT_BY_ALIGNMENT(.bss*))
 .bss.s_debugConsoleState
                0x20000208       0x1c ./utilities/fsl_debug_console.o
 .bss.g_serialHandle
                0x20000224        0x4 ./utilities/fsl_debug_console.o
                0x20000224                g_serialHandle
 .bss.i.0       0x20000228        0x4 ./source/MIMXRT1011_Project_NoteDetect_Project.o
 .bss.xfer      0x2000022c        0x8 ./source/NoteDetectApp.o
                0x2000022c                xfer
 .bss.fft_ComplexBuffer
                0x20000234      0x400 ./source/NoteDetectApp.o
                0x20000234                fft_ComplexBuffer
 .bss.fft_ResultsBuffer
                0x20000634      0x200 ./source/NoteDetectApp.o
                0x20000634                fft_ResultsBuffer
 .bss.dmaTxHandle
                0x20000834       0x18 ./source/NoteDetectApp.o
                0x20000834                dmaTxHandle
 .bss.dmaRxHandle
                0x2000084c       0x18 ./source/NoteDetectApp.o
                0x2000084c                dmaRxHandle
 .bss.beginCount
                0x20000864        0x4 ./source/NoteDetectApp.o
                0x20000864                beginCount
 .bss.sendCount
                0x20000868        0x4 ./source/NoteDetectApp.o
                0x20000868                sendCount
 .bss.receiveCount
                0x2000086c        0x4 ./source/NoteDetectApp.o
                0x2000086c                receiveCount
 .bss.fullBlock
                0x20000870        0x4 ./source/NoteDetectApp.o
                0x20000870                fullBlock
 .bss.config    0x20000874       0x1c ./source/NoteDetectApp.o
                0x20000874                config
 .bss.codecHandle
                0x20000890       0x88 ./source/NoteDetectApp.o
                0x20000890                codecHandle
 .bss.TransferEventHandler
                0x20000918        0x4 ./source/NoteDetectApp.o
                0x20000918                TransferEventHandler
 .bss.g_xtalFreq
                0x2000091c        0x4 ./drivers/fsl_clock.o
                0x2000091c                g_xtalFreq
 .bss.g_rtcXtalFreq
                0x20000920        0x4 ./drivers/fsl_clock.o
                0x20000920                g_rtcXtalFreq
 .bss.s_EDMAHandle
                0x20000924       0x40 ./drivers/fsl_edma.o
 .bss.s_lpi2cMasterIsr
                0x20000964        0x4 ./drivers/fsl_lpi2c.o
 .bss.s_lpi2cMasterHandle
                0x20000968        0xc ./drivers/fsl_lpi2c.o
 .bss.s_lpi2cSlaveIsr
                0x20000974        0x4 ./drivers/fsl_lpi2c.o
 .bss.s_lpi2cSlaveHandle
                0x20000978        0xc ./drivers/fsl_lpi2c.o
 .bss.s_lpuartHandle
                0x20000984       0x14 ./drivers/fsl_lpuart.o
 .bss.s_lpuartIsr
                0x20000998        0x4 ./drivers/fsl_lpuart.o
 .bss.s_saiHandle
                0x2000099c       0x20 ./drivers/fsl_sai.o
 .bss.s_saiTxIsr
                0x200009bc        0x4 ./drivers/fsl_sai.o
 .bss.s_saiRxIsr
                0x200009c0        0x4 ./drivers/fsl_sai.o
 .bss.s_edmaPrivateHandle
                0x200009c4       0x40 ./drivers/fsl_sai_edma.o
 .bss.reg_cache
                0x20000a04       0x70 ./codec/fsl_wm8960.o
 .bss.ucHeap    0x20000a74     0x2800 ./amazon-freertos/freertos/portable/heap_4.o
 .bss.xStart    0x20003274        0x8 ./amazon-freertos/freertos/portable/heap_4.o
 .bss.pxEnd     0x2000327c        0x4 ./amazon-freertos/freertos/portable/heap_4.o
 .bss.xFreeBytesRemaining
                0x20003280        0x4 ./amazon-freertos/freertos/portable/heap_4.o
 .bss.xMinimumEverFreeBytesRemaining
                0x20003284        0x4 ./amazon-freertos/freertos/portable/heap_4.o
 .bss.xBlockAllocatedBit
                0x20003288        0x4 ./amazon-freertos/freertos/portable/heap_4.o
 .bss.ulMaxPRIGROUPValue
                0x2000328c        0x4 ./amazon-freertos/freertos/portable/port.o
 .bss.xQueueRegistry
                0x20003290       0x40 ./amazon-freertos/freertos/queue.o
                0x20003290                xQueueRegistry
 .bss.pxCurrentTCB
                0x200032d0        0x4 ./amazon-freertos/freertos/tasks.o
                0x200032d0                pxCurrentTCB
 .bss.pxReadyTasksLists
                0x200032d4       0x64 ./amazon-freertos/freertos/tasks.o
 .bss.xDelayedTaskList1
                0x20003338       0x14 ./amazon-freertos/freertos/tasks.o
 .bss.xDelayedTaskList2
                0x2000334c       0x14 ./amazon-freertos/freertos/tasks.o
 .bss.pxDelayedTaskList
                0x20003360        0x4 ./amazon-freertos/freertos/tasks.o
 .bss.pxOverflowDelayedTaskList
                0x20003364        0x4 ./amazon-freertos/freertos/tasks.o
 .bss.xPendingReadyList
                0x20003368       0x14 ./amazon-freertos/freertos/tasks.o
 .bss.xTasksWaitingTermination
                0x2000337c       0x14 ./amazon-freertos/freertos/tasks.o
 .bss.uxDeletedTasksWaitingCleanUp
                0x20003390        0x4 ./amazon-freertos/freertos/tasks.o
 .bss.xSuspendedTaskList
                0x20003394       0x14 ./amazon-freertos/freertos/tasks.o
 .bss.uxCurrentNumberOfTasks
                0x200033a8        0x4 ./amazon-freertos/freertos/tasks.o
 .bss.xTickCount
                0x200033ac        0x4 ./amazon-freertos/freertos/tasks.o
 .bss.uxTopReadyPriority
                0x200033b0        0x4 ./amazon-freertos/freertos/tasks.o
 .bss.xSchedulerRunning
                0x200033b4        0x4 ./amazon-freertos/freertos/tasks.o
 .bss.uxPendedTicks
                0x200033b8        0x4 ./amazon-freertos/freertos/tasks.o
 .bss.xYieldPending
                0x200033bc        0x4 ./amazon-freertos/freertos/tasks.o
 .bss.xNumOfOverflows
                0x200033c0        0x4 ./amazon-freertos/freertos/tasks.o
 .bss.uxTaskNumber
                0x200033c4        0x4 ./amazon-freertos/freertos/tasks.o
 .bss.xNextTaskUnblockTime
                0x200033c8        0x4 ./amazon-freertos/freertos/tasks.o
 .bss.xIdleTaskHandle
                0x200033cc        0x4 ./amazon-freertos/freertos/tasks.o
 .bss.uxSchedulerSuspended
                0x200033d0        0x4 ./amazon-freertos/freertos/tasks.o
 .bss.xActiveTimerList1
                0x200033d4       0x14 ./amazon-freertos/freertos/timers.o
 .bss.xActiveTimerList2
                0x200033e8       0x14 ./amazon-freertos/freertos/timers.o
 .bss.pxCurrentTimerList
                0x200033fc        0x4 ./amazon-freertos/freertos/timers.o
 .bss.pxOverflowTimerList
                0x20003400        0x4 ./amazon-freertos/freertos/timers.o
 .bss.xTimerQueue
                0x20003404        0x4 ./amazon-freertos/freertos/timers.o
 .bss.xTimerTaskHandle
                0x20003408        0x4 ./amazon-freertos/freertos/timers.o
 .bss.xLastTime.0
                0x2000340c        0x4 ./amazon-freertos/freertos/timers.o
 .bss.__Ciob    0x20003410       0xb4 c:/nxp/mcuxpressoide_11.4.0_6237/ide/plugins/com.nxp.mcuxpresso.tools.win32_11.4.0.202103011116/tools/bin/../lib/gcc/arm-none-eabi/10.2.1/../../../../arm-none-eabi/lib/thumb/v7e-m+fp/hard\libcr_nohost_nf.a(__ciob.o)
                0x20003410                __Ciob
 .bss.__end_of_heap
                0x200034c4        0x4 c:/nxp/mcuxpressoide_11.4.0_6237/ide/plugins/com.nxp.mcuxpresso.tools.win32_11.4.0.202103011116/tools/bin/../lib/gcc/arm-none-eabi/10.2.1/../../../../arm-none-eabi/lib/thumb/v7e-m+fp/hard\libcr_c.a(__init_alloc.o)
                0x200034c4                __end_of_heap
 .bss.__heaps   0x200034c8        0x4 c:/nxp/mcuxpressoide_11.4.0_6237/ide/plugins/com.nxp.mcuxpresso.tools.win32_11.4.0.202103011116/tools/bin/../lib/gcc/arm-none-eabi/10.2.1/../../../../arm-none-eabi/lib/thumb/v7e-m+fp/hard\libcr_c.a(__init_alloc.o)
                0x200034c8                __heaps
 .bss.errno     0x200034cc        0x4 c:/nxp/mcuxpressoide_11.4.0_6237/ide/plugins/com.nxp.mcuxpresso.tools.win32_11.4.0.202103011116/tools/bin/../lib/gcc/arm-none-eabi/10.2.1/../../../../arm-none-eabi/lib/thumb/v7e-m+fp/hard\libcr_c.a(errno.o)
                0x200034cc                errno
 .bss.rxindex   0x200034d0        0x1 ./source/NoteDetectApp.o
                0x200034d0                rxindex
 .bss.istxFinished
                0x200034d1        0x1 ./source/NoteDetectApp.o
                0x200034d1                istxFinished
 .bss.IsReadyForFft
                0x200034d2        0x1 ./source/NoteDetectApp.o
                0x200034d2                IsReadyForFft
 .bss.StartInstanceNum.0
                0x200034d3        0x1 ./drivers/fsl_edma.o
 .bss.ucMaxSysCallPriority
                0x200034d4        0x1 ./amazon-freertos/freertos/portable/port.o
 *(SORT_BY_ALIGNMENT(COMMON))
                0x200034d8                . = ALIGN (0x4)
 *fill*         0x200034d5        0x3 
                0x200034d8                _ebss = .
                [!provide]                PROVIDE (__end_bss_RAM = .)
                [!provide]                PROVIDE (__end_bss_SRAM_DTC = .)
                [!provide]                PROVIDE (end = .)

NonCacheable    0x200034d8      0x200
 NonCacheable   0x200034d8      0x200 ./source/NoteDetectApp.o
                0x200034d8                audioBuff

.noinit_RAM2    0x00000000        0x0
                [!provide]                PROVIDE (__start_noinit_RAM2 = .)
                [!provide]                PROVIDE (__start_noinit_SRAM_ITC = .)
 *(SORT_BY_ALIGNMENT(.noinit.$RAM2))
 *(SORT_BY_ALIGNMENT(.noinit.$SRAM_ITC))
 *(SORT_BY_ALIGNMENT(.noinit.$RAM2.*))
 *(SORT_BY_ALIGNMENT(.noinit.$SRAM_ITC.*))
                0x00000000                . = ALIGN (0x4)
                [!provide]                PROVIDE (__end_noinit_RAM2 = .)
                [!provide]                PROVIDE (__end_noinit_SRAM_ITC = .)

.noinit_RAM3    0x20200000        0x0
                [!provide]                PROVIDE (__start_noinit_RAM3 = .)
                [!provide]                PROVIDE (__start_noinit_SRAM_OC = .)
 *(SORT_BY_ALIGNMENT(.noinit.$RAM3))
 *(SORT_BY_ALIGNMENT(.noinit.$SRAM_OC))
 *(SORT_BY_ALIGNMENT(.noinit.$RAM3.*))
 *(SORT_BY_ALIGNMENT(.noinit.$SRAM_OC.*))
                0x20200000                . = ALIGN (0x4)
                [!provide]                PROVIDE (__end_noinit_RAM3 = .)
                [!provide]                PROVIDE (__end_noinit_SRAM_OC = .)

.noinit_RAM4    0x20208000        0x0
                [!provide]                PROVIDE (__start_noinit_RAM4 = .)
                [!provide]                PROVIDE (__start_noinit_NCACHE_REGION = .)
 *(SORT_BY_ALIGNMENT(.noinit.$RAM4))
 *(SORT_BY_ALIGNMENT(.noinit.$NCACHE_REGION))
 *(SORT_BY_ALIGNMENT(.noinit.$RAM4.*))
 *(SORT_BY_ALIGNMENT(.noinit.$NCACHE_REGION.*))
                0x20208000                . = ALIGN (0x4)
                [!provide]                PROVIDE (__end_noinit_RAM4 = .)
                [!provide]                PROVIDE (__end_noinit_NCACHE_REGION = .)

.noinit         0x200036d8        0x0
                0x200036d8                _noinit = .
                [!provide]                PROVIDE (__start_noinit_RAM = .)
                [!provide]                PROVIDE (__start_noinit_SRAM_DTC = .)
 *(SORT_BY_ALIGNMENT(.noinit*))
                0x200036d8                . = ALIGN (0x4)
                0x200036d8                _end_noinit = .
                [!provide]                PROVIDE (__end_noinit_RAM = .)
                [!provide]                PROVIDE (__end_noinit_SRAM_DTC = .)
                0x00000800                _HeapSize = 0x800

.heap           0x200036d8      0x800
                0x200036d8                _pvHeapStart = .
                0x20003ed8                . = (. + _HeapSize)
 *fill*         0x200036d8      0x800 
                0x20003ed8                . = ALIGN (0x4)
                0x20003ed8                _pvHeapLimit = .
                0x00000800                _StackSize = 0x800

.heap2stackfill
                0x20003ed8      0x800
                0x200046d8                . = (. + _StackSize)
 *fill*         0x20003ed8      0x800 

.stack          0x20007800        0x0
                0x20007800                _vStackBase = .
                0x20007800                . = ALIGN (0x4)
                0x20008000                _vStackTop = (. + _StackSize)
                0x60002000                _image_start = LOADADDR (.text)
                0x60017f58                _image_end = (LOADADDR (.data) + SIZEOF (.data))
                0x00015f58                _image_size = (_image_end - _image_start)
OUTPUT(MIMXRT1011_Project_NoteDetect_Project.axf elf32-littlearm)
LOAD linker stubs

.debug_info     0x00000000    0x2692e
 .debug_info    0x00000000      0x763 ./xip/evkmimxrt1010_flexspi_nor_config.o
 .debug_info    0x00000763      0x3e9 ./xip/fsl_flexspi_nor_boot.o
 .debug_info    0x00000b4c      0x9b4 ./utilities/fsl_debug_console.o
 .debug_info    0x00001500      0x4eb ./utilities/fsl_str.o
 .debug_info    0x000019eb      0x827 ./startup/startup_mimxrt1011.o
 .debug_info    0x00002212      0x345 ./source/Fourier.o
 .debug_info    0x00002557      0x802 ./source/MIMXRT1011_Project_NoteDetect_Project.o
 .debug_info    0x00002d59     0x232a ./source/NoteDetectApp.o
 .debug_info    0x00005083       0x3c ./source/semihost_hardfault.o
 .debug_info    0x000050bf     0x1a3d ./drivers/fsl_clock.o
 .debug_info    0x00006afc      0x8c1 ./drivers/fsl_dmamux.o
 .debug_info    0x000073bd     0x2285 ./drivers/fsl_edma.o
 .debug_info    0x00009642     0x28f1 ./drivers/fsl_lpi2c.o
 .debug_info    0x0000bf33     0x1dd7 ./drivers/fsl_lpuart.o
 .debug_info    0x0000dd0a     0x2f6d ./drivers/fsl_sai.o
 .debug_info    0x00010c77     0x197f ./drivers/fsl_sai_edma.o
 .debug_info    0x000125f6      0xc30 ./device/system_MIMXRT1011.o
 .debug_info    0x00013226      0x985 ./component/uart/lpuart_adapter.o
 .debug_info    0x00013bab      0x82d ./component/serial_manager/serial_manager.o
 .debug_info    0x000143d8      0x48b ./component/serial_manager/serial_port_uart.o
 .debug_info    0x00014863     0x15d5 ./component/i2c/lpi2c_adapter.o
 .debug_info    0x00015e38      0xbc4 ./codec/fsl_codec_adapter.o
 .debug_info    0x000169fc      0x5eb ./codec/fsl_codec_common.o
 .debug_info    0x00016fe7      0x37e ./codec/fsl_codec_i2c.o
 .debug_info    0x00017365      0xc46 ./codec/fsl_wm8960.o
 .debug_info    0x00017fab     0x10f7 ./board/board.o
 .debug_info    0x000190a2     0x1452 ./board/clock_config.o
 .debug_info    0x0001a4f4      0x65a ./board/pin_mux.o
 .debug_info    0x0001ab4e      0x3ae ./amazon-freertos/freertos/portable/heap_4.o
 .debug_info    0x0001aefc      0x4ba ./amazon-freertos/freertos/portable/port.o
 .debug_info    0x0001b3b6      0x9ab ./amazon-freertos/freertos/event_groups.o
 .debug_info    0x0001bd61      0x2be ./amazon-freertos/freertos/list.o
 .debug_info    0x0001c01f     0x1685 ./amazon-freertos/freertos/queue.o
 .debug_info    0x0001d6a4     0x1f59 ./amazon-freertos/freertos/tasks.o
 .debug_info    0x0001f5fd      0xe0c ./amazon-freertos/freertos/timers.o
 .debug_info    0x00020409      0xb3c C:\Users\josel\Documents\MCUXpressoIDE_11.4.0_6237\workspace\MIMXRT1011_Project_NoteDetect_Project\libs\libarm_cortexM7lfsp_math.a(arm_max_f32.o)
 .debug_info    0x00020f45     0x13aa C:\Users\josel\Documents\MCUXpressoIDE_11.4.0_6237\workspace\MIMXRT1011_Project_NoteDetect_Project\libs\libarm_cortexM7lfsp_math.a(arm_cfft_radix2_init_f32.o)
 .debug_info    0x000222ef      0xf52 C:\Users\josel\Documents\MCUXpressoIDE_11.4.0_6237\workspace\MIMXRT1011_Project_NoteDetect_Project\libs\libarm_cortexM7lfsp_math.a(arm_cfft_radix2_f32.o)
 .debug_info    0x00023241     0x14ae C:\Users\josel\Documents\MCUXpressoIDE_11.4.0_6237\workspace\MIMXRT1011_Project_NoteDetect_Project\libs\libarm_cortexM7lfsp_math.a(arm_bitreversal.o)
 .debug_info    0x000246ef      0xcba C:\Users\josel\Documents\MCUXpressoIDE_11.4.0_6237\workspace\MIMXRT1011_Project_NoteDetect_Project\libs\libarm_cortexM7lfsp_math.a(arm_cmplx_mag_f32.o)
 .debug_info    0x000253a9     0x1585 C:\Users\josel\Documents\MCUXpressoIDE_11.4.0_6237\workspace\MIMXRT1011_Project_NoteDetect_Project\libs\libarm_cortexM7lfsp_math.a(arm_common_tables.o)

.debug_abbrev   0x00000000     0x523a
 .debug_abbrev  0x00000000      0x10a ./xip/evkmimxrt1010_flexspi_nor_config.o
 .debug_abbrev  0x0000010a       0xd3 ./xip/fsl_flexspi_nor_boot.o
 .debug_abbrev  0x000001dd      0x1ec ./utilities/fsl_debug_console.o
 .debug_abbrev  0x000003c9      0x17a ./utilities/fsl_str.o
 .debug_abbrev  0x00000543      0x152 ./startup/startup_mimxrt1011.o
 .debug_abbrev  0x00000695       0xf1 ./source/Fourier.o
 .debug_abbrev  0x00000786      0x1ac ./source/MIMXRT1011_Project_NoteDetect_Project.o
 .debug_abbrev  0x00000932      0x2d6 ./source/NoteDetectApp.o
 .debug_abbrev  0x00000c08       0x31 ./source/semihost_hardfault.o
 .debug_abbrev  0x00000c39      0x359 ./drivers/fsl_clock.o
 .debug_abbrev  0x00000f92      0x191 ./drivers/fsl_dmamux.o
 .debug_abbrev  0x00001123      0x3e5 ./drivers/fsl_edma.o
 .debug_abbrev  0x00001508      0x32b ./drivers/fsl_lpi2c.o
 .debug_abbrev  0x00001833      0x332 ./drivers/fsl_lpuart.o
 .debug_abbrev  0x00001b65      0x307 ./drivers/fsl_sai.o
 .debug_abbrev  0x00001e6c      0x2b9 ./drivers/fsl_sai_edma.o
 .debug_abbrev  0x00002125      0x19b ./device/system_MIMXRT1011.o
 .debug_abbrev  0x000022c0      0x191 ./component/uart/lpuart_adapter.o
 .debug_abbrev  0x00002451      0x205 ./component/serial_manager/serial_manager.o
 .debug_abbrev  0x00002656      0x127 ./component/serial_manager/serial_port_uart.o
 .debug_abbrev  0x0000277d      0x263 ./component/i2c/lpi2c_adapter.o
 .debug_abbrev  0x000029e0      0x187 ./codec/fsl_codec_adapter.o
 .debug_abbrev  0x00002b67      0x10a ./codec/fsl_codec_common.o
 .debug_abbrev  0x00002c71       0xef ./codec/fsl_codec_i2c.o
 .debug_abbrev  0x00002d60      0x21a ./codec/fsl_wm8960.o
 .debug_abbrev  0x00002f7a      0x2a9 ./board/board.o
 .debug_abbrev  0x00003223      0x1f9 ./board/clock_config.o
 .debug_abbrev  0x0000341c      0x156 ./board/pin_mux.o
 .debug_abbrev  0x00003572      0x1d7 ./amazon-freertos/freertos/portable/heap_4.o
 .debug_abbrev  0x00003749      0x231 ./amazon-freertos/freertos/portable/port.o
 .debug_abbrev  0x0000397a      0x22a ./amazon-freertos/freertos/event_groups.o
 .debug_abbrev  0x00003ba4       0xf2 ./amazon-freertos/freertos/list.o
 .debug_abbrev  0x00003c96      0x2a7 ./amazon-freertos/freertos/queue.o
 .debug_abbrev  0x00003f3d      0x2d9 ./amazon-freertos/freertos/tasks.o
 .debug_abbrev  0x00004216      0x24b ./amazon-freertos/freertos/timers.o
 .debug_abbrev  0x00004461      0x212 C:\Users\josel\Documents\MCUXpressoIDE_11.4.0_6237\workspace\MIMXRT1011_Project_NoteDetect_Project\libs\libarm_cortexM7lfsp_math.a(arm_max_f32.o)
 .debug_abbrev  0x00004673      0x232 C:\Users\josel\Documents\MCUXpressoIDE_11.4.0_6237\workspace\MIMXRT1011_Project_NoteDetect_Project\libs\libarm_cortexM7lfsp_math.a(arm_cfft_radix2_init_f32.o)
 .debug_abbrev  0x000048a5      0x2e8 C:\Users\josel\Documents\MCUXpressoIDE_11.4.0_6237\workspace\MIMXRT1011_Project_NoteDetect_Project\libs\libarm_cortexM7lfsp_math.a(arm_cfft_radix2_f32.o)
 .debug_abbrev  0x00004b8d      0x248 C:\Users\josel\Documents\MCUXpressoIDE_11.4.0_6237\workspace\MIMXRT1011_Project_NoteDetect_Project\libs\libarm_cortexM7lfsp_math.a(arm_bitreversal.o)
 .debug_abbrev  0x00004dd5      0x288 C:\Users\josel\Documents\MCUXpressoIDE_11.4.0_6237\workspace\MIMXRT1011_Project_NoteDetect_Project\libs\libarm_cortexM7lfsp_math.a(arm_cmplx_mag_f32.o)
 .debug_abbrev  0x0000505d      0x1dd C:\Users\josel\Documents\MCUXpressoIDE_11.4.0_6237\workspace\MIMXRT1011_Project_NoteDetect_Project\libs\libarm_cortexM7lfsp_math.a(arm_common_tables.o)

.debug_aranges  0x00000000     0x19c0
 .debug_aranges
                0x00000000       0x18 ./xip/evkmimxrt1010_flexspi_nor_config.o
 .debug_aranges
                0x00000018       0x18 ./xip/fsl_flexspi_nor_boot.o
 .debug_aranges
                0x00000030       0x80 ./utilities/fsl_debug_console.o
 .debug_aranges
                0x000000b0       0x38 ./utilities/fsl_str.o
 .debug_aranges
                0x000000e8      0x2e0 ./startup/startup_mimxrt1011.o
 .debug_aranges
                0x000003c8       0x20 ./source/Fourier.o
 .debug_aranges
                0x000003e8       0x30 ./source/MIMXRT1011_Project_NoteDetect_Project.o
 .debug_aranges
                0x00000418       0x88 ./source/NoteDetectApp.o
 .debug_aranges
                0x000004a0       0x20 ./source/semihost_hardfault.o
 .debug_aranges
                0x000004c0      0x120 ./drivers/fsl_clock.o
 .debug_aranges
                0x000005e0       0x48 ./drivers/fsl_dmamux.o
 .debug_aranges
                0x00000628      0x1e0 ./drivers/fsl_edma.o
 .debug_aranges
                0x00000808      0x1d0 ./drivers/fsl_lpi2c.o
 .debug_aranges
                0x000009d8      0x140 ./drivers/fsl_lpuart.o
 .debug_aranges
                0x00000b18      0x2a8 ./drivers/fsl_sai.o
 .debug_aranges
                0x00000dc0       0xc0 ./drivers/fsl_sai_edma.o
 .debug_aranges
                0x00000e80       0x30 ./device/system_MIMXRT1011.o
 .debug_aranges
                0x00000eb0       0x40 ./component/uart/lpuart_adapter.o
 .debug_aranges
                0x00000ef0       0x98 ./component/serial_manager/serial_manager.o
 .debug_aranges
                0x00000f88       0x38 ./component/serial_manager/serial_port_uart.o
 .debug_aranges
                0x00000fc0       0xb8 ./component/i2c/lpi2c_adapter.o
 .debug_aranges
                0x00001078       0x68 ./codec/fsl_codec_adapter.o
 .debug_aranges
                0x000010e0       0x68 ./codec/fsl_codec_common.o
 .debug_aranges
                0x00001148       0x38 ./codec/fsl_codec_i2c.o
 .debug_aranges
                0x00001180       0xa0 ./codec/fsl_wm8960.o
 .debug_aranges
                0x00001220       0x60 ./board/board.o
 .debug_aranges
                0x00001280       0x70 ./board/clock_config.o
 .debug_aranges
                0x000012f0       0x58 ./board/pin_mux.o
 .debug_aranges
                0x00001348       0x50 ./amazon-freertos/freertos/portable/heap_4.o
 .debug_aranges
                0x00001398       0x80 ./amazon-freertos/freertos/portable/port.o
 .debug_aranges
                0x00001418       0x88 ./amazon-freertos/freertos/event_groups.o
 .debug_aranges
                0x000014a0       0x40 ./amazon-freertos/freertos/list.o
 .debug_aranges
                0x000014e0      0x130 ./amazon-freertos/freertos/queue.o
 .debug_aranges
                0x00001610      0x1f8 ./amazon-freertos/freertos/tasks.o
 .debug_aranges
                0x00001808       0xe0 ./amazon-freertos/freertos/timers.o
 .debug_aranges
                0x000018e8       0x20 C:\Users\josel\Documents\MCUXpressoIDE_11.4.0_6237\workspace\MIMXRT1011_Project_NoteDetect_Project\libs\libarm_cortexM7lfsp_math.a(arm_max_f32.o)
 .debug_aranges
                0x00001908       0x20 C:\Users\josel\Documents\MCUXpressoIDE_11.4.0_6237\workspace\MIMXRT1011_Project_NoteDetect_Project\libs\libarm_cortexM7lfsp_math.a(arm_cfft_radix2_init_f32.o)
 .debug_aranges
                0x00001928       0x30 C:\Users\josel\Documents\MCUXpressoIDE_11.4.0_6237\workspace\MIMXRT1011_Project_NoteDetect_Project\libs\libarm_cortexM7lfsp_math.a(arm_cfft_radix2_f32.o)
 .debug_aranges
                0x00001958       0x30 C:\Users\josel\Documents\MCUXpressoIDE_11.4.0_6237\workspace\MIMXRT1011_Project_NoteDetect_Project\libs\libarm_cortexM7lfsp_math.a(arm_bitreversal.o)
 .debug_aranges
                0x00001988       0x20 C:\Users\josel\Documents\MCUXpressoIDE_11.4.0_6237\workspace\MIMXRT1011_Project_NoteDetect_Project\libs\libarm_cortexM7lfsp_math.a(arm_cmplx_mag_f32.o)
 .debug_aranges
                0x000019a8       0x18 C:\Users\josel\Documents\MCUXpressoIDE_11.4.0_6237\workspace\MIMXRT1011_Project_NoteDetect_Project\libs\libarm_cortexM7lfsp_math.a(arm_common_tables.o)

.debug_macro    0x00000000    0x212a2
 .debug_macro   0x00000000      0x118 ./xip/evkmimxrt1010_flexspi_nor_config.o
 .debug_macro   0x00000118      0xac6 ./xip/evkmimxrt1010_flexspi_nor_config.o
 .debug_macro   0x00000bde       0x10 ./xip/evkmimxrt1010_flexspi_nor_config.o
 .debug_macro   0x00000bee      0x12e ./xip/evkmimxrt1010_flexspi_nor_config.o
 .debug_macro   0x00000d1c      0x5b3 ./xip/evkmimxrt1010_flexspi_nor_config.o
 .debug_macro   0x000012cf       0x22 ./xip/evkmimxrt1010_flexspi_nor_config.o
 .debug_macro   0x000012f1       0x16 ./xip/evkmimxrt1010_flexspi_nor_config.o
 .debug_macro   0x00001307       0x22 ./xip/evkmimxrt1010_flexspi_nor_config.o
 .debug_macro   0x00001329       0x10 ./xip/evkmimxrt1010_flexspi_nor_config.o
 .debug_macro   0x00001339       0x4d ./xip/evkmimxrt1010_flexspi_nor_config.o
 .debug_macro   0x00001386       0x1c ./xip/evkmimxrt1010_flexspi_nor_config.o
 .debug_macro   0x000013a2       0x22 ./xip/evkmimxrt1010_flexspi_nor_config.o
 .debug_macro   0x000013c4       0xd2 ./xip/evkmimxrt1010_flexspi_nor_config.o
 .debug_macro   0x00001496     0x1305 ./xip/evkmimxrt1010_flexspi_nor_config.o
 .debug_macro   0x0000279b      0x11f ./xip/evkmimxrt1010_flexspi_nor_config.o
 .debug_macro   0x000028ba       0x20 ./xip/evkmimxrt1010_flexspi_nor_config.o
 .debug_macro   0x000028da       0x1c ./xip/evkmimxrt1010_flexspi_nor_config.o
 .debug_macro   0x000028f6    0x194f4 ./xip/evkmimxrt1010_flexspi_nor_config.o
 .debug_macro   0x0001bdea      0x54e ./xip/evkmimxrt1010_flexspi_nor_config.o
 .debug_macro   0x0001c338       0xd7 ./xip/evkmimxrt1010_flexspi_nor_config.o
 .debug_macro   0x0001c40f      0x193 ./xip/evkmimxrt1010_flexspi_nor_config.o
 .debug_macro   0x0001c5a2      0x1a4 ./xip/evkmimxrt1010_flexspi_nor_config.o
 .debug_macro   0x0001c746      0x13f ./xip/fsl_flexspi_nor_boot.o
 .debug_macro   0x0001c885       0xca ./xip/fsl_flexspi_nor_boot.o
 .debug_macro   0x0001c94f       0x10 ./xip/fsl_flexspi_nor_boot.o
 .debug_macro   0x0001c95f      0x136 ./xip/fsl_flexspi_nor_boot.o
 .debug_macro   0x0001ca95       0x7c ./xip/fsl_flexspi_nor_boot.o
 .debug_macro   0x0001cb11      0x215 ./utilities/fsl_debug_console.o
 .debug_macro   0x0001cd26       0x16 ./utilities/fsl_debug_console.o
 .debug_macro   0x0001cd3c       0x10 ./utilities/fsl_debug_console.o
 .debug_macro   0x0001cd4c       0x28 ./utilities/fsl_debug_console.o
 .debug_macro   0x0001cd74      0x189 ./utilities/fsl_debug_console.o
 .debug_macro   0x0001cefd      0x15a ./utilities/fsl_debug_console.o
 .debug_macro   0x0001d057       0xdd ./utilities/fsl_debug_console.o
 .debug_macro   0x0001d134       0x1c ./utilities/fsl_debug_console.o
 .debug_macro   0x0001d150       0x26 ./utilities/fsl_debug_console.o
 .debug_macro   0x0001d176      0x433 ./utilities/fsl_debug_console.o
 .debug_macro   0x0001d5a9       0xb5 ./utilities/fsl_debug_console.o
 .debug_macro   0x0001d65e       0xc8 ./utilities/fsl_debug_console.o
 .debug_macro   0x0001d726       0x80 ./utilities/fsl_debug_console.o
 .debug_macro   0x0001d7a6       0x7e ./utilities/fsl_debug_console.o
 .debug_macro   0x0001d824       0x56 ./utilities/fsl_debug_console.o
 .debug_macro   0x0001d87a       0x34 ./utilities/fsl_debug_console.o
 .debug_macro   0x0001d8ae       0x10 ./utilities/fsl_debug_console.o
 .debug_macro   0x0001d8be       0x32 ./utilities/fsl_debug_console.o
 .debug_macro   0x0001d8f0       0x34 ./utilities/fsl_debug_console.o
 .debug_macro   0x0001d924      0x122 ./utilities/fsl_str.o
 .debug_macro   0x0001da46       0xc4 ./utilities/fsl_str.o
 .debug_macro   0x0001db0a       0x1c ./utilities/fsl_str.o
 .debug_macro   0x0001db26       0x29 ./startup/startup_mimxrt1011.o
 .debug_macro   0x0001db4f       0x89 ./source/Fourier.o
 .debug_macro   0x0001dbd8       0xc4 ./source/Fourier.o
 .debug_macro   0x0001dc9c       0xc8 ./source/Fourier.o
 .debug_macro   0x0001dd64      0x247 ./source/MIMXRT1011_Project_NoteDetect_Project.o
 .debug_macro   0x0001dfab       0xd8 ./source/MIMXRT1011_Project_NoteDetect_Project.o
 .debug_macro   0x0001e083       0xa6 ./source/MIMXRT1011_Project_NoteDetect_Project.o
 .debug_macro   0x0001e129       0x2e ./source/MIMXRT1011_Project_NoteDetect_Project.o
 .debug_macro   0x0001e157      0x189 ./source/MIMXRT1011_Project_NoteDetect_Project.o
 .debug_macro   0x0001e2e0       0x16 ./source/MIMXRT1011_Project_NoteDetect_Project.o
 .debug_macro   0x0001e2f6      0x335 ./source/MIMXRT1011_Project_NoteDetect_Project.o
 .debug_macro   0x0001e62b       0x1c ./source/MIMXRT1011_Project_NoteDetect_Project.o
 .debug_macro   0x0001e647       0x8e ./source/MIMXRT1011_Project_NoteDetect_Project.o
 .debug_macro   0x0001e6d5       0x34 ./source/MIMXRT1011_Project_NoteDetect_Project.o
 .debug_macro   0x0001e709      0x2ab ./source/NoteDetectApp.o
 .debug_macro   0x0001e9b4       0x1c ./source/NoteDetectApp.o
 .debug_macro   0x0001e9d0       0xd0 ./source/NoteDetectApp.o
 .debug_macro   0x0001eaa0       0x10 ./source/NoteDetectApp.o
 .debug_macro   0x0001eab0       0x16 ./source/NoteDetectApp.o
 .debug_macro   0x0001eac6       0x17 ./source/NoteDetectApp.o
 .debug_macro   0x0001eadd       0x91 ./source/NoteDetectApp.o
 .debug_macro   0x0001eb6e       0x11 ./source/semihost_hardfault.o
 .debug_macro   0x0001eb7f      0x103 ./drivers/fsl_clock.o
 .debug_macro   0x0001ec82      0x113 ./drivers/fsl_dmamux.o
 .debug_macro   0x0001ed95      0x118 ./drivers/fsl_edma.o
 .debug_macro   0x0001eead       0x10 ./drivers/fsl_edma.o
 .debug_macro   0x0001eebd      0x125 ./drivers/fsl_lpi2c.o
 .debug_macro   0x0001efe2       0x16 ./drivers/fsl_lpi2c.o
 .debug_macro   0x0001eff8       0x1c ./drivers/fsl_lpi2c.o
 .debug_macro   0x0001f014       0x10 ./drivers/fsl_lpi2c.o
 .debug_macro   0x0001f024      0x113 ./drivers/fsl_lpuart.o
 .debug_macro   0x0001f137      0x112 ./drivers/fsl_sai.o
 .debug_macro   0x0001f249       0x11 ./drivers/fsl_sai.o
 .debug_macro   0x0001f25a      0x131 ./drivers/fsl_sai_edma.o
 .debug_macro   0x0001f38b       0xa7 ./device/system_MIMXRT1011.o
 .debug_macro   0x0001f432      0x175 ./component/uart/lpuart_adapter.o
 .debug_macro   0x0001f5a7       0x10 ./component/uart/lpuart_adapter.o
 .debug_macro   0x0001f5b7       0x1c ./component/uart/lpuart_adapter.o
 .debug_macro   0x0001f5d3      0x136 ./component/serial_manager/serial_manager.o
 .debug_macro   0x0001f709      0x18d ./component/serial_manager/serial_port_uart.o
 .debug_macro   0x0001f896       0x1c ./component/serial_manager/serial_port_uart.o
 .debug_macro   0x0001f8b2      0x129 ./component/i2c/lpi2c_adapter.o
 .debug_macro   0x0001f9db      0x156 ./codec/fsl_codec_adapter.o
 .debug_macro   0x0001fb31      0x12e ./codec/fsl_codec_common.o
 .debug_macro   0x0001fc5f       0x16 ./codec/fsl_codec_common.o
 .debug_macro   0x0001fc75      0x116 ./codec/fsl_codec_i2c.o
 .debug_macro   0x0001fd8b      0x125 ./codec/fsl_wm8960.o
 .debug_macro   0x0001feb0      0x14d ./board/board.o
 .debug_macro   0x0001fffd      0x7fd ./board/board.o
 .debug_macro   0x000207fa      0x115 ./board/clock_config.o
 .debug_macro   0x0002090f      0x10f ./board/pin_mux.o
 .debug_macro   0x00020a1e       0xdf ./amazon-freertos/freertos/portable/heap_4.o
 .debug_macro   0x00020afd      0x179 ./amazon-freertos/freertos/portable/port.o
 .debug_macro   0x00020c76      0x113 ./amazon-freertos/freertos/event_groups.o
 .debug_macro   0x00020d89       0xb8 ./amazon-freertos/freertos/list.o
 .debug_macro   0x00020e41      0x125 ./amazon-freertos/freertos/queue.o
 .debug_macro   0x00020f66      0x188 ./amazon-freertos/freertos/tasks.o
 .debug_macro   0x000210ee       0x10 ./amazon-freertos/freertos/tasks.o
 .debug_macro   0x000210fe      0x10d ./amazon-freertos/freertos/timers.o
 .debug_macro   0x0002120b       0x97 ./amazon-freertos/freertos/timers.o

.debug_line     0x00000000    0x170a7
 .debug_line    0x00000000      0x3db ./xip/evkmimxrt1010_flexspi_nor_config.o
 .debug_line    0x000003db      0x457 ./xip/fsl_flexspi_nor_boot.o
 .debug_line    0x00000832      0x9e2 ./utilities/fsl_debug_console.o
 .debug_line    0x00001214      0xa76 ./utilities/fsl_str.o
 .debug_line    0x00001c8a      0x880 ./startup/startup_mimxrt1011.o
 .debug_line    0x0000250a      0x33a ./source/Fourier.o
 .debug_line    0x00002844      0xa03 ./source/MIMXRT1011_Project_NoteDetect_Project.o
 .debug_line    0x00003247      0xc0c ./source/NoteDetectApp.o
 .debug_line    0x00003e53       0x59 ./source/semihost_hardfault.o
 .debug_line    0x00003eac      0xb9f ./drivers/fsl_clock.o
 .debug_line    0x00004a4b      0x43b ./drivers/fsl_dmamux.o
 .debug_line    0x00004e86     0x1228 ./drivers/fsl_edma.o
 .debug_line    0x000060ae     0x1517 ./drivers/fsl_lpi2c.o
 .debug_line    0x000075c5     0x116d ./drivers/fsl_lpuart.o
 .debug_line    0x00008732     0x1e82 ./drivers/fsl_sai.o
 .debug_line    0x0000a5b4      0x98f ./drivers/fsl_sai_edma.o
 .debug_line    0x0000af43      0x4e7 ./device/system_MIMXRT1011.o
 .debug_line    0x0000b42a      0x707 ./component/uart/lpuart_adapter.o
 .debug_line    0x0000bb31      0x791 ./component/serial_manager/serial_manager.o
 .debug_line    0x0000c2c2      0x774 ./component/serial_manager/serial_port_uart.o
 .debug_line    0x0000ca36      0x7d8 ./component/i2c/lpi2c_adapter.o
 .debug_line    0x0000d20e      0x6a6 ./codec/fsl_codec_adapter.o
 .debug_line    0x0000d8b4      0x608 ./codec/fsl_codec_common.o
 .debug_line    0x0000debc      0x4a7 ./codec/fsl_codec_i2c.o
 .debug_line    0x0000e363      0x8ce ./codec/fsl_wm8960.o
 .debug_line    0x0000ec31      0x8b9 ./board/board.o
 .debug_line    0x0000f4ea      0x6bd ./board/clock_config.o
 .debug_line    0x0000fba7      0x4e9 ./board/pin_mux.o
 .debug_line    0x00010090      0x64b ./amazon-freertos/freertos/portable/heap_4.o
 .debug_line    0x000106db      0x6a3 ./amazon-freertos/freertos/portable/port.o
 .debug_line    0x00010d7e      0x82b ./amazon-freertos/freertos/event_groups.o
 .debug_line    0x000115a9      0x491 ./amazon-freertos/freertos/list.o
 .debug_line    0x00011a3a     0x127e ./amazon-freertos/freertos/queue.o
 .debug_line    0x00012cb8     0x1913 ./amazon-freertos/freertos/tasks.o
 .debug_line    0x000145cb      0xa39 ./amazon-freertos/freertos/timers.o
 .debug_line    0x00015004      0x37a C:\Users\josel\Documents\MCUXpressoIDE_11.4.0_6237\workspace\MIMXRT1011_Project_NoteDetect_Project\libs\libarm_cortexM7lfsp_math.a(arm_max_f32.o)
 .debug_line    0x0001537e      0x414 C:\Users\josel\Documents\MCUXpressoIDE_11.4.0_6237\workspace\MIMXRT1011_Project_NoteDetect_Project\libs\libarm_cortexM7lfsp_math.a(arm_cfft_radix2_init_f32.o)
 .debug_line    0x00015792      0x9a9 C:\Users\josel\Documents\MCUXpressoIDE_11.4.0_6237\workspace\MIMXRT1011_Project_NoteDetect_Project\libs\libarm_cortexM7lfsp_math.a(arm_cfft_radix2_f32.o)
 .debug_line    0x0001613b      0x7fc C:\Users\josel\Documents\MCUXpressoIDE_11.4.0_6237\workspace\MIMXRT1011_Project_NoteDetect_Project\libs\libarm_cortexM7lfsp_math.a(arm_bitreversal.o)
 .debug_line    0x00016937      0x52d C:\Users\josel\Documents\MCUXpressoIDE_11.4.0_6237\workspace\MIMXRT1011_Project_NoteDetect_Project\libs\libarm_cortexM7lfsp_math.a(arm_cmplx_mag_f32.o)
 .debug_line    0x00016e64      0x243 C:\Users\josel\Documents\MCUXpressoIDE_11.4.0_6237\workspace\MIMXRT1011_Project_NoteDetect_Project\libs\libarm_cortexM7lfsp_math.a(arm_common_tables.o)

.debug_str      0x00000000   0x1021fd
 .debug_str     0x00000000    0xe4c92 ./xip/evkmimxrt1010_flexspi_nor_config.o
                              0xe4d43 (size before relaxing)
 .debug_str     0x000e4c92     0x1274 ./xip/fsl_flexspi_nor_boot.o
                              0xe52c5 (size before relaxing)
 .debug_str     0x000e5f06     0x5989 ./utilities/fsl_debug_console.o
                              0xe9a73 (size before relaxing)
 .debug_str     0x000eb88f      0x6b7 ./utilities/fsl_str.o
                              0xe41ab (size before relaxing)
 .debug_str     0x000ebf46      0x754 ./startup/startup_mimxrt1011.o
                               0x3603 (size before relaxing)
 .debug_str     0x000ec69a      0x721 ./source/Fourier.o
                               0x593d (size before relaxing)
 .debug_str     0x000ecdbb     0x1f3f ./source/MIMXRT1011_Project_NoteDetect_Project.o
                              0xeb008 (size before relaxing)
 .debug_str     0x000eecfa     0x29d3 ./source/NoteDetectApp.o
                              0xedf6b (size before relaxing)
 .debug_str     0x000f16cd       0x1f ./source/semihost_hardfault.o
                               0x2e42 (size before relaxing)
 .debug_str     0x000f16ec      0xb44 ./drivers/fsl_clock.o
                              0xe4eed (size before relaxing)
 .debug_str     0x000f2230      0x495 ./drivers/fsl_dmamux.o
                              0xe461a (size before relaxing)
 .debug_str     0x000f26c5      0xdda ./drivers/fsl_edma.o
                              0xe5c38 (size before relaxing)
 .debug_str     0x000f349f     0x15ff ./drivers/fsl_lpi2c.o
                              0xe628f (size before relaxing)
 .debug_str     0x000f4a9e      0xfe9 ./drivers/fsl_lpuart.o
                              0xe5c01 (size before relaxing)
 .debug_str     0x000f5a87      0xa8f ./drivers/fsl_sai.o
                              0xe5e55 (size before relaxing)
 .debug_str     0x000f6516      0x35c ./drivers/fsl_sai_edma.o
                              0xe51f4 (size before relaxing)
 .debug_str     0x000f6872       0xf2 ./device/system_MIMXRT1011.o
                              0xe29c2 (size before relaxing)
 .debug_str     0x000f6964      0x361 ./component/uart/lpuart_adapter.o
                              0xe78ed (size before relaxing)
 .debug_str     0x000f6cc5      0x381 ./component/serial_manager/serial_manager.o
                              0xe40eb (size before relaxing)
 .debug_str     0x000f7046       0xfc ./component/serial_manager/serial_port_uart.o
                              0xe7144 (size before relaxing)
 .debug_str     0x000f7142      0x604 ./component/i2c/lpi2c_adapter.o
                              0xe5226 (size before relaxing)
 .debug_str     0x000f7746      0xfe4 ./codec/fsl_codec_adapter.o
                              0xe64c1 (size before relaxing)
 .debug_str     0x000f872a      0x113 ./codec/fsl_codec_common.o
                              0xe4324 (size before relaxing)
 .debug_str     0x000f883d      0x150 ./codec/fsl_codec_i2c.o
                              0xe3bc6 (size before relaxing)
 .debug_str     0x000f898d      0x17d ./codec/fsl_wm8960.o
                              0xe56eb (size before relaxing)
 .debug_str     0x000f8b0a     0x555b ./board/board.o
                              0xea6b0 (size before relaxing)
 .debug_str     0x000fe065      0x2c2 ./board/clock_config.o
                              0xea825 (size before relaxing)
 .debug_str     0x000fe327       0xdb ./board/pin_mux.o
                              0xe95c9 (size before relaxing)
 .debug_str     0x000fe402      0x2b6 ./amazon-freertos/freertos/portable/heap_4.o
                               0x8628 (size before relaxing)
 .debug_str     0x000fe6b8      0x82b ./amazon-freertos/freertos/portable/port.o
                               0x8bc5 (size before relaxing)
 .debug_str     0x000feee3      0x436 ./amazon-freertos/freertos/event_groups.o
                               0x90cb (size before relaxing)
 .debug_str     0x000ff319       0xa5 ./amazon-freertos/freertos/list.o
                               0x7e42 (size before relaxing)
 .debug_str     0x000ff3be      0x80d ./amazon-freertos/freertos/queue.o
                               0x94d6 (size before relaxing)
 .debug_str     0x000ffbcb     0x13a8 ./amazon-freertos/freertos/tasks.o
                               0xa1f4 (size before relaxing)
 .debug_str     0x00100f73      0x5b6 ./amazon-freertos/freertos/timers.o
                               0x99fa (size before relaxing)
 .debug_str     0x00101529      0x5a5 C:\Users\josel\Documents\MCUXpressoIDE_11.4.0_6237\workspace\MIMXRT1011_Project_NoteDetect_Project\libs\libarm_cortexM7lfsp_math.a(arm_max_f32.o)
                                0x690 (size before relaxing)
 .debug_str     0x00101ace      0x559 C:\Users\josel\Documents\MCUXpressoIDE_11.4.0_6237\workspace\MIMXRT1011_Project_NoteDetect_Project\libs\libarm_cortexM7lfsp_math.a(arm_cfft_radix2_init_f32.o)
                                0xca2 (size before relaxing)
 .debug_str     0x00102027       0xac C:\Users\josel\Documents\MCUXpressoIDE_11.4.0_6237\workspace\MIMXRT1011_Project_NoteDetect_Project\libs\libarm_cortexM7lfsp_math.a(arm_cfft_radix2_f32.o)
                                0x76d (size before relaxing)
 .debug_str     0x001020d3       0x82 C:\Users\josel\Documents\MCUXpressoIDE_11.4.0_6237\workspace\MIMXRT1011_Project_NoteDetect_Project\libs\libarm_cortexM7lfsp_math.a(arm_bitreversal.o)
                                0xbeb (size before relaxing)
 .debug_str     0x00102155       0x7a C:\Users\josel\Documents\MCUXpressoIDE_11.4.0_6237\workspace\MIMXRT1011_Project_NoteDetect_Project\libs\libarm_cortexM7lfsp_math.a(arm_cmplx_mag_f32.o)
                                0x739 (size before relaxing)
 .debug_str     0x001021cf       0x2e C:\Users\josel\Documents\MCUXpressoIDE_11.4.0_6237\workspace\MIMXRT1011_Project_NoteDetect_Project\libs\libarm_cortexM7lfsp_math.a(arm_common_tables.o)
                                0xb4e (size before relaxing)

.comment        0x00000000       0xc2
 .comment       0x00000000       0x4d ./xip/evkmimxrt1010_flexspi_nor_config.o
                                 0x4e (size before relaxing)
 .comment       0x0000004d       0x4e ./xip/fsl_flexspi_nor_boot.o
 .comment       0x0000004d       0x4e ./utilities/fsl_debug_console.o
 .comment       0x0000004d       0x4e ./utilities/fsl_str.o
 .comment       0x0000004d       0x4e ./startup/startup_mimxrt1011.o
 .comment       0x0000004d       0x4e ./source/Fourier.o
 .comment       0x0000004d       0x4e ./source/MIMXRT1011_Project_NoteDetect_Project.o
 .comment       0x0000004d       0x4e ./source/NoteDetectApp.o
 .comment       0x0000004d       0x4e ./source/semihost_hardfault.o
 .comment       0x0000004d       0x4e ./drivers/fsl_clock.o
 .comment       0x0000004d       0x4e ./drivers/fsl_dmamux.o
 .comment       0x0000004d       0x4e ./drivers/fsl_edma.o
 .comment       0x0000004d       0x4e ./drivers/fsl_lpi2c.o
 .comment       0x0000004d       0x4e ./drivers/fsl_lpuart.o
 .comment       0x0000004d       0x4e ./drivers/fsl_sai.o
 .comment       0x0000004d       0x4e ./drivers/fsl_sai_edma.o
 .comment       0x0000004d       0x4e ./device/system_MIMXRT1011.o
 .comment       0x0000004d       0x4e ./component/uart/lpuart_adapter.o
 .comment       0x0000004d       0x4e ./component/serial_manager/serial_manager.o
 .comment       0x0000004d       0x4e ./component/serial_manager/serial_port_uart.o
 .comment       0x0000004d       0x4e ./component/i2c/lpi2c_adapter.o
 .comment       0x0000004d       0x4e ./codec/fsl_codec_adapter.o
 .comment       0x0000004d       0x4e ./codec/fsl_codec_common.o
 .comment       0x0000004d       0x4e ./codec/fsl_codec_i2c.o
 .comment       0x0000004d       0x4e ./codec/fsl_wm8960.o
 .comment       0x0000004d       0x4e ./board/board.o
 .comment       0x0000004d       0x4e ./board/clock_config.o
 .comment       0x0000004d       0x4e ./board/pin_mux.o
 .comment       0x0000004d       0x4e ./amazon-freertos/freertos/portable/heap_4.o
 .comment       0x0000004d       0x4e ./amazon-freertos/freertos/portable/port.o
 .comment       0x0000004d       0x4e ./amazon-freertos/freertos/event_groups.o
 .comment       0x0000004d       0x4e ./amazon-freertos/freertos/list.o
 .comment       0x0000004d       0x4e ./amazon-freertos/freertos/queue.o
 .comment       0x0000004d       0x4e ./amazon-freertos/freertos/tasks.o
 .comment       0x0000004d       0x4e ./amazon-freertos/freertos/timers.o
 .comment       0x0000004d       0x75 C:\Users\josel\Documents\MCUXpressoIDE_11.4.0_6237\workspace\MIMXRT1011_Project_NoteDetect_Project\libs\libarm_cortexM7lfsp_math.a(arm_max_f32.o)
                                 0x76 (size before relaxing)
 .comment       0x000000c2       0x76 C:\Users\josel\Documents\MCUXpressoIDE_11.4.0_6237\workspace\MIMXRT1011_Project_NoteDetect_Project\libs\libarm_cortexM7lfsp_math.a(arm_cfft_radix2_init_f32.o)
 .comment       0x000000c2       0x76 C:\Users\josel\Documents\MCUXpressoIDE_11.4.0_6237\workspace\MIMXRT1011_Project_NoteDetect_Project\libs\libarm_cortexM7lfsp_math.a(arm_cfft_radix2_f32.o)
 .comment       0x000000c2       0x76 C:\Users\josel\Documents\MCUXpressoIDE_11.4.0_6237\workspace\MIMXRT1011_Project_NoteDetect_Project\libs\libarm_cortexM7lfsp_math.a(arm_bitreversal.o)
 .comment       0x000000c2       0x76 C:\Users\josel\Documents\MCUXpressoIDE_11.4.0_6237\workspace\MIMXRT1011_Project_NoteDetect_Project\libs\libarm_cortexM7lfsp_math.a(arm_cmplx_mag_f32.o)
 .comment       0x000000c2       0x76 C:\Users\josel\Documents\MCUXpressoIDE_11.4.0_6237\workspace\MIMXRT1011_Project_NoteDetect_Project\libs\libarm_cortexM7lfsp_math.a(arm_common_tables.o)
 .comment       0x000000c2       0x4e c:/nxp/mcuxpressoide_11.4.0_6237/ide/plugins/com.nxp.mcuxpresso.tools.win32_11.4.0.202103011116/tools/bin/../lib/gcc/arm-none-eabi/10.2.1/../../../../arm-none-eabi/lib/thumb/v7e-m+fp/hard\libcr_nohost_nf.a(_cr__main.o)
 .comment       0x000000c2       0x4e c:/nxp/mcuxpressoide_11.4.0_6237/ide/plugins/com.nxp.mcuxpresso.tools.win32_11.4.0.202103011116/tools/bin/../lib/gcc/arm-none-eabi/10.2.1/../../../../arm-none-eabi/lib/thumb/v7e-m+fp/hard\libcr_nohost_nf.a(_cr_assert.o)
 .comment       0x000000c2       0x4e c:/nxp/mcuxpressoide_11.4.0_6237/ide/plugins/com.nxp.mcuxpresso.tools.win32_11.4.0.202103011116/tools/bin/../lib/gcc/arm-none-eabi/10.2.1/../../../../arm-none-eabi/lib/thumb/v7e-m+fp/hard\libcr_nohost_nf.a(__ciob.o)
 .comment       0x000000c2       0x4e c:/nxp/mcuxpressoide_11.4.0_6237/ide/plugins/com.nxp.mcuxpresso.tools.win32_11.4.0.202103011116/tools/bin/../lib/gcc/arm-none-eabi/10.2.1/../../../../arm-none-eabi/lib/thumb/v7e-m+fp/hard\libcr_nohost_nf.a(__sys_appexit.o)
 .comment       0x000000c2       0x4e c:/nxp/mcuxpressoide_11.4.0_6237/ide/plugins/com.nxp.mcuxpresso.tools.win32_11.4.0.202103011116/tools/bin/../lib/gcc/arm-none-eabi/10.2.1/../../../../arm-none-eabi/lib/thumb/v7e-m+fp/hard\libcr_c.a(memcpy.o)
 .comment       0x000000c2       0x4e c:/nxp/mcuxpressoide_11.4.0_6237/ide/plugins/com.nxp.mcuxpresso.tools.win32_11.4.0.202103011116/tools/bin/../lib/gcc/arm-none-eabi/10.2.1/../../../../arm-none-eabi/lib/thumb/v7e-m+fp/hard\libcr_c.a(memset.o)
 .comment       0x000000c2       0x4e c:/nxp/mcuxpressoide_11.4.0_6237/ide/plugins/com.nxp.mcuxpresso.tools.win32_11.4.0.202103011116/tools/bin/../lib/gcc/arm-none-eabi/10.2.1/../../../../arm-none-eabi/lib/thumb/v7e-m+fp/hard\libcr_c.a(_deferredlazyseek.o)
 .comment       0x000000c2       0x4e c:/nxp/mcuxpressoide_11.4.0_6237/ide/plugins/com.nxp.mcuxpresso.tools.win32_11.4.0.202103011116/tools/bin/../lib/gcc/arm-none-eabi/10.2.1/../../../../arm-none-eabi/lib/thumb/v7e-m+fp/hard\libcr_c.a(_fflush.o)
 .comment       0x000000c2       0x4e c:/nxp/mcuxpressoide_11.4.0_6237/ide/plugins/com.nxp.mcuxpresso.tools.win32_11.4.0.202103011116/tools/bin/../lib/gcc/arm-none-eabi/10.2.1/../../../../arm-none-eabi/lib/thumb/v7e-m+fp/hard\libcr_c.a(_writebuf.o)
 .comment       0x000000c2       0x4e c:/nxp/mcuxpressoide_11.4.0_6237/ide/plugins/com.nxp.mcuxpresso.tools.win32_11.4.0.202103011116/tools/bin/../lib/gcc/arm-none-eabi/10.2.1/../../../../arm-none-eabi/lib/thumb/v7e-m+fp/hard\libcr_c.a(alloc.o)
 .comment       0x000000c2       0x4e c:/nxp/mcuxpressoide_11.4.0_6237/ide/plugins/com.nxp.mcuxpresso.tools.win32_11.4.0.202103011116/tools/bin/../lib/gcc/arm-none-eabi/10.2.1/../../../../arm-none-eabi/lib/thumb/v7e-m+fp/hard\libcr_c.a(fputs.o)
 .comment       0x000000c2       0x4e c:/nxp/mcuxpressoide_11.4.0_6237/ide/plugins/com.nxp.mcuxpresso.tools.win32_11.4.0.202103011116/tools/bin/../lib/gcc/arm-none-eabi/10.2.1/../../../../arm-none-eabi/lib/thumb/v7e-m+fp/hard\libcr_c.a(fseek.o)
 .comment       0x000000c2       0x4e c:/nxp/mcuxpressoide_11.4.0_6237/ide/plugins/com.nxp.mcuxpresso.tools.win32_11.4.0.202103011116/tools/bin/../lib/gcc/arm-none-eabi/10.2.1/../../../../arm-none-eabi/lib/thumb/v7e-m+fp/hard\libcr_c.a(ftell.o)
 .comment       0x000000c2       0x4e c:/nxp/mcuxpressoide_11.4.0_6237/ide/plugins/com.nxp.mcuxpresso.tools.win32_11.4.0.202103011116/tools/bin/../lib/gcc/arm-none-eabi/10.2.1/../../../../arm-none-eabi/lib/thumb/v7e-m+fp/hard\libcr_c.a(initio.o)
 .comment       0x000000c2       0x4e c:/nxp/mcuxpressoide_11.4.0_6237/ide/plugins/com.nxp.mcuxpresso.tools.win32_11.4.0.202103011116/tools/bin/../lib/gcc/arm-none-eabi/10.2.1/../../../../arm-none-eabi/lib/thumb/v7e-m+fp/hard\libcr_c.a(setvbuf.o)
 .comment       0x000000c2       0x4e c:/nxp/mcuxpressoide_11.4.0_6237/ide/plugins/com.nxp.mcuxpresso.tools.win32_11.4.0.202103011116/tools/bin/../lib/gcc/arm-none-eabi/10.2.1/../../../../arm-none-eabi/lib/thumb/v7e-m+fp/hard\libcr_c.a(strlen.o)
 .comment       0x000000c2       0x4e c:/nxp/mcuxpressoide_11.4.0_6237/ide/plugins/com.nxp.mcuxpresso.tools.win32_11.4.0.202103011116/tools/bin/../lib/gcc/arm-none-eabi/10.2.1/../../../../arm-none-eabi/lib/thumb/v7e-m+fp/hard\libcr_c.a(__init_alloc.o)
 .comment       0x000000c2       0x4e c:/nxp/mcuxpressoide_11.4.0_6237/ide/plugins/com.nxp.mcuxpresso.tools.win32_11.4.0.202103011116/tools/bin/../lib/gcc/arm-none-eabi/10.2.1/../../../../arm-none-eabi/lib/thumb/v7e-m+fp/hard\libcr_c.a(_cr_sbrk.o)
 .comment       0x000000c2       0x4e c:/nxp/mcuxpressoide_11.4.0_6237/ide/plugins/com.nxp.mcuxpresso.tools.win32_11.4.0.202103011116/tools/bin/../lib/gcc/arm-none-eabi/10.2.1/../../../../arm-none-eabi/lib/thumb/v7e-m+fp/hard\libcr_c.a(_fdopen.o)
 .comment       0x000000c2       0x4e c:/nxp/mcuxpressoide_11.4.0_6237/ide/plugins/com.nxp.mcuxpresso.tools.win32_11.4.0.202103011116/tools/bin/../lib/gcc/arm-none-eabi/10.2.1/../../../../arm-none-eabi/lib/thumb/v7e-m+fp/hard\libcr_c.a(errno.o)
 .comment       0x000000c2       0x4e c:/nxp/mcuxpressoide_11.4.0_6237/ide/plugins/com.nxp.mcuxpresso.tools.win32_11.4.0.202103011116/tools/bin/../lib/gcc/arm-none-eabi/10.2.1/../../../../arm-none-eabi/lib/thumb/v7e-m+fp/hard\libcr_c.a(fclose.o)
 .comment       0x000000c2       0x4e c:/nxp/mcuxpressoide_11.4.0_6237/ide/plugins/com.nxp.mcuxpresso.tools.win32_11.4.0.202103011116/tools/bin/../lib/gcc/arm-none-eabi/10.2.1/../../../../arm-none-eabi/lib/thumb/v7e-m+fp/hard\libcr_c.a(fflush.o)
 .comment       0x000000c2       0x4e c:/nxp/mcuxpressoide_11.4.0_6237/ide/plugins/com.nxp.mcuxpresso.tools.win32_11.4.0.202103011116/tools/bin/../lib/gcc/arm-none-eabi/10.2.1/../../../../arm-none-eabi/lib/thumb/v7e-m+fp/hard\libcr_c.a(remove.o)
 .comment       0x000000c2       0x4e c:/nxp/mcuxpressoide_11.4.0_6237/ide/plugins/com.nxp.mcuxpresso.tools.win32_11.4.0.202103011116/tools/bin/../lib/gcc/arm-none-eabi/10.2.1/../../../../arm-none-eabi/lib/thumb/v7e-m+fp/hard\libcr_c.a(_cr_check_heap.o)
 .comment       0x000000c2       0x4e c:/nxp/mcuxpressoide_11.4.0_6237/ide/plugins/com.nxp.mcuxpresso.tools.win32_11.4.0.202103011116/tools/bin/../lib/gcc/arm-none-eabi/10.2.1/../../../../arm-none-eabi/lib/thumb/v7e-m+fp/hard\libcr_c.a(_do_fflush.o)
 .comment       0x000000c2       0x4e c:/nxp/mcuxpressoide_11.4.0_6237/ide/plugins/com.nxp.mcuxpresso.tools.win32_11.4.0.202103011116/tools/bin/../lib/gcc/arm-none-eabi/10.2.1/../../../../arm-none-eabi/lib/thumb/v7e-m+fp/hard\libcr_nohost_nf.a(__sys_close.o)
 .comment       0x000000c2       0x4e c:/nxp/mcuxpressoide_11.4.0_6237/ide/plugins/com.nxp.mcuxpresso.tools.win32_11.4.0.202103011116/tools/bin/../lib/gcc/arm-none-eabi/10.2.1/../../../../arm-none-eabi/lib/thumb/v7e-m+fp/hard\libcr_nohost_nf.a(__sys_flen.o)
 .comment       0x000000c2       0x4e c:/nxp/mcuxpressoide_11.4.0_6237/ide/plugins/com.nxp.mcuxpresso.tools.win32_11.4.0.202103011116/tools/bin/../lib/gcc/arm-none-eabi/10.2.1/../../../../arm-none-eabi/lib/thumb/v7e-m+fp/hard\libcr_nohost_nf.a(__sys_istty.o)
 .comment       0x000000c2       0x4e c:/nxp/mcuxpressoide_11.4.0_6237/ide/plugins/com.nxp.mcuxpresso.tools.win32_11.4.0.202103011116/tools/bin/../lib/gcc/arm-none-eabi/10.2.1/../../../../arm-none-eabi/lib/thumb/v7e-m+fp/hard\libcr_nohost_nf.a(__sys_remove.o)
 .comment       0x000000c2       0x4e c:/nxp/mcuxpressoide_11.4.0_6237/ide/plugins/com.nxp.mcuxpresso.tools.win32_11.4.0.202103011116/tools/bin/../lib/gcc/arm-none-eabi/10.2.1/../../../../arm-none-eabi/lib/thumb/v7e-m+fp/hard\libcr_nohost_nf.a(__sys_seek.o)
 .comment       0x000000c2       0x4e c:/nxp/mcuxpressoide_11.4.0_6237/ide/plugins/com.nxp.mcuxpresso.tools.win32_11.4.0.202103011116/tools/bin/../lib/gcc/arm-none-eabi/10.2.1/../../../../arm-none-eabi/lib/thumb/v7e-m+fp/hard\libcr_nohost_nf.a(__sys_tmpnam.o)
 .comment       0x000000c2       0x4e c:/nxp/mcuxpressoide_11.4.0_6237/ide/plugins/com.nxp.mcuxpresso.tools.win32_11.4.0.202103011116/tools/bin/../lib/gcc/arm-none-eabi/10.2.1/../../../../arm-none-eabi/lib/thumb/v7e-m+fp/hard\libcr_nohost_nf.a(__sys_write.o)

.ARM.attributes
                0x00000000       0x37
 .ARM.attributes
                0x00000000       0x39 ./xip/evkmimxrt1010_flexspi_nor_config.o
 .ARM.attributes
                0x00000039       0x39 ./xip/fsl_flexspi_nor_boot.o
 .ARM.attributes
                0x00000072       0x34 ./utilities/fsl_debug_console.o
 .ARM.attributes
                0x000000a6       0x34 ./utilities/fsl_str.o
 .ARM.attributes
                0x000000da       0x34 ./startup/startup_mimxrt1011.o
 .ARM.attributes
                0x0000010e       0x34 ./source/Fourier.o
 .ARM.attributes
                0x00000142       0x34 ./source/MIMXRT1011_Project_NoteDetect_Project.o
 .ARM.attributes
                0x00000176       0x34 ./source/NoteDetectApp.o
 .ARM.attributes
                0x000001aa       0x34 ./source/semihost_hardfault.o
 .ARM.attributes
                0x000001de       0x34 ./drivers/fsl_clock.o
 .ARM.attributes
                0x00000212       0x34 ./drivers/fsl_dmamux.o
 .ARM.attributes
                0x00000246       0x34 ./drivers/fsl_edma.o
 .ARM.attributes
                0x0000027a       0x34 ./drivers/fsl_lpi2c.o
 .ARM.attributes
                0x000002ae       0x34 ./drivers/fsl_lpuart.o
 .ARM.attributes
                0x000002e2       0x34 ./drivers/fsl_sai.o
 .ARM.attributes
                0x00000316       0x34 ./drivers/fsl_sai_edma.o
 .ARM.attributes
                0x0000034a       0x34 ./device/system_MIMXRT1011.o
 .ARM.attributes
                0x0000037e       0x34 ./component/uart/lpuart_adapter.o
 .ARM.attributes
                0x000003b2       0x34 ./component/serial_manager/serial_manager.o
 .ARM.attributes
                0x000003e6       0x34 ./component/serial_manager/serial_port_uart.o
 .ARM.attributes
                0x0000041a       0x34 ./component/i2c/lpi2c_adapter.o
 .ARM.attributes
                0x0000044e       0x34 ./codec/fsl_codec_adapter.o
 .ARM.attributes
                0x00000482       0x34 ./codec/fsl_codec_common.o
 .ARM.attributes
                0x000004b6       0x34 ./codec/fsl_codec_i2c.o
 .ARM.attributes
                0x000004ea       0x34 ./codec/fsl_wm8960.o
 .ARM.attributes
                0x0000051e       0x34 ./board/board.o
 .ARM.attributes
                0x00000552       0x34 ./board/clock_config.o
 .ARM.attributes
                0x00000586       0x34 ./board/pin_mux.o
 .ARM.attributes
                0x000005ba       0x34 ./amazon-freertos/freertos/portable/heap_4.o
 .ARM.attributes
                0x000005ee       0x34 ./amazon-freertos/freertos/portable/port.o
 .ARM.attributes
                0x00000622       0x34 ./amazon-freertos/freertos/event_groups.o
 .ARM.attributes
                0x00000656       0x34 ./amazon-freertos/freertos/list.o
 .ARM.attributes
                0x0000068a       0x34 ./amazon-freertos/freertos/queue.o
 .ARM.attributes
                0x000006be       0x34 ./amazon-freertos/freertos/tasks.o
 .ARM.attributes
                0x000006f2       0x34 ./amazon-freertos/freertos/timers.o
 .ARM.attributes
                0x00000726       0x34 C:\Users\josel\Documents\MCUXpressoIDE_11.4.0_6237\workspace\MIMXRT1011_Project_NoteDetect_Project\libs\libarm_cortexM7lfsp_math.a(arm_max_f32.o)
 .ARM.attributes
                0x0000075a       0x34 C:\Users\josel\Documents\MCUXpressoIDE_11.4.0_6237\workspace\MIMXRT1011_Project_NoteDetect_Project\libs\libarm_cortexM7lfsp_math.a(arm_cfft_radix2_init_f32.o)
 .ARM.attributes
                0x0000078e       0x34 C:\Users\josel\Documents\MCUXpressoIDE_11.4.0_6237\workspace\MIMXRT1011_Project_NoteDetect_Project\libs\libarm_cortexM7lfsp_math.a(arm_cfft_radix2_f32.o)
 .ARM.attributes
                0x000007c2       0x34 C:\Users\josel\Documents\MCUXpressoIDE_11.4.0_6237\workspace\MIMXRT1011_Project_NoteDetect_Project\libs\libarm_cortexM7lfsp_math.a(arm_bitreversal.o)
 .ARM.attributes
                0x000007f6       0x34 C:\Users\josel\Documents\MCUXpressoIDE_11.4.0_6237\workspace\MIMXRT1011_Project_NoteDetect_Project\libs\libarm_cortexM7lfsp_math.a(arm_cmplx_mag_f32.o)
 .ARM.attributes
                0x0000082a       0x39 C:\Users\josel\Documents\MCUXpressoIDE_11.4.0_6237\workspace\MIMXRT1011_Project_NoteDetect_Project\libs\libarm_cortexM7lfsp_math.a(arm_common_tables.o)
 .ARM.attributes
                0x00000863       0x34 c:/nxp/mcuxpressoide_11.4.0_6237/ide/plugins/com.nxp.mcuxpresso.tools.win32_11.4.0.202103011116/tools/bin/../lib/gcc/arm-none-eabi/10.2.1/../../../../arm-none-eabi/lib/thumb/v7e-m+fp/hard\libcr_nohost_nf.a(_cr__main.o)
 .ARM.attributes
                0x00000897       0x34 c:/nxp/mcuxpressoide_11.4.0_6237/ide/plugins/com.nxp.mcuxpresso.tools.win32_11.4.0.202103011116/tools/bin/../lib/gcc/arm-none-eabi/10.2.1/../../../../arm-none-eabi/lib/thumb/v7e-m+fp/hard\libcr_nohost_nf.a(_cr_assert.o)
 .ARM.attributes
                0x000008cb       0x39 c:/nxp/mcuxpressoide_11.4.0_6237/ide/plugins/com.nxp.mcuxpresso.tools.win32_11.4.0.202103011116/tools/bin/../lib/gcc/arm-none-eabi/10.2.1/../../../../arm-none-eabi/lib/thumb/v7e-m+fp/hard\libcr_nohost_nf.a(__ciob.o)
 .ARM.attributes
                0x00000904       0x34 c:/nxp/mcuxpressoide_11.4.0_6237/ide/plugins/com.nxp.mcuxpresso.tools.win32_11.4.0.202103011116/tools/bin/../lib/gcc/arm-none-eabi/10.2.1/../../../../arm-none-eabi/lib/thumb/v7e-m+fp/hard\libcr_nohost_nf.a(__sys_appexit.o)
 .ARM.attributes
                0x00000938       0x20 c:/nxp/mcuxpressoide_11.4.0_6237/ide/plugins/com.nxp.mcuxpresso.tools.win32_11.4.0.202103011116/tools/bin/../lib/gcc/arm-none-eabi/10.2.1/../../../../arm-none-eabi/lib/thumb/v7e-m+fp/hard\libcr_c.a(sqrtf_m4_hardfp.o)
 .ARM.attributes
                0x00000958       0x34 c:/nxp/mcuxpressoide_11.4.0_6237/ide/plugins/com.nxp.mcuxpresso.tools.win32_11.4.0.202103011116/tools/bin/../lib/gcc/arm-none-eabi/10.2.1/../../../../arm-none-eabi/lib/thumb/v7e-m+fp/hard\libcr_c.a(memcpy.o)
 .ARM.attributes
                0x0000098c       0x34 c:/nxp/mcuxpressoide_11.4.0_6237/ide/plugins/com.nxp.mcuxpresso.tools.win32_11.4.0.202103011116/tools/bin/../lib/gcc/arm-none-eabi/10.2.1/../../../../arm-none-eabi/lib/thumb/v7e-m+fp/hard\libcr_c.a(memset.o)
 .ARM.attributes
                0x000009c0       0x34 c:/nxp/mcuxpressoide_11.4.0_6237/ide/plugins/com.nxp.mcuxpresso.tools.win32_11.4.0.202103011116/tools/bin/../lib/gcc/arm-none-eabi/10.2.1/../../../../arm-none-eabi/lib/thumb/v7e-m+fp/hard\libcr_c.a(_deferredlazyseek.o)
 .ARM.attributes
                0x000009f4       0x34 c:/nxp/mcuxpressoide_11.4.0_6237/ide/plugins/com.nxp.mcuxpresso.tools.win32_11.4.0.202103011116/tools/bin/../lib/gcc/arm-none-eabi/10.2.1/../../../../arm-none-eabi/lib/thumb/v7e-m+fp/hard\libcr_c.a(_fflush.o)
 .ARM.attributes
                0x00000a28       0x34 c:/nxp/mcuxpressoide_11.4.0_6237/ide/plugins/com.nxp.mcuxpresso.tools.win32_11.4.0.202103011116/tools/bin/../lib/gcc/arm-none-eabi/10.2.1/../../../../arm-none-eabi/lib/thumb/v7e-m+fp/hard\libcr_c.a(_writebuf.o)
 .ARM.attributes
                0x00000a5c       0x34 c:/nxp/mcuxpressoide_11.4.0_6237/ide/plugins/com.nxp.mcuxpresso.tools.win32_11.4.0.202103011116/tools/bin/../lib/gcc/arm-none-eabi/10.2.1/../../../../arm-none-eabi/lib/thumb/v7e-m+fp/hard\libcr_c.a(alloc.o)
 .ARM.attributes
                0x00000a90       0x34 c:/nxp/mcuxpressoide_11.4.0_6237/ide/plugins/com.nxp.mcuxpresso.tools.win32_11.4.0.202103011116/tools/bin/../lib/gcc/arm-none-eabi/10.2.1/../../../../arm-none-eabi/lib/thumb/v7e-m+fp/hard\libcr_c.a(fputs.o)
 .ARM.attributes
                0x00000ac4       0x34 c:/nxp/mcuxpressoide_11.4.0_6237/ide/plugins/com.nxp.mcuxpresso.tools.win32_11.4.0.202103011116/tools/bin/../lib/gcc/arm-none-eabi/10.2.1/../../../../arm-none-eabi/lib/thumb/v7e-m+fp/hard\libcr_c.a(fseek.o)
 .ARM.attributes
                0x00000af8       0x34 c:/nxp/mcuxpressoide_11.4.0_6237/ide/plugins/com.nxp.mcuxpresso.tools.win32_11.4.0.202103011116/tools/bin/../lib/gcc/arm-none-eabi/10.2.1/../../../../arm-none-eabi/lib/thumb/v7e-m+fp/hard\libcr_c.a(ftell.o)
 .ARM.attributes
                0x00000b2c       0x34 c:/nxp/mcuxpressoide_11.4.0_6237/ide/plugins/com.nxp.mcuxpresso.tools.win32_11.4.0.202103011116/tools/bin/../lib/gcc/arm-none-eabi/10.2.1/../../../../arm-none-eabi/lib/thumb/v7e-m+fp/hard\libcr_c.a(initio.o)
 .ARM.attributes
                0x00000b60       0x34 c:/nxp/mcuxpressoide_11.4.0_6237/ide/plugins/com.nxp.mcuxpresso.tools.win32_11.4.0.202103011116/tools/bin/../lib/gcc/arm-none-eabi/10.2.1/../../../../arm-none-eabi/lib/thumb/v7e-m+fp/hard\libcr_c.a(setvbuf.o)
 .ARM.attributes
                0x00000b94       0x34 c:/nxp/mcuxpressoide_11.4.0_6237/ide/plugins/com.nxp.mcuxpresso.tools.win32_11.4.0.202103011116/tools/bin/../lib/gcc/arm-none-eabi/10.2.1/../../../../arm-none-eabi/lib/thumb/v7e-m+fp/hard\libcr_c.a(strlen.o)
 .ARM.attributes
                0x00000bc8       0x34 c:/nxp/mcuxpressoide_11.4.0_6237/ide/plugins/com.nxp.mcuxpresso.tools.win32_11.4.0.202103011116/tools/bin/../lib/gcc/arm-none-eabi/10.2.1/../../../../arm-none-eabi/lib/thumb/v7e-m+fp/hard\libcr_c.a(__init_alloc.o)
 .ARM.attributes
                0x00000bfc       0x34 c:/nxp/mcuxpressoide_11.4.0_6237/ide/plugins/com.nxp.mcuxpresso.tools.win32_11.4.0.202103011116/tools/bin/../lib/gcc/arm-none-eabi/10.2.1/../../../../arm-none-eabi/lib/thumb/v7e-m+fp/hard\libcr_c.a(_cr_sbrk.o)
 .ARM.attributes
                0x00000c30       0x34 c:/nxp/mcuxpressoide_11.4.0_6237/ide/plugins/com.nxp.mcuxpresso.tools.win32_11.4.0.202103011116/tools/bin/../lib/gcc/arm-none-eabi/10.2.1/../../../../arm-none-eabi/lib/thumb/v7e-m+fp/hard\libcr_c.a(_fdopen.o)
 .ARM.attributes
                0x00000c64       0x39 c:/nxp/mcuxpressoide_11.4.0_6237/ide/plugins/com.nxp.mcuxpresso.tools.win32_11.4.0.202103011116/tools/bin/../lib/gcc/arm-none-eabi/10.2.1/../../../../arm-none-eabi/lib/thumb/v7e-m+fp/hard\libcr_c.a(errno.o)
 .ARM.attributes
                0x00000c9d       0x34 c:/nxp/mcuxpressoide_11.4.0_6237/ide/plugins/com.nxp.mcuxpresso.tools.win32_11.4.0.202103011116/tools/bin/../lib/gcc/arm-none-eabi/10.2.1/../../../../arm-none-eabi/lib/thumb/v7e-m+fp/hard\libcr_c.a(fclose.o)
 .ARM.attributes
                0x00000cd1       0x34 c:/nxp/mcuxpressoide_11.4.0_6237/ide/plugins/com.nxp.mcuxpresso.tools.win32_11.4.0.202103011116/tools/bin/../lib/gcc/arm-none-eabi/10.2.1/../../../../arm-none-eabi/lib/thumb/v7e-m+fp/hard\libcr_c.a(fflush.o)
 .ARM.attributes
                0x00000d05       0x34 c:/nxp/mcuxpressoide_11.4.0_6237/ide/plugins/com.nxp.mcuxpresso.tools.win32_11.4.0.202103011116/tools/bin/../lib/gcc/arm-none-eabi/10.2.1/../../../../arm-none-eabi/lib/thumb/v7e-m+fp/hard\libcr_c.a(remove.o)
 .ARM.attributes
                0x00000d39       0x34 c:/nxp/mcuxpressoide_11.4.0_6237/ide/plugins/com.nxp.mcuxpresso.tools.win32_11.4.0.202103011116/tools/bin/../lib/gcc/arm-none-eabi/10.2.1/../../../../arm-none-eabi/lib/thumb/v7e-m+fp/hard\libcr_c.a(_cr_check_heap.o)
 .ARM.attributes
                0x00000d6d       0x34 c:/nxp/mcuxpressoide_11.4.0_6237/ide/plugins/com.nxp.mcuxpresso.tools.win32_11.4.0.202103011116/tools/bin/../lib/gcc/arm-none-eabi/10.2.1/../../../../arm-none-eabi/lib/thumb/v7e-m+fp/hard\libcr_c.a(_do_fflush.o)
 .ARM.attributes
                0x00000da1       0x20 c:/nxp/mcuxpressoide_11.4.0_6237/ide/plugins/com.nxp.mcuxpresso.tools.win32_11.4.0.202103011116/tools/bin/../lib/gcc/arm-none-eabi/10.2.1/thumb/v7e-m+fp/hard\libcr_eabihelpers.a(division_64.o)
 .ARM.attributes
                0x00000dc1       0x20 c:/nxp/mcuxpressoide_11.4.0_6237/ide/plugins/com.nxp.mcuxpresso.tools.win32_11.4.0.202103011116/tools/bin/../lib/gcc/arm-none-eabi/10.2.1/thumb/v7e-m+fp/hard\libcr_eabihelpers.a(division_idiv0.o)
 .ARM.attributes
                0x00000de1       0x20 c:/nxp/mcuxpressoide_11.4.0_6237/ide/plugins/com.nxp.mcuxpresso.tools.win32_11.4.0.202103011116/tools/bin/../lib/gcc/arm-none-eabi/10.2.1/thumb/v7e-m+fp/hard\libcr_eabihelpers.a(memcpy.o)
 .ARM.attributes
                0x00000e01       0x34 c:/nxp/mcuxpressoide_11.4.0_6237/ide/plugins/com.nxp.mcuxpresso.tools.win32_11.4.0.202103011116/tools/bin/../lib/gcc/arm-none-eabi/10.2.1/../../../../arm-none-eabi/lib/thumb/v7e-m+fp/hard\libcr_nohost_nf.a(__sys_close.o)
 .ARM.attributes
                0x00000e35       0x34 c:/nxp/mcuxpressoide_11.4.0_6237/ide/plugins/com.nxp.mcuxpresso.tools.win32_11.4.0.202103011116/tools/bin/../lib/gcc/arm-none-eabi/10.2.1/../../../../arm-none-eabi/lib/thumb/v7e-m+fp/hard\libcr_nohost_nf.a(__sys_flen.o)
 .ARM.attributes
                0x00000e69       0x34 c:/nxp/mcuxpressoide_11.4.0_6237/ide/plugins/com.nxp.mcuxpresso.tools.win32_11.4.0.202103011116/tools/bin/../lib/gcc/arm-none-eabi/10.2.1/../../../../arm-none-eabi/lib/thumb/v7e-m+fp/hard\libcr_nohost_nf.a(__sys_istty.o)
 .ARM.attributes
                0x00000e9d       0x34 c:/nxp/mcuxpressoide_11.4.0_6237/ide/plugins/com.nxp.mcuxpresso.tools.win32_11.4.0.202103011116/tools/bin/../lib/gcc/arm-none-eabi/10.2.1/../../../../arm-none-eabi/lib/thumb/v7e-m+fp/hard\libcr_nohost_nf.a(__sys_remove.o)
 .ARM.attributes
                0x00000ed1       0x34 c:/nxp/mcuxpressoide_11.4.0_6237/ide/plugins/com.nxp.mcuxpresso.tools.win32_11.4.0.202103011116/tools/bin/../lib/gcc/arm-none-eabi/10.2.1/../../../../arm-none-eabi/lib/thumb/v7e-m+fp/hard\libcr_nohost_nf.a(__sys_seek.o)
 .ARM.attributes
                0x00000f05       0x34 c:/nxp/mcuxpressoide_11.4.0_6237/ide/plugins/com.nxp.mcuxpresso.tools.win32_11.4.0.202103011116/tools/bin/../lib/gcc/arm-none-eabi/10.2.1/../../../../arm-none-eabi/lib/thumb/v7e-m+fp/hard\libcr_nohost_nf.a(__sys_tmpnam.o)
 .ARM.attributes
                0x00000f39       0x34 c:/nxp/mcuxpressoide_11.4.0_6237/ide/plugins/com.nxp.mcuxpresso.tools.win32_11.4.0.202103011116/tools/bin/../lib/gcc/arm-none-eabi/10.2.1/../../../../arm-none-eabi/lib/thumb/v7e-m+fp/hard\libcr_nohost_nf.a(__sys_write.o)

.debug_ranges   0x00000000     0x17e8
 .debug_ranges  0x00000000       0x70 ./utilities/fsl_debug_console.o
 .debug_ranges  0x00000070       0x28 ./utilities/fsl_str.o
 .debug_ranges  0x00000098      0x2d0 ./startup/startup_mimxrt1011.o
 .debug_ranges  0x00000368       0x10 ./source/Fourier.o
 .debug_ranges  0x00000378       0x20 ./source/MIMXRT1011_Project_NoteDetect_Project.o
 .debug_ranges  0x00000398       0x78 ./source/NoteDetectApp.o
 .debug_ranges  0x00000410       0x10 ./source/semihost_hardfault.o
 .debug_ranges  0x00000420      0x110 ./drivers/fsl_clock.o
 .debug_ranges  0x00000530       0x38 ./drivers/fsl_dmamux.o
 .debug_ranges  0x00000568      0x1d0 ./drivers/fsl_edma.o
 .debug_ranges  0x00000738      0x1c0 ./drivers/fsl_lpi2c.o
 .debug_ranges  0x000008f8      0x130 ./drivers/fsl_lpuart.o
 .debug_ranges  0x00000a28      0x298 ./drivers/fsl_sai.o
 .debug_ranges  0x00000cc0       0xb0 ./drivers/fsl_sai_edma.o
 .debug_ranges  0x00000d70       0x20 ./device/system_MIMXRT1011.o
 .debug_ranges  0x00000d90       0x30 ./component/uart/lpuart_adapter.o
 .debug_ranges  0x00000dc0       0x88 ./component/serial_manager/serial_manager.o
 .debug_ranges  0x00000e48       0x28 ./component/serial_manager/serial_port_uart.o
 .debug_ranges  0x00000e70       0xa8 ./component/i2c/lpi2c_adapter.o
 .debug_ranges  0x00000f18       0x58 ./codec/fsl_codec_adapter.o
 .debug_ranges  0x00000f70       0x58 ./codec/fsl_codec_common.o
 .debug_ranges  0x00000fc8       0x28 ./codec/fsl_codec_i2c.o
 .debug_ranges  0x00000ff0       0x90 ./codec/fsl_wm8960.o
 .debug_ranges  0x00001080       0x50 ./board/board.o
 .debug_ranges  0x000010d0       0x60 ./board/clock_config.o
 .debug_ranges  0x00001130       0x48 ./board/pin_mux.o
 .debug_ranges  0x00001178       0x40 ./amazon-freertos/freertos/portable/heap_4.o
 .debug_ranges  0x000011b8       0x70 ./amazon-freertos/freertos/portable/port.o
 .debug_ranges  0x00001228       0x78 ./amazon-freertos/freertos/event_groups.o
 .debug_ranges  0x000012a0       0x30 ./amazon-freertos/freertos/list.o
 .debug_ranges  0x000012d0      0x120 ./amazon-freertos/freertos/queue.o
 .debug_ranges  0x000013f0      0x1e8 ./amazon-freertos/freertos/tasks.o
 .debug_ranges  0x000015d8       0xd0 ./amazon-freertos/freertos/timers.o
 .debug_ranges  0x000016a8       0x10 C:\Users\josel\Documents\MCUXpressoIDE_11.4.0_6237\workspace\MIMXRT1011_Project_NoteDetect_Project\libs\libarm_cortexM7lfsp_math.a(arm_max_f32.o)
 .debug_ranges  0x000016b8       0x10 C:\Users\josel\Documents\MCUXpressoIDE_11.4.0_6237\workspace\MIMXRT1011_Project_NoteDetect_Project\libs\libarm_cortexM7lfsp_math.a(arm_cfft_radix2_init_f32.o)
 .debug_ranges  0x000016c8       0x20 C:\Users\josel\Documents\MCUXpressoIDE_11.4.0_6237\workspace\MIMXRT1011_Project_NoteDetect_Project\libs\libarm_cortexM7lfsp_math.a(arm_cfft_radix2_f32.o)
 .debug_ranges  0x000016e8       0x20 C:\Users\josel\Documents\MCUXpressoIDE_11.4.0_6237\workspace\MIMXRT1011_Project_NoteDetect_Project\libs\libarm_cortexM7lfsp_math.a(arm_bitreversal.o)
 .debug_ranges  0x00001708       0xe0 C:\Users\josel\Documents\MCUXpressoIDE_11.4.0_6237\workspace\MIMXRT1011_Project_NoteDetect_Project\libs\libarm_cortexM7lfsp_math.a(arm_cmplx_mag_f32.o)

.debug_frame    0x00000000     0x61f4
 .debug_frame   0x00000000      0x208 ./utilities/fsl_debug_console.o
 .debug_frame   0x00000208       0xb4 ./utilities/fsl_str.o
 .debug_frame   0x000002bc      0x834 ./startup/startup_mimxrt1011.o
 .debug_frame   0x00000af0       0x38 ./source/Fourier.o
 .debug_frame   0x00000b28       0x78 ./source/MIMXRT1011_Project_NoteDetect_Project.o
 .debug_frame   0x00000ba0      0x214 ./source/NoteDetectApp.o
 .debug_frame   0x00000db4       0x20 ./source/semihost_hardfault.o
 .debug_frame   0x00000dd4      0x4b8 ./drivers/fsl_clock.o
 .debug_frame   0x0000128c       0xe8 ./drivers/fsl_dmamux.o
 .debug_frame   0x00001374      0x7a8 ./drivers/fsl_edma.o
 .debug_frame   0x00001b1c      0x80c ./drivers/fsl_lpi2c.o
 .debug_frame   0x00002328      0x54c ./drivers/fsl_lpuart.o
 .debug_frame   0x00002874      0xbf4 ./drivers/fsl_sai.o
 .debug_frame   0x00003468      0x334 ./drivers/fsl_sai_edma.o
 .debug_frame   0x0000379c       0x80 ./device/system_MIMXRT1011.o
 .debug_frame   0x0000381c       0xc8 ./component/uart/lpuart_adapter.o
 .debug_frame   0x000038e4      0x258 ./component/serial_manager/serial_manager.o
 .debug_frame   0x00003b3c       0xa0 ./component/serial_manager/serial_port_uart.o
 .debug_frame   0x00003bdc      0x2f8 ./component/i2c/lpi2c_adapter.o
 .debug_frame   0x00003ed4      0x184 ./codec/fsl_codec_adapter.o
 .debug_frame   0x00004058      0x178 ./codec/fsl_codec_common.o
 .debug_frame   0x000041d0       0xa0 ./codec/fsl_codec_i2c.o
 .debug_frame   0x00004270      0x278 ./codec/fsl_wm8960.o
 .debug_frame   0x000044e8      0x15c ./board/board.o
 .debug_frame   0x00004644      0x1a0 ./board/clock_config.o
 .debug_frame   0x000047e4      0x130 ./board/pin_mux.o
 .debug_frame   0x00004914      0x108 ./amazon-freertos/freertos/portable/heap_4.o
 .debug_frame   0x00004a1c      0x198 ./amazon-freertos/freertos/portable/port.o
 .debug_frame   0x00004bb4      0x218 ./amazon-freertos/freertos/event_groups.o
 .debug_frame   0x00004dcc       0xd8 ./amazon-freertos/freertos/list.o
 .debug_frame   0x00004ea4      0x530 ./amazon-freertos/freertos/queue.o
 .debug_frame   0x000053d4      0x8a4 ./amazon-freertos/freertos/tasks.o
 .debug_frame   0x00005c78      0x3b0 ./amazon-freertos/freertos/timers.o
 .debug_frame   0x00006028       0x30 C:\Users\josel\Documents\MCUXpressoIDE_11.4.0_6237\workspace\MIMXRT1011_Project_NoteDetect_Project\libs\libarm_cortexM7lfsp_math.a(arm_max_f32.o)
 .debug_frame   0x00006058       0x34 C:\Users\josel\Documents\MCUXpressoIDE_11.4.0_6237\workspace\MIMXRT1011_Project_NoteDetect_Project\libs\libarm_cortexM7lfsp_math.a(arm_cfft_radix2_init_f32.o)
 .debug_frame   0x0000608c       0x8c C:\Users\josel\Documents\MCUXpressoIDE_11.4.0_6237\workspace\MIMXRT1011_Project_NoteDetect_Project\libs\libarm_cortexM7lfsp_math.a(arm_cfft_radix2_f32.o)
 .debug_frame   0x00006118       0x90 C:\Users\josel\Documents\MCUXpressoIDE_11.4.0_6237\workspace\MIMXRT1011_Project_NoteDetect_Project\libs\libarm_cortexM7lfsp_math.a(arm_bitreversal.o)
 .debug_frame   0x000061a8       0x4c C:\Users\josel\Documents\MCUXpressoIDE_11.4.0_6237\workspace\MIMXRT1011_Project_NoteDetect_Project\libs\libarm_cortexM7lfsp_math.a(arm_cmplx_mag_f32.o)

.debug_loc      0x00000000     0x239c
 .debug_loc     0x00000000      0x30f C:\Users\josel\Documents\MCUXpressoIDE_11.4.0_6237\workspace\MIMXRT1011_Project_NoteDetect_Project\libs\libarm_cortexM7lfsp_math.a(arm_max_f32.o)
 .debug_loc     0x0000030f      0x439 C:\Users\josel\Documents\MCUXpressoIDE_11.4.0_6237\workspace\MIMXRT1011_Project_NoteDetect_Project\libs\libarm_cortexM7lfsp_math.a(arm_cfft_radix2_init_f32.o)
 .debug_loc     0x00000748      0xd4c C:\Users\josel\Documents\MCUXpressoIDE_11.4.0_6237\workspace\MIMXRT1011_Project_NoteDetect_Project\libs\libarm_cortexM7lfsp_math.a(arm_cfft_radix2_f32.o)
 .debug_loc     0x00001494      0x4e1 C:\Users\josel\Documents\MCUXpressoIDE_11.4.0_6237\workspace\MIMXRT1011_Project_NoteDetect_Project\libs\libarm_cortexM7lfsp_math.a(arm_bitreversal.o)
 .debug_loc     0x00001975      0xa27 C:\Users\josel\Documents\MCUXpressoIDE_11.4.0_6237\workspace\MIMXRT1011_Project_NoteDetect_Project\libs\libarm_cortexM7lfsp_math.a(arm_cmplx_mag_f32.o)

Cross Reference Table

Symbol                                            File
ADC1_DriverIRQHandler                             ./startup/startup_mimxrt1011.o
ADC1_IRQHandler                                   ./startup/startup_mimxrt1011.o
ADC_ETC_ERROR_IRQ_DriverIRQHandler                ./startup/startup_mimxrt1011.o
ADC_ETC_ERROR_IRQ_IRQHandler                      ./startup/startup_mimxrt1011.o
ADC_ETC_IRQ0_DriverIRQHandler                     ./startup/startup_mimxrt1011.o
ADC_ETC_IRQ0_IRQHandler                           ./startup/startup_mimxrt1011.o
ADC_ETC_IRQ1_DriverIRQHandler                     ./startup/startup_mimxrt1011.o
ADC_ETC_IRQ1_IRQHandler                           ./startup/startup_mimxrt1011.o
ADC_ETC_IRQ2_DriverIRQHandler                     ./startup/startup_mimxrt1011.o
ADC_ETC_IRQ2_IRQHandler                           ./startup/startup_mimxrt1011.o
ADC_ETC_IRQ3_DriverIRQHandler                     ./startup/startup_mimxrt1011.o
ADC_ETC_IRQ3_IRQHandler                           ./startup/startup_mimxrt1011.o
AppInitTask                                       ./source/NoteDetectApp.o
                                                  ./source/MIMXRT1011_Project_NoteDetect_Project.o
BOARD_BootClockRUN                                ./board/clock_config.o
                                                  ./source/MIMXRT1011_Project_NoteDetect_Project.o
BOARD_ConfigMPU                                   ./board/board.o
                                                  ./source/MIMXRT1011_Project_NoteDetect_Project.o
BOARD_DebugConsoleSrcFreq                         ./board/board.o
BOARD_InitBootClocks                              ./board/clock_config.o
BOARD_InitBootPeripherals                         ./board/peripherals.o
BOARD_InitBootPins                                ./board/pin_mux.o
BOARD_InitDEBUG_UARTPins                          ./board/pin_mux.o
BOARD_InitDebugConsole                            ./board/board.o
                                                  ./source/MIMXRT1011_Project_NoteDetect_Project.o
BOARD_InitPeripherals                             ./board/peripherals.o
BOARD_InitPins                                    ./board/pin_mux.o
                                                  ./source/MIMXRT1011_Project_NoteDetect_Project.o
BOARD_InitQSPIPins                                ./board/pin_mux.o
CCM_1_DriverIRQHandler                            ./startup/startup_mimxrt1011.o
CCM_1_IRQHandler                                  ./startup/startup_mimxrt1011.o
CCM_2_DriverIRQHandler                            ./startup/startup_mimxrt1011.o
CCM_2_IRQHandler                                  ./startup/startup_mimxrt1011.o
CLOCK_DeinitAudioPll                              ./drivers/fsl_clock.o
                                                  ./board/clock_config.o
CLOCK_DeinitEnetPll                               ./drivers/fsl_clock.o
CLOCK_DeinitExternalClk                           ./drivers/fsl_clock.o
CLOCK_DeinitRcOsc24M                              ./drivers/fsl_clock.o
CLOCK_DeinitSysPfd                                ./drivers/fsl_clock.o
CLOCK_DeinitSysPll                                ./drivers/fsl_clock.o
CLOCK_DeinitUsb1Pfd                               ./drivers/fsl_clock.o
CLOCK_DeinitUsb1Pll                               ./drivers/fsl_clock.o
CLOCK_DisableUsbhs0PhyPllClock                    ./drivers/fsl_clock.o
CLOCK_EnableUsbhs0Clock                           ./drivers/fsl_clock.o
CLOCK_EnableUsbhs0PhyPllClock                     ./drivers/fsl_clock.o
CLOCK_GetCoreFreq                                 ./drivers/fsl_clock.o
CLOCK_GetFreq                                     ./drivers/fsl_clock.o
                                                  ./source/NoteDetectApp.o
CLOCK_GetIpgFreq                                  ./drivers/fsl_clock.o
CLOCK_GetPerClkFreq                               ./drivers/fsl_clock.o
CLOCK_GetPllFreq                                  ./drivers/fsl_clock.o
                                                  ./board/board.o
CLOCK_GetSysPfdFreq                               ./drivers/fsl_clock.o
CLOCK_GetUsb1PfdFreq                              ./drivers/fsl_clock.o
CLOCK_InitAudioPll                                ./drivers/fsl_clock.o
                                                  ./source/MIMXRT1011_Project_NoteDetect_Project.o
CLOCK_InitEnetPll                                 ./drivers/fsl_clock.o
                                                  ./board/clock_config.o
CLOCK_InitExternalClk                             ./drivers/fsl_clock.o
                                                  ./board/clock_config.o
